Component: ARM Compiler 5.06 update 7 (build 960) Tool: armlink [4d3601]

==============================================================================

Section Cross References

    startup_stm32g431xx.o(STACK) refers (Special) to heapauxi.o(.text) for __use_two_region_memory
    startup_stm32g431xx.o(HEAP) refers (Special) to heapauxi.o(.text) for __use_two_region_memory
    startup_stm32g431xx.o(RESET) refers (Special) to heapauxi.o(.text) for __use_two_region_memory
    startup_stm32g431xx.o(RESET) refers to startup_stm32g431xx.o(STACK) for __initial_sp
    startup_stm32g431xx.o(RESET) refers to startup_stm32g431xx.o(.text) for Reset_Handler
    startup_stm32g431xx.o(RESET) refers to stm32g4xx_it.o(i.NMI_Handler) for NMI_Handler
    startup_stm32g431xx.o(RESET) refers to stm32g4xx_it.o(i.HardFault_Handler) for HardFault_Handler
    startup_stm32g431xx.o(RESET) refers to stm32g4xx_it.o(i.MemManage_Handler) for MemManage_Handler
    startup_stm32g431xx.o(RESET) refers to stm32g4xx_it.o(i.BusFault_Handler) for BusFault_Handler
    startup_stm32g431xx.o(RESET) refers to stm32g4xx_it.o(i.UsageFault_Handler) for UsageFault_Handler
    startup_stm32g431xx.o(RESET) refers to stm32g4xx_it.o(i.SVC_Handler) for SVC_Handler
    startup_stm32g431xx.o(RESET) refers to stm32g4xx_it.o(i.DebugMon_Handler) for DebugMon_Handler
    startup_stm32g431xx.o(RESET) refers to stm32g4xx_it.o(i.PendSV_Handler) for PendSV_Handler
    startup_stm32g431xx.o(RESET) refers to hw.o(i.SysTick_Handler) for SysTick_Handler
    startup_stm32g431xx.o(RESET) refers to stm32g4xx_it.o(i.USART1_IRQHandler) for USART1_IRQHandler
    startup_stm32g431xx.o(RESET) refers to stm32g4xx_it.o(i.RTC_Alarm_IRQHandler) for RTC_Alarm_IRQHandler
    startup_stm32g431xx.o(.text) refers (Special) to heapauxi.o(.text) for __use_two_region_memory
    startup_stm32g431xx.o(.text) refers to system_stm32g4xx.o(i.SystemInit) for SystemInit
==============================================================================

Removing Unused input sections from the image.

    Removing main.o(.rev16_text), (4 bytes).
    Removing main.o(.revsh_text), (4 bytes).
    Removing main.o(.rrx_text), (6 bytes).
    Removing gpio.o(.rev16_text), (4 bytes).
    Removing gpio.o(.revsh_text), (4 bytes).
    Removing gpio.o(.rrx_text), (6 bytes).
    Removing adc.o(.rev16_text), (4 bytes).
    Removing adc.o(.revsh_text), (4 bytes).
    Removing adc.o(.rrx_text), (6 bytes).
    Removing adc.o(i.HAL_ADC_MspDeInit), (44 bytes).
    Removing rtc.o(.rev16_text), (4 bytes).
    Removing rtc.o(.revsh_text), (4 bytes).
    Removing rtc.o(.rrx_text), (6 bytes).
    Removing rtc.o(i.HAL_RTC_MspDeInit), (44 bytes).
    Removing usart.o(.rev16_text), (4 bytes).
    Removing usart.o(.revsh_text), (4 bytes).
    Removing usart.o(.rrx_text), (6 bytes).
    Removing usart.o(i.HAL_UART_MspDeInit), (52 bytes).
==============================================================================

Image Symbol Table

    Local Symbols

    Symbol Name                              Value     Ov Type        Size  Object(Section)

    ../Core/Src/adc.c                        0x00000000   Number         0  adc.o ABSOLUTE
    ../Core/Src/gpio.c                       0x00000000   Number         0  gpio.o ABSOLUTE
    ../Core/Src/main.c                       0x00000000   Number         0  main.o ABSOLUTE
    ../Core/Src/rtc.c                        0x00000000   Number         0  rtc.o ABSOLUTE
    ../Core/Src/stm32g4xx_hal_msp.c          0x00000000   Number         0  stm32g4xx_hal_msp.o ABSOLUTE
    ../Core/Src/stm32g4xx_it.c               0x00000000   Number         0  stm32g4xx_it.o ABSOLUTE
    ../Core/Src/system_stm32g4xx.c           0x00000000   Number         0  system_stm32g4xx.o ABSOLUTE
    ../Core/Src/usart.c                      0x00000000   Number         0  usart.o ABSOLUTE
    ../Drivers/STM32G4xx_HAL_Driver/Src/stm32g4xx_hal.c 0x00000000   Number         0  stm32g4xx_hal.o ABSOLUTE
    ../Drivers/STM32G4xx_HAL_Driver/Src/stm32g4xx_hal_adc.c 0x00000000   Number         0  stm32g4xx_hal_adc.o ABSOLUTE
    ../Drivers/STM32G4xx_HAL_Driver/Src/stm32g4xx_hal_adc_ex.c 0x00000000   Number         0  stm32g4xx_hal_adc_ex.o ABSOLUTE
    ../Drivers/STM32G4xx_HAL_Driver/Src/stm32g4xx_hal_cortex.c 0x00000000   Number         0  stm32g4xx_hal_cortex.o ABSOLUTE
    ../Drivers/STM32G4xx_HAL_Driver/Src/stm32g4xx_hal_dma.c 0x00000000   Number         0  stm32g4xx_hal_dma.o ABSOLUTE
    ../Drivers/STM32G4xx_HAL_Driver/Src/stm32g4xx_hal_dma_ex.c 0x00000000   Number         0  stm32g4xx_hal_dma_ex.o ABSOLUTE
    ../Drivers/STM32G4xx_HAL_Driver/Src/stm32g4xx_hal_exti.c 0x00000000   Number         0  stm32g4xx_hal_exti.o ABSOLUTE
    ../Drivers/STM32G4xx_HAL_Driver/Src/stm32g4xx_hal_flash.c 0x00000000   Number         0  stm32g4xx_hal_flash.o ABSOLUTE
    ../Drivers/STM32G4xx_HAL_Driver/Src/stm32g4xx_hal_flash_ex.c 0x00000000   Number         0  stm32g4xx_hal_flash_ex.o ABSOLUTE
    ../Drivers/STM32G4xx_HAL_Driver/Src/stm32g4xx_hal_flash_ramfunc.c 0x00000000   Number         0  stm32g4xx_hal_flash_ramfunc.o ABSOLUTE
    ../Drivers/STM32G4xx_HAL_Driver/Src/stm32g4xx_hal_gpio.c 0x00000000   Number         0  stm32g4xx_hal_gpio.o ABSOLUTE
    ../Drivers/STM32G4xx_HAL_Driver/Src/stm32g4xx_hal_pwr.c 0x00000000   Number         0  stm32g4xx_hal_pwr.o ABSOLUTE
    ../Drivers/STM32G4xx_HAL_Driver/Src/stm32g4xx_hal_pwr_ex.c 0x00000000   Number         0  stm32g4xx_hal_pwr_ex.o ABSOLUTE
    ../Drivers/STM32G4xx_HAL_Driver/Src/stm32g4xx_hal_rcc.c 0x00000000   Number         0  stm32g4xx_hal_rcc.o ABSOLUTE
    ../Drivers/STM32G4xx_HAL_Driver/Src/stm32g4xx_hal_rcc_ex.c 0x00000000   Number         0  stm32g4xx_hal_rcc_ex.o ABSOLUTE
    ../Drivers/STM32G4xx_HAL_Driver/Src/stm32g4xx_hal_rtc.c 0x00000000   Number         0  stm32g4xx_hal_rtc.o ABSOLUTE
    ../Drivers/STM32G4xx_HAL_Driver/Src/stm32g4xx_hal_rtc_ex.c 0x00000000   Number         0  stm32g4xx_hal_rtc_ex.o ABSOLUTE
    ../Drivers/STM32G4xx_HAL_Driver/Src/stm32g4xx_hal_tim.c 0x00000000   Number         0  stm32g4xx_hal_tim.o ABSOLUTE
    ../Drivers/STM32G4xx_HAL_Driver/Src/stm32g4xx_hal_tim_ex.c 0x00000000   Number         0  stm32g4xx_hal_tim_ex.o ABSOLUTE
    ../Drivers/STM32G4xx_HAL_Driver/Src/stm32g4xx_hal_uart.c 0x00000000   Number         0  stm32g4xx_hal_uart.o ABSOLUTE
    ../Drivers/STM32G4xx_HAL_Driver/Src/stm32g4xx_hal_uart_ex.c 0x00000000   Number         0  stm32g4xx_hal_uart_ex.o ABSOLUTE
    ../Drivers/STM32G4xx_HAL_Driver/Src/stm32g4xx_ll_adc.c 0x00000000   Number         0  stm32g4xx_ll_adc.o ABSOLUTE
    ../clib/angel/boardlib.s                 0x00000000   Number         0  boardinit3.o ABSOLUTE
    ../clib/angel/boardlib.s                 0x00000000   Number         0  boardshut.o ABSOLUTE
    ../clib/angel/boardlib.s                 0x00000000   Number         0  boardinit2.o ABSOLUTE
    ../clib/angel/boardlib.s                 0x00000000   Number         0  boardinit1.o ABSOLUTE
    ../clib/angel/handlers.s                 0x00000000   Number         0  __scatter_copy.o ABSOLUTE
    ../clib/angel/handlers.s                 0x00000000   Number         0  __scatter_zi.o ABSOLUTE
    ../clib/angel/kernel.s                   0x00000000   Number         0  __rtentry2.o ABSOLUTE
    ../clib/angel/kernel.s                   0x00000000   Number         0  __rtentry4.o ABSOLUTE
    ../clib/angel/kernel.s                   0x00000000   Number         0  rtexit.o ABSOLUTE
    ../clib/angel/kernel.s                   0x00000000   Number         0  rtexit2.o ABSOLUTE
    ../clib/angel/kernel.s                   0x00000000   Number         0  __rtentry.o ABSOLUTE
    ../clib/angel/rt.s                       0x00000000   Number         0  aeabi_ldiv0.o ABSOLUTE
    ../clib/angel/rt.s                       0x00000000   Number         0  rt_raise.o ABSOLUTE
    ../clib/angel/rt.s                       0x00000000   Number         0  rt_div0.o ABSOLUTE
    ../clib/angel/rt.s                       0x00000000   Number         0  rt_locale.o ABSOLUTE
    ../clib/angel/rt.s                       0x00000000   Number         0  aeabi_ldiv0_sigfpe.o ABSOLUTE
    ../clib/angel/rt.s                       0x00000000   Number         0  rt_locale_intlibspace.o ABSOLUTE
    ../clib/angel/scatter.s                  0x00000000   Number         0  __scatter.o ABSOLUTE
    ../clib/angel/startup.s                  0x00000000   Number         0  __main.o ABSOLUTE
    ../clib/angel/sys.s                      0x00000000   Number         0  indicate_semi.o ABSOLUTE
    ../clib/angel/sys.s                      0x00000000   Number         0  use_no_semi.o ABSOLUTE
    ../clib/angel/sys.s                      0x00000000   Number         0  libspace.o ABSOLUTE
    ../clib/angel/sys.s                      0x00000000   Number         0  sys_stackheap_outer.o ABSOLUTE
    ../clib/angel/sysapp.c                   0x00000000   Number         0  sys_wrch.o ABSOLUTE
    ../clib/angel/sysapp.c                   0x00000000   Number         0  sys_exit.o ABSOLUTE
    ../clib/angel/sysapp.c                   0x00000000   Number         0  sys_command.o ABSOLUTE
    ../clib/armsys.c                         0x00000000   Number         0  no_argv.o ABSOLUTE
    ../clib/armsys.c                         0x00000000   Number         0  argv_veneer.o ABSOLUTE
    ../clib/armsys.c                         0x00000000   Number         0  _get_argv_nomalloc.o ABSOLUTE
    ../clib/armsys.c                         0x00000000   Number         0  argv_veneer.o ABSOLUTE
    ../clib/bigflt.c                         0x00000000   Number         0  bigflt0.o ABSOLUTE
    ../clib/btod.s                           0x00000000   Number         0  btod.o ABSOLUTE
    ../clib/heapalloc.c                      0x00000000   Number         0  hrguard.o ABSOLUTE
    ../clib/heapaux.c                        0x00000000   Number         0  heapauxi.o ABSOLUTE
    ../clib/libinit.s                        0x00000000   Number         0  libinit2.o ABSOLUTE
    ../clib/libinit.s                        0x00000000   Number         0  libinit.o ABSOLUTE
    ../clib/libinit.s                        0x00000000   Number         0  libshutdown.o ABSOLUTE
    ../clib/libinit.s                        0x00000000   Number         0  libshutdown2.o ABSOLUTE
    ../clib/locale.s                         0x00000000   Number         0  lc_numeric_c.o ABSOLUTE
    ../clib/longlong.s                       0x00000000   Number         0  lludivv7m.o ABSOLUTE
    ../clib/longlong.s                       0x00000000   Number         0  lludiv10.o ABSOLUTE
    ../clib/memcpset.s                       0x00000000   Number         0  rt_memclr_w.o ABSOLUTE
    ../clib/memcpset.s                       0x00000000   Number         0  strcmpv7m.o ABSOLUTE
    ../clib/misc.s                           0x00000000   Number         0  printf_stubs.o ABSOLUTE
    ../clib/printf.c                         0x00000000   Number         0  __printf_flags_ss.o ABSOLUTE
    ../clib/printf.c                         0x00000000   Number         0  __printf_ss.o ABSOLUTE
    ../clib/printf.c                         0x00000000   Number         0  __printf_flags.o ABSOLUTE
    ../clib/printf.c                         0x00000000   Number         0  _printf_dec.o ABSOLUTE
    ../clib/printf.c                         0x00000000   Number         0  _printf_str.o ABSOLUTE
    ../clib/printf.c                         0x00000000   Number         0  _printf_pad.o ABSOLUTE
    ../clib/printf.c                         0x00000000   Number         0  _printf_intcommon.o ABSOLUTE
    ../clib/printf.c                         0x00000000   Number         0  __printf.o ABSOLUTE
    ../clib/printf.c                         0x00000000   Number         0  noretval__2sprintf.o ABSOLUTE
    ../clib/printf.c                         0x00000000   Number         0  __2sprintf.o ABSOLUTE
    ../clib/printf.c                         0x00000000   Number         0  __printf_nopercent.o ABSOLUTE
    ../clib/printf.c                         0x00000000   Number         0  _printf_fp_infnan.o ABSOLUTE
    ../clib/printf.c                         0x00000000   Number         0  __printf_ss_wp.o ABSOLUTE
    ../clib/printf.c                         0x00000000   Number         0  _printf_char.o ABSOLUTE
    ../clib/printf.c                         0x00000000   Number         0  _sputc.o ABSOLUTE
    ../clib/printf.c                         0x00000000   Number         0  _printf_char_common.o ABSOLUTE
    ../clib/printf.c                         0x00000000   Number         0  _printf_fp_dec.o ABSOLUTE
    ../clib/printf.c                         0x00000000   Number         0  __printf_flags_ss_wp.o ABSOLUTE
    ../clib/printf.c                         0x00000000   Number         0  __printf_flags_wp.o ABSOLUTE
    ../clib/printf.c                         0x00000000   Number         0  __printf_wp.o ABSOLUTE
    ../clib/printf_percent.s                 0x00000000   Number         0  _printf_percent.o ABSOLUTE
    ../clib/printf_percent.s                 0x00000000   Number         0  _printf_d.o ABSOLUTE
    ../clib/printf_percent.s                 0x00000000   Number         0  _printf_f.o ABSOLUTE
    ../clib/printf_percent.s                 0x00000000   Number         0  _printf_s.o ABSOLUTE
    ../clib/printf_percent.s                 0x00000000   Number         0  _printf_percent_end.o ABSOLUTE
    ../clib/signal.c                         0x00000000   Number         0  defsig_rtred_inner.o ABSOLUTE
    ../clib/signal.c                         0x00000000   Number         0  defsig_fpe_inner.o ABSOLUTE
    ../clib/signal.c                         0x00000000   Number         0  defsig_exit.o ABSOLUTE
    ../clib/signal.c                         0x00000000   Number         0  __raise.o ABSOLUTE
    ../clib/signal.c                         0x00000000   Number         0  defsig_pvfn_inner.o ABSOLUTE
    ../clib/signal.c                         0x00000000   Number         0  defsig_stak_inner.o ABSOLUTE
    ../clib/signal.c                         0x00000000   Number         0  defsig_rtmem_inner.o ABSOLUTE
    ../clib/signal.c                         0x00000000   Number         0  defsig_cppl_inner.o ABSOLUTE
    ../clib/signal.c                         0x00000000   Number         0  defsig_segv_inner.o ABSOLUTE
    ../clib/signal.c                         0x00000000   Number         0  defsig_other.o ABSOLUTE
    ../clib/signal.c                         0x00000000   Number         0  defsig_fpe_formal.o ABSOLUTE
    ../clib/signal.c                         0x00000000   Number         0  defsig_fpe_outer.o ABSOLUTE
    ../clib/signal.c                         0x00000000   Number         0  defsig_abrt_inner.o ABSOLUTE
    ../clib/signal.c                         0x00000000   Number         0  defsig_rtmem_formal.o ABSOLUTE
    ../clib/signal.c                         0x00000000   Number         0  defsig_rtmem_outer.o ABSOLUTE
    ../clib/signal.c                         0x00000000   Number         0  defsig_general.o ABSOLUTE
    ../clib/signal.s                         0x00000000   Number         0  defsig.o ABSOLUTE
    ../clib/stdlib.c                         0x00000000   Number         0  exit.o ABSOLUTE
    ../clib/string.c                         0x00000000   Number         0  strlen.o ABSOLUTE
    ../fplib/d2f.s                           0x00000000   Number         0  d2f.o ABSOLUTE
    ../fplib/ddiv.s                          0x00000000   Number         0  ddiv.o ABSOLUTE
    ../fplib/dflt.s                          0x00000000   Number         0  dflt_clz.o ABSOLUTE
    ../fplib/dmul.s                          0x00000000   Number         0  dmul.o ABSOLUTE
    ../fplib/dnaninf.s                       0x00000000   Number         0  dnaninf.o ABSOLUTE
    ../fplib/dretinf.s                       0x00000000   Number         0  dretinf.o ABSOLUTE
    ../fplib/f2d.s                           0x00000000   Number         0  f2d.o ABSOLUTE
    ../fplib/fnaninf.s                       0x00000000   Number         0  fnaninf.o ABSOLUTE
    ../fplib/fpinit.s                        0x00000000   Number         0  fpinit.o ABSOLUTE
    ../fplib/fretinf.s                       0x00000000   Number         0  fretinf.o ABSOLUTE
    ../fplib/istatus.s                       0x00000000   Number         0  istatus.o ABSOLUTE
    ../fplib/printf1.s                       0x00000000   Number         0  printf1.o ABSOLUTE
    ../fplib/usenofp.s                       0x00000000   Number         0  usenofp.o ABSOLUTE
    ../mathlib/fpclassify.c                  0x00000000   Number         0  fpclassify.o ABSOLUTE
    ..\Core\Src\adc.c                        0x00000000   Number         0  adc.o ABSOLUTE
    ..\Core\Src\gpio.c                       0x00000000   Number         0  gpio.o ABSOLUTE
    ..\Core\Src\main.c                       0x00000000   Number         0  main.o ABSOLUTE
    ..\Core\Src\rtc.c                        0x00000000   Number         0  rtc.o ABSOLUTE
    ..\Core\Src\stm32g4xx_hal_msp.c          0x00000000   Number         0  stm32g4xx_hal_msp.o ABSOLUTE
    ..\Core\Src\stm32g4xx_it.c               0x00000000   Number         0  stm32g4xx_it.o ABSOLUTE
    ..\Core\Src\system_stm32g4xx.c           0x00000000   Number         0  system_stm32g4xx.o ABSOLUTE
    ..\Core\Src\usart.c                      0x00000000   Number         0  usart.o ABSOLUTE
    ..\Drivers\STM32G4xx_HAL_Driver\Src\stm32g4xx_hal.c 0x00000000   Number         0  stm32g4xx_hal.o ABSOLUTE
    ..\Drivers\STM32G4xx_HAL_Driver\Src\stm32g4xx_hal_adc.c 0x00000000   Number         0  stm32g4xx_hal_adc.o ABSOLUTE
    ..\Drivers\STM32G4xx_HAL_Driver\Src\stm32g4xx_hal_adc_ex.c 0x00000000   Number         0  stm32g4xx_hal_adc_ex.o ABSOLUTE
    ..\Drivers\STM32G4xx_HAL_Driver\Src\stm32g4xx_hal_cortex.c 0x00000000   Number         0  stm32g4xx_hal_cortex.o ABSOLUTE
    ..\Drivers\STM32G4xx_HAL_Driver\Src\stm32g4xx_hal_dma.c 0x00000000   Number         0  stm32g4xx_hal_dma.o ABSOLUTE
    ..\Drivers\STM32G4xx_HAL_Driver\Src\stm32g4xx_hal_dma_ex.c 0x00000000   Number         0  stm32g4xx_hal_dma_ex.o ABSOLUTE
    ..\Drivers\STM32G4xx_HAL_Driver\Src\stm32g4xx_hal_exti.c 0x00000000   Number         0  stm32g4xx_hal_exti.o ABSOLUTE
    ..\Drivers\STM32G4xx_HAL_Driver\Src\stm32g4xx_hal_flash.c 0x00000000   Number         0  stm32g4xx_hal_flash.o ABSOLUTE
    ..\Drivers\STM32G4xx_HAL_Driver\Src\stm32g4xx_hal_flash_ex.c 0x00000000   Number         0  stm32g4xx_hal_flash_ex.o ABSOLUTE
    ..\Drivers\STM32G4xx_HAL_Driver\Src\stm32g4xx_hal_flash_ramfunc.c 0x00000000   Number         0  stm32g4xx_hal_flash_ramfunc.o ABSOLUTE
    ..\Drivers\STM32G4xx_HAL_Driver\Src\stm32g4xx_hal_gpio.c 0x00000000   Number         0  stm32g4xx_hal_gpio.o ABSOLUTE
    ..\Drivers\STM32G4xx_HAL_Driver\Src\stm32g4xx_hal_pwr.c 0x00000000   Number         0  stm32g4xx_hal_pwr.o ABSOLUTE
    ..\Drivers\STM32G4xx_HAL_Driver\Src\stm32g4xx_hal_pwr_ex.c 0x00000000   Number         0  stm32g4xx_hal_pwr_ex.o ABSOLUTE
    ..\Drivers\STM32G4xx_HAL_Driver\Src\stm32g4xx_hal_rcc.c 0x00000000   Number         0  stm32g4xx_hal_rcc.o ABSOLUTE
    ..\Drivers\STM32G4xx_HAL_Driver\Src\stm32g4xx_hal_rcc_ex.c 0x00000000   Number         0  stm32g4xx_hal_rcc_ex.o ABSOLUTE
    ..\Drivers\STM32G4xx_HAL_Driver\Src\stm32g4xx_hal_rtc.c 0x00000000   Number         0  stm32g4xx_hal_rtc.o ABSOLUTE
    ..\Drivers\STM32G4xx_HAL_Driver\Src\stm32g4xx_hal_rtc_ex.c 0x00000000   Number         0  stm32g4xx_hal_rtc_ex.o ABSOLUTE
    ..\Drivers\STM32G4xx_HAL_Driver\Src\stm32g4xx_hal_tim.c 0x00000000   Number         0  stm32g4xx_hal_tim.o ABSOLUTE
    ..\Drivers\STM32G4xx_HAL_Driver\Src\stm32g4xx_hal_tim_ex.c 0x00000000   Number         0  stm32g4xx_hal_tim_ex.o ABSOLUTE
    ..\Drivers\STM32G4xx_HAL_Driver\Src\stm32g4xx_hal_uart.c 0x00000000   Number         0  stm32g4xx_hal_uart.o ABSOLUTE
    ..\Drivers\STM32G4xx_HAL_Driver\Src\stm32g4xx_hal_uart_ex.c 0x00000000   Number         0  stm32g4xx_hal_uart_ex.o ABSOLUTE
    ..\\bsp\\hw.c                            0x00000000   Number         0  hw.o ABSOLUTE
    ..\\bsp\\i2c - hal.c                     0x00000000   Number         0  i2c - hal.o ABSOLUTE
    ..\\bsp\\lcd.c                           0x00000000   Number         0  lcd.o ABSOLUTE
    ..\bsp\hw.c                              0x00000000   Number         0  hw.o ABSOLUTE
    ..\bsp\i2c - hal.c                       0x00000000   Number         0  i2c - hal.o ABSOLUTE
    ..\bsp\lcd.c                             0x00000000   Number         0  lcd.o ABSOLUTE
    dc.s                                     0x00000000   Number         0  dc.o ABSOLUTE
    startup_stm32g431xx.s                    0x00000000   Number         0  startup_stm32g431xx.o ABSOLUTE
    RESET                                    0x08000000   Section      472  startup_stm32g431xx.o(RESET)
    !!!main                                  0x080001d8   Section        8  __main.o(!!!main)
    !!!scatter                               0x080001e0   Section       52  __scatter.o(!!!scatter)
    !!handler_copy                           0x08000214   Section       26  __scatter_copy.o(!!handler_copy)
    !!handler_zi                             0x08000230   Section       28  __scatter_zi.o(!!handler_zi)
    .ARM.Collect$$_printf_percent$$00000000  0x0800024c   Section        0  _printf_percent.o(.ARM.Collect$$_printf_percent$$00000000)
    .ARM.Collect$$_printf_percent$$00000003  0x0800024c   Section        6  _printf_f.o(.ARM.Collect$$_printf_percent$$00000003)
    .ARM.Collect$$_printf_percent$$00000009  0x08000252   Section        6  _printf_d.o(.ARM.Collect$$_printf_percent$$00000009)
    .ARM.Collect$$_printf_percent$$00000014  0x08000258   Section        6  _printf_s.o(.ARM.Collect$$_printf_percent$$00000014)
    .ARM.Collect$$_printf_percent$$00000017  0x0800025e   Section        4  _printf_percent_end.o(.ARM.Collect$$_printf_percent$$00000017)
    .ARM.Collect$$libinit$$00000000          0x08000262   Section        2  libinit.o(.ARM.Collect$$libinit$$00000000)
    .ARM.Collect$$libinit$$00000001          0x08000264   Section        4  libinit2.o(.ARM.Collect$$libinit$$00000001)
    .ARM.Collect$$libinit$$00000004          0x08000268   Section        0  libinit2.o(.ARM.Collect$$libinit$$00000004)
    .ARM.Collect$$libinit$$0000000A          0x08000268   Section        0  libinit2.o(.ARM.Collect$$libinit$$0000000A)
    .ARM.Collect$$libinit$$0000000C          0x08000268   Section        0  libinit2.o(.ARM.Collect$$libinit$$0000000C)
    .ARM.Collect$$libinit$$0000000E          0x08000268   Section        0  libinit2.o(.ARM.Collect$$libinit$$0000000E)
    .ARM.Collect$$libinit$$0000000F          0x08000268   Section        6  libinit2.o(.ARM.Collect$$libinit$$0000000F)
    .ARM.Collect$$libinit$$00000011          0x0800026e   Section        0  libinit2.o(.ARM.Collect$$libinit$$00000011)
    .ARM.Collect$$libinit$$00000013          0x0800026e   Section        0  libinit2.o(.ARM.Collect$$libinit$$00000013)
    .ARM.Collect$$libinit$$00000015          0x0800026e   Section        0  libinit2.o(.ARM.Collect$$libinit$$00000015)
    .ARM.Collect$$libinit$$00000016          0x0800026e   Section       10  libinit2.o(.ARM.Collect$$libinit$$00000016)
    .ARM.Collect$$libinit$$00000017          0x08000278   Section        0  libinit2.o(.ARM.Collect$$libinit$$00000017)
    .ARM.Collect$$libinit$$00000019          0x08000278   Section        0  libinit2.o(.ARM.Collect$$libinit$$00000019)
    .ARM.Collect$$libinit$$0000001B          0x08000278   Section        0  libinit2.o(.ARM.Collect$$libinit$$0000001B)
    .ARM.Collect$$libinit$$0000001D          0x08000278   Section        0  libinit2.o(.ARM.Collect$$libinit$$0000001D)
    .ARM.Collect$$libinit$$0000001F          0x08000278   Section        0  libinit2.o(.ARM.Collect$$libinit$$0000001F)
    .ARM.Collect$$libinit$$00000021          0x08000278   Section        0  libinit2.o(.ARM.Collect$$libinit$$00000021)
    .ARM.Collect$$libinit$$00000023          0x08000278   Section        0  libinit2.o(.ARM.Collect$$libinit$$00000023)
    .ARM.Collect$$libinit$$00000025          0x08000278   Section        0  libinit2.o(.ARM.Collect$$libinit$$00000025)
    .ARM.Collect$$libinit$$0000002C          0x08000278   Section        0  libinit2.o(.ARM.Collect$$libinit$$0000002C)
    .ARM.Collect$$libinit$$0000002E          0x08000278   Section        0  libinit2.o(.ARM.Collect$$libinit$$0000002E)
    .ARM.Collect$$libinit$$00000030          0x08000278   Section        0  libinit2.o(.ARM.Collect$$libinit$$00000030)
    .ARM.Collect$$libinit$$00000032          0x08000278   Section        0  libinit2.o(.ARM.Collect$$libinit$$00000032)
    .ARM.Collect$$libinit$$00000033          0x08000278   Section        2  libinit2.o(.ARM.Collect$$libinit$$00000033)
    .ARM.Collect$$libshutdown$$00000000      0x0800027a   Section        2  libshutdown.o(.ARM.Collect$$libshutdown$$00000000)
    .ARM.Collect$$libshutdown$$00000002      0x0800027c   Section        0  libshutdown2.o(.ARM.Collect$$libshutdown$$00000002)
    .ARM.Collect$$libshutdown$$00000004      0x0800027c   Section        0  libshutdown2.o(.ARM.Collect$$libshutdown$$00000004)
    .ARM.Collect$$libshutdown$$00000006      0x0800027c   Section        0  libshutdown2.o(.ARM.Collect$$libshutdown$$00000006)
    .ARM.Collect$$libshutdown$$00000009      0x0800027c   Section        0  libshutdown2.o(.ARM.Collect$$libshutdown$$00000009)
    .ARM.Collect$$libshutdown$$0000000C      0x0800027c   Section        0  libshutdown2.o(.ARM.Collect$$libshutdown$$0000000C)
    .ARM.Collect$$libshutdown$$0000000E      0x0800027c   Section        0  libshutdown2.o(.ARM.Collect$$libshutdown$$0000000E)
    .ARM.Collect$$libshutdown$$00000011      0x0800027c   Section        0  libshutdown2.o(.ARM.Collect$$libshutdown$$00000011)
    .ARM.Collect$$libshutdown$$00000012      0x0800027c   Section        2  libshutdown2.o(.ARM.Collect$$libshutdown$$00000012)
    .ARM.Collect$$rtentry$$00000000          0x0800027e   Section        0  __rtentry.o(.ARM.Collect$$rtentry$$00000000)
    .ARM.Collect$$rtentry$$00000002          0x0800027e   Section        0  __rtentry2.o(.ARM.Collect$$rtentry$$00000002)
    .ARM.Collect$$rtentry$$00000004          0x0800027e   Section        6  __rtentry4.o(.ARM.Collect$$rtentry$$00000004)
    .ARM.Collect$$rtentry$$00000009          0x08000284   Section        0  __rtentry2.o(.ARM.Collect$$rtentry$$00000009)
    .ARM.Collect$$rtentry$$0000000A          0x08000284   Section        4  __rtentry2.o(.ARM.Collect$$rtentry$$0000000A)
    .ARM.Collect$$rtentry$$0000000C          0x08000288   Section        0  __rtentry2.o(.ARM.Collect$$rtentry$$0000000C)
    .ARM.Collect$$rtentry$$0000000D          0x08000288   Section        8  __rtentry2.o(.ARM.Collect$$rtentry$$0000000D)
    .ARM.Collect$$rtexit$$00000000           0x08000290   Section        2  rtexit.o(.ARM.Collect$$rtexit$$00000000)
    .ARM.Collect$$rtexit$$00000002           0x08000292   Section        0  rtexit2.o(.ARM.Collect$$rtexit$$00000002)
    .ARM.Collect$$rtexit$$00000003           0x08000292   Section        4  rtexit2.o(.ARM.Collect$$rtexit$$00000003)
    .ARM.Collect$$rtexit$$00000004           0x08000296   Section        6  rtexit2.o(.ARM.Collect$$rtexit$$00000004)
    .text                                    0x0800029c   Section       64  startup_stm32g431xx.o(.text)
    $v0                                      0x0800029c   Number         0  startup_stm32g431xx.o(.text)
    .text                                    0x080002dc   Section      238  lludivv7m.o(.text)
    .text                                    0x080003cc   Section        0  noretval__2sprintf.o(.text)
    .text                                    0x080003f4   Section        0  _printf_pad.o(.text)
    .text                                    0x08000442   Section        0  _printf_str.o(.text)
    .text                                    0x08000494   Section        0  _printf_dec.o(.text)
    .text                                    0x0800050c   Section        0  __printf_flags_wp.o(.text)
    .text                                    0x08000644   Section        0  strlen.o(.text)
    .text                                    0x08000682   Section       78  rt_memclr_w.o(.text)
    .text                                    0x080006d0   Section        0  heapauxi.o(.text)
    .text                                    0x080006d6   Section        0  _printf_intcommon.o(.text)
    .text                                    0x08000788   Section        0  _printf_fp_dec.o(.text)
    _fp_digits                               0x0800078b   Thumb Code   432  _printf_fp_dec.o(.text)
    .text                                    0x08000ba8   Section        0  _printf_char_common.o(.text)
    _printf_input_char                       0x08000ba9   Thumb Code    10  _printf_char_common.o(.text)
    .text                                    0x08000bd8   Section        0  _sputc.o(.text)
    .text                                    0x08000be2   Section        0  _printf_char.o(.text)
    .text                                    0x08000c10   Section        8  rt_locale_intlibspace.o(.text)
    .text                                    0x08000c18   Section      138  lludiv10.o(.text)
    .text                                    0x08000ca4   Section        0  _printf_fp_infnan.o(.text)
    .text                                    0x08000d24   Section        0  bigflt0.o(.text)
    .text                                    0x08000e08   Section        8  libspace.o(.text)
    .text                                    0x08000e10   Section       74  sys_stackheap_outer.o(.text)
    .text                                    0x08000e5a   Section        0  exit.o(.text)
    .text                                    0x08000e6c   Section      128  strcmpv7m.o(.text)
    .text                                    0x08000eec   Section        0  sys_exit.o(.text)
    .text                                    0x08000ef8   Section        2  use_no_semi.o(.text)
    .text                                    0x08000efa   Section        0  indicate_semi.o(.text)
    CL$$btod_d2e                             0x08000efa   Section       62  btod.o(CL$$btod_d2e)
    CL$$btod_d2e_denorm_low                  0x08000f38   Section       70  btod.o(CL$$btod_d2e_denorm_low)
    CL$$btod_d2e_norm_op1                    0x08000f7e   Section       96  btod.o(CL$$btod_d2e_norm_op1)
    CL$$btod_div_common                      0x08000fde   Section      824  btod.o(CL$$btod_div_common)
    CL$$btod_e2e                             0x08001316   Section      220  btod.o(CL$$btod_e2e)
    CL$$btod_ediv                            0x080013f2   Section       42  btod.o(CL$$btod_ediv)
    CL$$btod_emul                            0x0800141c   Section       42  btod.o(CL$$btod_emul)
    CL$$btod_mult_common                     0x08001446   Section      580  btod.o(CL$$btod_mult_common)
    i.ADC_Disable                            0x0800168c   Section        0  stm32g4xx_hal_adc.o(i.ADC_Disable)
    i.ADC_Enable                             0x08001710   Section        0  stm32g4xx_hal_adc.o(i.ADC_Enable)
    i.ADC_Task                               0x080017d8   Section        0  hw.o(i.ADC_Task)
    i.BusFault_Handler                       0x08001834   Section        0  stm32g4xx_it.o(i.BusFault_Handler)
    i.DebugMon_Handler                       0x08001836   Section        0  stm32g4xx_it.o(i.DebugMon_Handler)
    i.Delay_LCD                              0x08001838   Section        0  lcd.o(i.Delay_LCD)
    i.EEPROM_Read                            0x08001854   Section        0  hw.o(i.EEPROM_Read)
    i.EEPROM_Read_k                          0x08001890   Section        0  hw.o(i.EEPROM_Read_k)
    i.EEPROM_Save_k                          0x080018c0   Section        0  hw.o(i.EEPROM_Save_k)
    i.EEPROM_Write                           0x080018e4   Section        0  hw.o(i.EEPROM_Write)
    i.Error_Handler                          0x08001914   Section        0  main.o(i.Error_Handler)
    i.HAL_ADCEx_Calibration_Start            0x08001918   Section        0  stm32g4xx_hal_adc_ex.o(i.HAL_ADCEx_Calibration_Start)
    i.HAL_ADC_ConfigChannel                  0x080019b4   Section        0  stm32g4xx_hal_adc.o(i.HAL_ADC_ConfigChannel)
    i.HAL_ADC_Init                           0x08001de8   Section        0  stm32g4xx_hal_adc.o(i.HAL_ADC_Init)
    i.HAL_ADC_MspInit                        0x08001fe8   Section        0  adc.o(i.HAL_ADC_MspInit)
    i.HAL_ADC_Start                          0x08002060   Section        0  stm32g4xx_hal_adc.o(i.HAL_ADC_Start)
    i.HAL_DMA_Abort                          0x08002150   Section        0  stm32g4xx_hal_dma.o(i.HAL_DMA_Abort)
    i.HAL_DMA_Abort_IT                       0x080021b8   Section        0  stm32g4xx_hal_dma.o(i.HAL_DMA_Abort_IT)
    i.HAL_Delay                              0x08002230   Section        0  stm32g4xx_hal.o(i.HAL_Delay)
    i.HAL_GPIO_Init                          0x08002254   Section        0  stm32g4xx_hal_gpio.o(i.HAL_GPIO_Init)
    i.HAL_GPIO_ReadPin                       0x08002404   Section        0  stm32g4xx_hal_gpio.o(i.HAL_GPIO_ReadPin)
    i.HAL_GPIO_WritePin                      0x08002412   Section        0  stm32g4xx_hal_gpio.o(i.HAL_GPIO_WritePin)
    i.HAL_GetTick                            0x08002420   Section        0  stm32g4xx_hal.o(i.HAL_GetTick)
    i.HAL_IncTick                            0x0800242c   Section        0  stm32g4xx_hal.o(i.HAL_IncTick)
    i.HAL_Init                               0x0800243c   Section        0  stm32g4xx_hal.o(i.HAL_Init)
    i.HAL_InitTick                           0x0800245c   Section        0  stm32g4xx_hal.o(i.HAL_InitTick)
    i.HAL_MspInit                            0x080024a8   Section        0  stm32g4xx_hal_msp.o(i.HAL_MspInit)
    i.HAL_NVIC_EnableIRQ                     0x080024d8   Section        0  stm32g4xx_hal_cortex.o(i.HAL_NVIC_EnableIRQ)
    i.HAL_NVIC_SetPriority                   0x080024f4   Section        0  stm32g4xx_hal_cortex.o(i.HAL_NVIC_SetPriority)
    i.HAL_NVIC_SetPriorityGrouping           0x08002534   Section        0  stm32g4xx_hal_cortex.o(i.HAL_NVIC_SetPriorityGrouping)
    i.HAL_PWREx_ControlVoltageScaling        0x08002558   Section        0  stm32g4xx_hal_pwr_ex.o(i.HAL_PWREx_ControlVoltageScaling)
    i.HAL_PWREx_DisableUCPDDeadBattery       0x08002624   Section        0  stm32g4xx_hal_pwr_ex.o(i.HAL_PWREx_DisableUCPDDeadBattery)
    i.HAL_RCCEx_PeriphCLKConfig              0x08002634   Section        0  stm32g4xx_hal_rcc_ex.o(i.HAL_RCCEx_PeriphCLKConfig)
    i.HAL_RCC_ClockConfig                    0x080028cc   Section        0  stm32g4xx_hal_rcc.o(i.HAL_RCC_ClockConfig)
    i.HAL_RCC_GetHCLKFreq                    0x08002a94   Section        0  stm32g4xx_hal_rcc.o(i.HAL_RCC_GetHCLKFreq)
    i.HAL_RCC_GetPCLK1Freq                   0x08002aa0   Section        0  stm32g4xx_hal_rcc.o(i.HAL_RCC_GetPCLK1Freq)
    i.HAL_RCC_GetPCLK2Freq                   0x08002ac4   Section        0  stm32g4xx_hal_rcc.o(i.HAL_RCC_GetPCLK2Freq)
    i.HAL_RCC_GetSysClockFreq                0x08002ae8   Section        0  stm32g4xx_hal_rcc.o(i.HAL_RCC_GetSysClockFreq)
    i.HAL_RCC_OscConfig                      0x08002b60   Section        0  stm32g4xx_hal_rcc.o(i.HAL_RCC_OscConfig)
    i.HAL_RTCEx_AlarmBEventCallback          0x08002fb0   Section        0  stm32g4xx_hal_rtc_ex.o(i.HAL_RTCEx_AlarmBEventCallback)
    i.HAL_RTC_AlarmAEventCallback            0x08002fb4   Section        0  hw.o(i.HAL_RTC_AlarmAEventCallback)
    i.HAL_RTC_AlarmIRQHandler                0x08003028   Section        0  stm32g4xx_hal_rtc.o(i.HAL_RTC_AlarmIRQHandler)
    i.HAL_RTC_GetDate                        0x08003070   Section        0  stm32g4xx_hal_rtc.o(i.HAL_RTC_GetDate)
    i.HAL_RTC_GetTime                        0x080030b4   Section        0  stm32g4xx_hal_rtc.o(i.HAL_RTC_GetTime)
    i.HAL_RTC_Init                           0x08003108   Section        0  stm32g4xx_hal_rtc.o(i.HAL_RTC_Init)
    i.HAL_RTC_MspInit                        0x080031a8   Section        0  rtc.o(i.HAL_RTC_MspInit)
    i.HAL_RTC_SetAlarm_IT                    0x0800320c   Section        0  stm32g4xx_hal_rtc.o(i.HAL_RTC_SetAlarm_IT)
    i.HAL_RTC_SetDate                        0x080033a4   Section        0  stm32g4xx_hal_rtc.o(i.HAL_RTC_SetDate)
    i.HAL_RTC_SetTime                        0x08003448   Section        0  stm32g4xx_hal_rtc.o(i.HAL_RTC_SetTime)
    i.HAL_RTC_WaitForSynchro                 0x08003514   Section        0  stm32g4xx_hal_rtc.o(i.HAL_RTC_WaitForSynchro)
    i.HAL_SYSTICK_Config                     0x08003548   Section        0  stm32g4xx_hal_cortex.o(i.HAL_SYSTICK_Config)
    i.HAL_UARTEx_DisableFifoMode             0x08003570   Section        0  stm32g4xx_hal_uart_ex.o(i.HAL_UARTEx_DisableFifoMode)
    i.HAL_UARTEx_RxEventCallback             0x080035ae   Section        0  stm32g4xx_hal_uart.o(i.HAL_UARTEx_RxEventCallback)
    i.HAL_UARTEx_RxFifoFullCallback          0x080035b0   Section        0  stm32g4xx_hal_uart_ex.o(i.HAL_UARTEx_RxFifoFullCallback)
    i.HAL_UARTEx_SetRxFifoThreshold          0x080035b2   Section        0  stm32g4xx_hal_uart_ex.o(i.HAL_UARTEx_SetRxFifoThreshold)
    i.HAL_UARTEx_SetTxFifoThreshold          0x080035fe   Section        0  stm32g4xx_hal_uart_ex.o(i.HAL_UARTEx_SetTxFifoThreshold)
    i.HAL_UARTEx_TxFifoEmptyCallback         0x0800364a   Section        0  stm32g4xx_hal_uart_ex.o(i.HAL_UARTEx_TxFifoEmptyCallback)
    i.HAL_UARTEx_WakeupCallback              0x0800364c   Section        0  stm32g4xx_hal_uart_ex.o(i.HAL_UARTEx_WakeupCallback)
    i.HAL_UART_ErrorCallback                 0x0800364e   Section        0  stm32g4xx_hal_uart.o(i.HAL_UART_ErrorCallback)
    i.HAL_UART_IRQHandler                    0x08003650   Section        0  stm32g4xx_hal_uart.o(i.HAL_UART_IRQHandler)
    i.HAL_UART_Init                          0x08003958   Section        0  stm32g4xx_hal_uart.o(i.HAL_UART_Init)
    i.HAL_UART_MspInit                       0x080039c8   Section        0  usart.o(i.HAL_UART_MspInit)
    i.HAL_UART_Receive_IT                    0x08003a54   Section        0  stm32g4xx_hal_uart.o(i.HAL_UART_Receive_IT)
    i.HAL_UART_RxCpltCallback                0x08003a9c   Section        0  hw.o(i.HAL_UART_RxCpltCallback)
    i.HAL_UART_Transmit                      0x08003ad8   Section        0  stm32g4xx_hal_uart.o(i.HAL_UART_Transmit)
    i.HAL_UART_TxCpltCallback                0x08003b90   Section        0  stm32g4xx_hal_uart.o(i.HAL_UART_TxCpltCallback)
    i.HardFault_Handler                      0x08003b92   Section        0  stm32g4xx_it.o(i.HardFault_Handler)
    i.I2CReceiveByte                         0x08003b94   Section        0  i2c - hal.o(i.I2CReceiveByte)
    i.I2CSendByte                            0x08003be4   Section        0  i2c - hal.o(i.I2CSendByte)
    i.I2CSendNotAck                          0x08003c32   Section        0  i2c - hal.o(i.I2CSendNotAck)
    i.I2CStart                               0x08003c62   Section        0  i2c - hal.o(i.I2CStart)
    i.I2CStop                                0x08003c98   Section        0  i2c - hal.o(i.I2CStop)
    i.I2CWaitAck                             0x08003cce   Section        0  i2c - hal.o(i.I2CWaitAck)
    i.Key_Task                               0x08003d20   Section        0  hw.o(i.Key_Task)
    i.LCD_BusIn                              0x08003db0   Section        0  lcd.o(i.LCD_BusIn)
    i.LCD_BusOut                             0x08003ddc   Section        0  lcd.o(i.LCD_BusOut)
    i.LCD_Clear                              0x08003e0c   Section        0  lcd.o(i.LCD_Clear)
    i.LCD_CtrlLinesConfig                    0x08003e30   Section        0  lcd.o(i.LCD_CtrlLinesConfig)
    i.LCD_DisplayChar                        0x08003ec0   Section        0  lcd.o(i.LCD_DisplayChar)
    i.LCD_DisplayStringLine                  0x08003ed8   Section        0  lcd.o(i.LCD_DisplayStringLine)
    i.LCD_DrawChar                           0x08003f04   Section        0  lcd.o(i.LCD_DrawChar)
    i.LCD_Init                               0x08003f60   Section        0  lcd.o(i.LCD_Init)
    i.LCD_ReadReg                            0x08003f94   Section        0  lcd.o(i.LCD_ReadReg)
    i.LCD_SetBackColor                       0x08004014   Section        0  lcd.o(i.LCD_SetBackColor)
    i.LCD_SetCursor                          0x08004024   Section        0  lcd.o(i.LCD_SetCursor)
    i.LCD_SetTextColor                       0x0800403c   Section        0  lcd.o(i.LCD_SetTextColor)
    i.LCD_Task                               0x0800404c   Section        0  hw.o(i.LCD_Task)
    i.LCD_WriteRAM                           0x08004244   Section        0  lcd.o(i.LCD_WriteRAM)
    i.LCD_WriteRAM_Prepare                   0x0800429c   Section        0  lcd.o(i.LCD_WriteRAM_Prepare)
    i.LCD_WriteReg                           0x080042f8   Section        0  lcd.o(i.LCD_WriteReg)
    i.LED_Disp                               0x08004364   Section        0  hw.o(i.LED_Disp)
    i.LED_Task                               0x08004390   Section        0  hw.o(i.LED_Task)
    i.LL_ADC_GetOffsetChannel                0x080043e0   Section        0  stm32g4xx_hal_adc.o(i.LL_ADC_GetOffsetChannel)
    LL_ADC_GetOffsetChannel                  0x080043e1   Thumb Code    12  stm32g4xx_hal_adc.o(i.LL_ADC_GetOffsetChannel)
    i.LL_ADC_INJ_IsConversionOngoing         0x080043ec   Section        0  stm32g4xx_hal_adc.o(i.LL_ADC_INJ_IsConversionOngoing)
    LL_ADC_INJ_IsConversionOngoing           0x080043ed   Thumb Code     8  stm32g4xx_hal_adc.o(i.LL_ADC_INJ_IsConversionOngoing)
    i.LL_ADC_IsEnabled                       0x080043f4   Section        0  stm32g4xx_hal_adc.o(i.LL_ADC_IsEnabled)
    LL_ADC_IsEnabled                         0x080043f5   Thumb Code     8  stm32g4xx_hal_adc.o(i.LL_ADC_IsEnabled)
    i.LL_ADC_REG_IsConversionOngoing         0x080043fc   Section        0  stm32g4xx_hal_adc.o(i.LL_ADC_REG_IsConversionOngoing)
    LL_ADC_REG_IsConversionOngoing           0x080043fd   Thumb Code     8  stm32g4xx_hal_adc.o(i.LL_ADC_REG_IsConversionOngoing)
    i.LL_ADC_SetChannelSamplingTime          0x08004404   Section        0  stm32g4xx_hal_adc.o(i.LL_ADC_SetChannelSamplingTime)
    LL_ADC_SetChannelSamplingTime            0x08004405   Thumb Code    30  stm32g4xx_hal_adc.o(i.LL_ADC_SetChannelSamplingTime)
    i.LL_ADC_SetOffsetState                  0x08004422   Section        0  stm32g4xx_hal_adc.o(i.LL_ADC_SetOffsetState)
    LL_ADC_SetOffsetState                    0x08004423   Thumb Code    16  stm32g4xx_hal_adc.o(i.LL_ADC_SetOffsetState)
    i.MX_ADC2_Init                           0x08004434   Section        0  adc.o(i.MX_ADC2_Init)
    i.MX_GPIO_Init                           0x080044b0   Section        0  gpio.o(i.MX_GPIO_Init)
    i.MX_RTC_Init                            0x080045a8   Section        0  rtc.o(i.MX_RTC_Init)
    i.MX_USART1_UART_Init                    0x0800463c   Section        0  usart.o(i.MX_USART1_UART_Init)
    i.MemManage_Handler                      0x080046a4   Section        0  stm32g4xx_it.o(i.MemManage_Handler)
    i.NMI_Handler                            0x080046a6   Section        0  stm32g4xx_it.o(i.NMI_Handler)
    i.PendSV_Handler                         0x080046a8   Section        0  stm32g4xx_it.o(i.PendSV_Handler)
    i.RCC_GetSysClockFreqFromPLLSource       0x080046ac   Section        0  stm32g4xx_hal_rcc.o(i.RCC_GetSysClockFreqFromPLLSource)
    RCC_GetSysClockFreqFromPLLSource         0x080046ad   Thumb Code    66  stm32g4xx_hal_rcc.o(i.RCC_GetSysClockFreqFromPLLSource)
    i.REG_8230_Init                          0x080046fc   Section        0  lcd.o(i.REG_8230_Init)
    i.REG_932X_Init                          0x0800480e   Section        0  lcd.o(i.REG_932X_Init)
    i.RTC_Alarm_IRQHandler                   0x08004a10   Section        0  stm32g4xx_it.o(i.RTC_Alarm_IRQHandler)
    i.RTC_Bcd2ToByte                         0x08004a1c   Section        0  stm32g4xx_hal_rtc.o(i.RTC_Bcd2ToByte)
    i.RTC_ByteToBcd2                         0x08004a2e   Section        0  stm32g4xx_hal_rtc.o(i.RTC_ByteToBcd2)
    i.RTC_EnterInitMode                      0x08004a44   Section        0  stm32g4xx_hal_rtc.o(i.RTC_EnterInitMode)
    i.RTC_ExitInitMode                       0x08004a8c   Section        0  stm32g4xx_hal_rtc.o(i.RTC_ExitInitMode)
    i.SCL_Output                             0x08004adc   Section        0  i2c - hal.o(i.SCL_Output)
    i.SDA_Input                              0x08004b00   Section        0  i2c - hal.o(i.SDA_Input)
    i.SDA_Input_Mode                         0x08004b1c   Section        0  i2c - hal.o(i.SDA_Input_Mode)
    i.SDA_Output                             0x08004b48   Section        0  i2c - hal.o(i.SDA_Output)
    i.SDA_Output_Mode                        0x08004b6c   Section        0  i2c - hal.o(i.SDA_Output_Mode)
    i.SVC_Handler                            0x08004b98   Section        0  stm32g4xx_it.o(i.SVC_Handler)
    i.SysTick_Handler                        0x08004b9c   Section        0  hw.o(i.SysTick_Handler)
    i.SystemClock_Config                     0x08004bc0   Section        0  main.o(i.SystemClock_Config)
    i.SystemInit                             0x08004c28   Section        0  system_stm32g4xx.o(i.SystemInit)
    i.UARTEx_SetNbDataToProcess              0x08004c38   Section        0  stm32g4xx_hal_uart_ex.o(i.UARTEx_SetNbDataToProcess)
    UARTEx_SetNbDataToProcess                0x08004c39   Thumb Code    66  stm32g4xx_hal_uart_ex.o(i.UARTEx_SetNbDataToProcess)
    i.UART_AdvFeatureConfig                  0x08004c80   Section        0  stm32g4xx_hal_uart.o(i.UART_AdvFeatureConfig)
    i.UART_CheckIdleState                    0x08004d48   Section        0  stm32g4xx_hal_uart.o(i.UART_CheckIdleState)
    i.UART_DMAAbortOnError                   0x08004df2   Section        0  stm32g4xx_hal_uart.o(i.UART_DMAAbortOnError)
    UART_DMAAbortOnError                     0x08004df3   Thumb Code    20  stm32g4xx_hal_uart.o(i.UART_DMAAbortOnError)
    i.UART_EndRxTransfer                     0x08004e08   Section        0  stm32g4xx_hal_uart.o(i.UART_EndRxTransfer)
    UART_EndRxTransfer                       0x08004e09   Thumb Code    78  stm32g4xx_hal_uart.o(i.UART_EndRxTransfer)
    i.UART_EndTransmit_IT                    0x08004e5c   Section        0  stm32g4xx_hal_uart.o(i.UART_EndTransmit_IT)
    UART_EndTransmit_IT                      0x08004e5d   Thumb Code    36  stm32g4xx_hal_uart.o(i.UART_EndTransmit_IT)
    i.UART_RxISR_16BIT                       0x08004e80   Section        0  stm32g4xx_hal_uart.o(i.UART_RxISR_16BIT)
    UART_RxISR_16BIT                         0x08004e81   Thumb Code   194  stm32g4xx_hal_uart.o(i.UART_RxISR_16BIT)
    i.UART_RxISR_16BIT_FIFOEN                0x08004f48   Section        0  stm32g4xx_hal_uart.o(i.UART_RxISR_16BIT_FIFOEN)
    UART_RxISR_16BIT_FIFOEN                  0x08004f49   Thumb Code   402  stm32g4xx_hal_uart.o(i.UART_RxISR_16BIT_FIFOEN)
    i.UART_RxISR_8BIT                        0x080050e8   Section        0  stm32g4xx_hal_uart.o(i.UART_RxISR_8BIT)
    UART_RxISR_8BIT                          0x080050e9   Thumb Code   194  stm32g4xx_hal_uart.o(i.UART_RxISR_8BIT)
    i.UART_RxISR_8BIT_FIFOEN                 0x080051b0   Section        0  stm32g4xx_hal_uart.o(i.UART_RxISR_8BIT_FIFOEN)
    UART_RxISR_8BIT_FIFOEN                   0x080051b1   Thumb Code   402  stm32g4xx_hal_uart.o(i.UART_RxISR_8BIT_FIFOEN)
    i.UART_SetConfig                         0x08005350   Section        0  stm32g4xx_hal_uart.o(i.UART_SetConfig)
    i.UART_Start_Receive_IT                  0x08005624   Section        0  stm32g4xx_hal_uart.o(i.UART_Start_Receive_IT)
    i.UART_WaitOnFlagUntilTimeout            0x08005748   Section        0  stm32g4xx_hal_uart.o(i.UART_WaitOnFlagUntilTimeout)
    i.USART1_IRQHandler                      0x080057e0   Section        0  stm32g4xx_it.o(i.USART1_IRQHandler)
    i.USART_Task                             0x080057ec   Section        0  hw.o(i.USART_Task)
    i.UsageFault_Handler                     0x08005888   Section        0  stm32g4xx_it.o(i.UsageFault_Handler)
    i.__ARM_fpclassify                       0x0800588a   Section        0  fpclassify.o(i.__ARM_fpclassify)
    i.__NVIC_SetPriority                     0x080058ba   Section        0  stm32g4xx_hal_cortex.o(i.__NVIC_SetPriority)
    __NVIC_SetPriority                       0x080058bb   Thumb Code    32  stm32g4xx_hal_cortex.o(i.__NVIC_SetPriority)
    i._is_digit                              0x080058da   Section        0  __printf_wp.o(i._is_digit)
    i.delay1                                 0x080058e8   Section        0  i2c - hal.o(i.delay1)
    delay1                                   0x080058e9   Thumb Code    12  i2c - hal.o(i.delay1)
    i.keyFlag_Task                           0x080058f4   Section        0  hw.o(i.keyFlag_Task)
    i.main                                   0x080059a8   Section        0  main.o(i.main)
    i.setRTC_A                               0x080059cc   Section        0  hw.o(i.setRTC_A)
    i.sysInit                                0x08005a24   Section        0  hw.o(i.sysInit)
    i.taskInit                               0x08005a74   Section        0  hw.o(i.taskInit)
    i.taskRun                                0x08005a88   Section        0  hw.o(i.taskRun)
    locale$$code                             0x08005aa8   Section       44  lc_numeric_c.o(locale$$code)
    x$fpl$d2f                                0x08005ad4   Section       98  d2f.o(x$fpl$d2f)
    $v0                                      0x08005ad4   Number         0  d2f.o(x$fpl$d2f)
    x$fpl$ddiv                               0x08005b38   Section      688  ddiv.o(x$fpl$ddiv)
    $v0                                      0x08005b38   Number         0  ddiv.o(x$fpl$ddiv)
    ddiv_entry                               0x08005b3f   Thumb Code     0  ddiv.o(x$fpl$ddiv)
    x$fpl$dflt                               0x08005de8   Section       46  dflt_clz.o(x$fpl$dflt)
    $v0                                      0x08005de8   Number         0  dflt_clz.o(x$fpl$dflt)
    x$fpl$dfltu                              0x08005e16   Section       38  dflt_clz.o(x$fpl$dfltu)
    $v0                                      0x08005e16   Number         0  dflt_clz.o(x$fpl$dfltu)
    x$fpl$dmul                               0x08005e3c   Section      340  dmul.o(x$fpl$dmul)
    $v0                                      0x08005e3c   Number         0  dmul.o(x$fpl$dmul)
    x$fpl$dnaninf                            0x08005f90   Section      156  dnaninf.o(x$fpl$dnaninf)
    $v0                                      0x08005f90   Number         0  dnaninf.o(x$fpl$dnaninf)
    x$fpl$dretinf                            0x0800602c   Section       12  dretinf.o(x$fpl$dretinf)
    $v0                                      0x0800602c   Number         0  dretinf.o(x$fpl$dretinf)
    x$fpl$f2d                                0x08006038   Section       86  f2d.o(x$fpl$f2d)
    $v0                                      0x08006038   Number         0  f2d.o(x$fpl$f2d)
    x$fpl$fnaninf                            0x0800608e   Section      140  fnaninf.o(x$fpl$fnaninf)
    $v0                                      0x0800608e   Number         0  fnaninf.o(x$fpl$fnaninf)
    x$fpl$fpinit                             0x0800611a   Section       10  fpinit.o(x$fpl$fpinit)
    $v0                                      0x0800611a   Number         0  fpinit.o(x$fpl$fpinit)
    x$fpl$fretinf                            0x08006124   Section       10  fretinf.o(x$fpl$fretinf)
    $v0                                      0x08006124   Number         0  fretinf.o(x$fpl$fretinf)
    x$fpl$printf1                            0x0800612e   Section        4  printf1.o(x$fpl$printf1)
    $v0                                      0x0800612e   Number         0  printf1.o(x$fpl$printf1)
    .constdata                               0x08006132   Section       24  stm32g4xx_hal_uart.o(.constdata)
    x$fpl$usenofp                            0x08006132   Section        0  usenofp.o(x$fpl$usenofp)
    .constdata                               0x0800614a   Section       16  stm32g4xx_hal_uart_ex.o(.constdata)
    numerator                                0x0800614a   Data           8  stm32g4xx_hal_uart_ex.o(.constdata)
    denominator                              0x08006152   Data           8  stm32g4xx_hal_uart_ex.o(.constdata)
    .constdata                               0x0800615a   Section       16  system_stm32g4xx.o(.constdata)
    .constdata                               0x0800616a   Section        8  system_stm32g4xx.o(.constdata)
    .constdata                               0x08006172   Section     4560  lcd.o(.constdata)
    .constdata                               0x08007342   Section       17  __printf_flags_wp.o(.constdata)
    maptable                                 0x08007342   Data          17  __printf_flags_wp.o(.constdata)
    .constdata                               0x08007354   Section      148  bigflt0.o(.constdata)
    tenpwrs_x                                0x08007354   Data          60  bigflt0.o(.constdata)
    tenpwrs_i                                0x08007390   Data          64  bigflt0.o(.constdata)
    locale$$data                             0x08007408   Section       28  lc_numeric_c.o(locale$$data)
    __lcnum_c_name                           0x0800740c   Data           2  lc_numeric_c.o(locale$$data)
    __lcnum_c_start                          0x08007414   Data           0  lc_numeric_c.o(locale$$data)
    __lcnum_c_point                          0x08007420   Data           0  lc_numeric_c.o(locale$$data)
    __lcnum_c_thousands                      0x08007422   Data           0  lc_numeric_c.o(locale$$data)
    __lcnum_c_grouping                       0x08007423   Data           0  lc_numeric_c.o(locale$$data)
    __lcnum_c_end                            0x08007424   Data           0  lc_numeric_c.o(locale$$data)
    .data                                    0x20000000   Section       12  stm32g4xx_hal.o(.data)
    .data                                    0x2000000c   Section        4  system_stm32g4xx.o(.data)
    .data                                    0x20000010   Section        6  lcd.o(.data)
    TextColor                                0x20000010   Data           2  lcd.o(.data)
    BackColor                                0x20000012   Data           2  lcd.o(.data)
    .data                                    0x20000018   Section       26  hw.o(.data)
    .bss                                     0x20000034   Section      108  adc.o(.bss)
    .bss                                     0x200000a0   Section       40  rtc.o(.bss)
    .bss                                     0x200000c8   Section      148  usart.o(.bss)
    .bss                                     0x2000015c   Section      172  hw.o(.bss)
    .bss                                     0x20000208   Section       96  libspace.o(.bss)
    HEAP                                     0x20000268   Section      512  startup_stm32g431xx.o(HEAP)
    Heap_Mem                                 0x20000268   Data         512  startup_stm32g431xx.o(HEAP)
    STACK                                    0x20000468   Section     1024  startup_stm32g431xx.o(STACK)
    Stack_Mem                                0x20000468   Data        1024  startup_stm32g431xx.o(STACK)
    __initial_sp                             0x20000868   Data           0  startup_stm32g431xx.o(STACK)

    Global Symbols

    Symbol Name                              Value     Ov Type        Size  Object(Section)

    BuildAttributes$$THM_ISAv4$E$P$D$K$B$S$7EM$VFPi3$EXTD16$VFPS$VFMA$PE$A:L22UL41UL21$X:L11$S22US41US21$IEEE1$IW$USESV6$~STKCKD$USESV7$~SHL$OTIME$ROPI$IEEEJ$EBA8$UX$STANDARDLIB$REQ8$PRES8$EABIv2 0x00000000   Number         0  anon$$obj.o ABSOLUTE
    __ARM_use_no_argv                        0x00000000   Number         0  main.o ABSOLUTE
    _printf_flags                            0x00000000   Number         0  printf_stubs.o ABSOLUTE
    _printf_return_value                     0x00000000   Number         0  printf_stubs.o ABSOLUTE
    _printf_sizespec                         0x00000000   Number         0  printf_stubs.o ABSOLUTE
    _printf_widthprec                        0x00000000   Number         0  printf_stubs.o ABSOLUTE
    __ARM_exceptions_init                     - Undefined Weak Reference
    __alloca_initialize                       - Undefined Weak Reference
    __arm_fini_                               - Undefined Weak Reference
    __arm_preinit_                            - Undefined Weak Reference
    __cpp_initialize__aeabi_                  - Undefined Weak Reference
    __cxa_finalize                            - Undefined Weak Reference
    __sigvec_lookup                           - Undefined Weak Reference
    _atexit_init                              - Undefined Weak Reference
    _call_atexit_fns                          - Undefined Weak Reference
    _clock_init                               - Undefined Weak Reference
    _fp_trap_init                             - Undefined Weak Reference
    _fp_trap_shutdown                         - Undefined Weak Reference
    _get_lc_collate                           - Undefined Weak Reference
    _get_lc_ctype                             - Undefined Weak Reference
    _get_lc_monetary                          - Undefined Weak Reference
    _get_lc_time                              - Undefined Weak Reference
    _getenv_init                              - Undefined Weak Reference
    _handle_redirection                       - Undefined Weak Reference
    _init_alloc                               - Undefined Weak Reference
    _init_user_alloc                          - Undefined Weak Reference
    _initio                                   - Undefined Weak Reference
    _printf_mbtowc                            - Undefined Weak Reference
    _printf_truncate_signed                   - Undefined Weak Reference
    _printf_truncate_unsigned                 - Undefined Weak Reference
    _rand_init                                - Undefined Weak Reference
    _signal_finish                            - Undefined Weak Reference
    _signal_init                              - Undefined Weak Reference
    _terminate_alloc                          - Undefined Weak Reference
    _terminate_user_alloc                     - Undefined Weak Reference
    _terminateio                              - Undefined Weak Reference
    __Vectors_Size                           0x000001d8   Number         0  startup_stm32g431xx.o ABSOLUTE
    __Vectors                                0x08000000   Data           4  startup_stm32g431xx.o(RESET)
    __Vectors_End                            0x080001d8   Data           0  startup_stm32g431xx.o(RESET)
    __main                                   0x080001d9   Thumb Code     8  __main.o(!!!main)
    __scatterload                            0x080001e1   Thumb Code     0  __scatter.o(!!!scatter)
    __scatterload_rt2                        0x080001e1   Thumb Code    44  __scatter.o(!!!scatter)
    __scatterload_rt2_thumb_only             0x080001e1   Thumb Code     0  __scatter.o(!!!scatter)
    __scatterload_null                       0x080001ef   Thumb Code     0  __scatter.o(!!!scatter)
    __scatterload_copy                       0x08000215   Thumb Code    26  __scatter_copy.o(!!handler_copy)
    __scatterload_zeroinit                   0x08000231   Thumb Code    28  __scatter_zi.o(!!handler_zi)
    _printf_f                                0x0800024d   Thumb Code     0  _printf_f.o(.ARM.Collect$$_printf_percent$$00000003)
    _printf_percent                          0x0800024d   Thumb Code     0  _printf_percent.o(.ARM.Collect$$_printf_percent$$00000000)
    _printf_d                                0x08000253   Thumb Code     0  _printf_d.o(.ARM.Collect$$_printf_percent$$00000009)
    _printf_s                                0x08000259   Thumb Code     0  _printf_s.o(.ARM.Collect$$_printf_percent$$00000014)
    _printf_percent_end                      0x0800025f   Thumb Code     0  _printf_percent_end.o(.ARM.Collect$$_printf_percent$$00000017)
    __rt_lib_init                            0x08000263   Thumb Code     0  libinit.o(.ARM.Collect$$libinit$$00000000)
    __rt_lib_init_fp_1                       0x08000265   Thumb Code     0  libinit2.o(.ARM.Collect$$libinit$$00000001)
    __rt_lib_init_heap_1                     0x08000269   Thumb Code     0  libinit2.o(.ARM.Collect$$libinit$$0000000A)
    __rt_lib_init_lc_common                  0x08000269   Thumb Code     0  libinit2.o(.ARM.Collect$$libinit$$0000000F)
    __rt_lib_init_preinit_1                  0x08000269   Thumb Code     0  libinit2.o(.ARM.Collect$$libinit$$00000004)
    __rt_lib_init_rand_1                     0x08000269   Thumb Code     0  libinit2.o(.ARM.Collect$$libinit$$0000000E)
    __rt_lib_init_user_alloc_1               0x08000269   Thumb Code     0  libinit2.o(.ARM.Collect$$libinit$$0000000C)
    __rt_lib_init_lc_collate_1               0x0800026f   Thumb Code     0  libinit2.o(.ARM.Collect$$libinit$$00000011)
    __rt_lib_init_lc_ctype_1                 0x0800026f   Thumb Code     0  libinit2.o(.ARM.Collect$$libinit$$00000013)
    __rt_lib_init_lc_monetary_1              0x0800026f   Thumb Code     0  libinit2.o(.ARM.Collect$$libinit$$00000015)
    __rt_lib_init_lc_numeric_2               0x0800026f   Thumb Code     0  libinit2.o(.ARM.Collect$$libinit$$00000016)
    __rt_lib_init_alloca_1                   0x08000279   Thumb Code     0  libinit2.o(.ARM.Collect$$libinit$$0000002E)
    __rt_lib_init_argv_1                     0x08000279   Thumb Code     0  libinit2.o(.ARM.Collect$$libinit$$0000002C)
    __rt_lib_init_atexit_1                   0x08000279   Thumb Code     0  libinit2.o(.ARM.Collect$$libinit$$0000001B)
    __rt_lib_init_clock_1                    0x08000279   Thumb Code     0  libinit2.o(.ARM.Collect$$libinit$$00000021)
    __rt_lib_init_cpp_1                      0x08000279   Thumb Code     0  libinit2.o(.ARM.Collect$$libinit$$00000032)
    __rt_lib_init_exceptions_1               0x08000279   Thumb Code     0  libinit2.o(.ARM.Collect$$libinit$$00000030)
    __rt_lib_init_fp_trap_1                  0x08000279   Thumb Code     0  libinit2.o(.ARM.Collect$$libinit$$0000001F)
    __rt_lib_init_getenv_1                   0x08000279   Thumb Code     0  libinit2.o(.ARM.Collect$$libinit$$00000023)
    __rt_lib_init_lc_numeric_1               0x08000279   Thumb Code     0  libinit2.o(.ARM.Collect$$libinit$$00000017)
    __rt_lib_init_lc_time_1                  0x08000279   Thumb Code     0  libinit2.o(.ARM.Collect$$libinit$$00000019)
    __rt_lib_init_return                     0x08000279   Thumb Code     0  libinit2.o(.ARM.Collect$$libinit$$00000033)
    __rt_lib_init_signal_1                   0x08000279   Thumb Code     0  libinit2.o(.ARM.Collect$$libinit$$0000001D)
    __rt_lib_init_stdio_1                    0x08000279   Thumb Code     0  libinit2.o(.ARM.Collect$$libinit$$00000025)
    __rt_lib_shutdown                        0x0800027b   Thumb Code     0  libshutdown.o(.ARM.Collect$$libshutdown$$00000000)
    __rt_lib_shutdown_cpp_1                  0x0800027d   Thumb Code     0  libshutdown2.o(.ARM.Collect$$libshutdown$$00000004)
    __rt_lib_shutdown_fini_1                 0x0800027d   Thumb Code     0  libshutdown2.o(.ARM.Collect$$libshutdown$$00000002)
    __rt_lib_shutdown_fp_trap_1              0x0800027d   Thumb Code     0  libshutdown2.o(.ARM.Collect$$libshutdown$$00000009)
    __rt_lib_shutdown_heap_1                 0x0800027d   Thumb Code     0  libshutdown2.o(.ARM.Collect$$libshutdown$$00000011)
    __rt_lib_shutdown_return                 0x0800027d   Thumb Code     0  libshutdown2.o(.ARM.Collect$$libshutdown$$00000012)
    __rt_lib_shutdown_signal_1               0x0800027d   Thumb Code     0  libshutdown2.o(.ARM.Collect$$libshutdown$$0000000C)
    __rt_lib_shutdown_stdio_1                0x0800027d   Thumb Code     0  libshutdown2.o(.ARM.Collect$$libshutdown$$00000006)
    __rt_lib_shutdown_user_alloc_1           0x0800027d   Thumb Code     0  libshutdown2.o(.ARM.Collect$$libshutdown$$0000000E)
    __rt_entry                               0x0800027f   Thumb Code     0  __rtentry.o(.ARM.Collect$$rtentry$$00000000)
    __rt_entry_presh_1                       0x0800027f   Thumb Code     0  __rtentry2.o(.ARM.Collect$$rtentry$$00000002)
    __rt_entry_sh                            0x0800027f   Thumb Code     0  __rtentry4.o(.ARM.Collect$$rtentry$$00000004)
    __rt_entry_li                            0x08000285   Thumb Code     0  __rtentry2.o(.ARM.Collect$$rtentry$$0000000A)
    __rt_entry_postsh_1                      0x08000285   Thumb Code     0  __rtentry2.o(.ARM.Collect$$rtentry$$00000009)
    __rt_entry_main                          0x08000289   Thumb Code     0  __rtentry2.o(.ARM.Collect$$rtentry$$0000000D)
    __rt_entry_postli_1                      0x08000289   Thumb Code     0  __rtentry2.o(.ARM.Collect$$rtentry$$0000000C)
    __rt_exit                                0x08000291   Thumb Code     0  rtexit.o(.ARM.Collect$$rtexit$$00000000)
    __rt_exit_ls                             0x08000293   Thumb Code     0  rtexit2.o(.ARM.Collect$$rtexit$$00000003)
    __rt_exit_prels_1                        0x08000293   Thumb Code     0  rtexit2.o(.ARM.Collect$$rtexit$$00000002)
    __rt_exit_exit                           0x08000297   Thumb Code     0  rtexit2.o(.ARM.Collect$$rtexit$$00000004)
    Reset_Handler                            0x0800029d   Thumb Code     8  startup_stm32g431xx.o(.text)
    ADC1_2_IRQHandler                        0x080002b7   Thumb Code     0  startup_stm32g431xx.o(.text)
    COMP1_2_3_IRQHandler                     0x080002b7   Thumb Code     0  startup_stm32g431xx.o(.text)
    COMP4_IRQHandler                         0x080002b7   Thumb Code     0  startup_stm32g431xx.o(.text)
    CORDIC_IRQHandler                        0x080002b7   Thumb Code     0  startup_stm32g431xx.o(.text)
    CRS_IRQHandler                           0x080002b7   Thumb Code     0  startup_stm32g431xx.o(.text)
    DMA1_Channel1_IRQHandler                 0x080002b7   Thumb Code     0  startup_stm32g431xx.o(.text)
    DMA1_Channel2_IRQHandler                 0x080002b7   Thumb Code     0  startup_stm32g431xx.o(.text)
    DMA1_Channel3_IRQHandler                 0x080002b7   Thumb Code     0  startup_stm32g431xx.o(.text)
    DMA1_Channel4_IRQHandler                 0x080002b7   Thumb Code     0  startup_stm32g431xx.o(.text)
    DMA1_Channel5_IRQHandler                 0x080002b7   Thumb Code     0  startup_stm32g431xx.o(.text)
    DMA1_Channel6_IRQHandler                 0x080002b7   Thumb Code     0  startup_stm32g431xx.o(.text)
    DMA2_Channel1_IRQHandler                 0x080002b7   Thumb Code     0  startup_stm32g431xx.o(.text)
    DMA2_Channel2_IRQHandler                 0x080002b7   Thumb Code     0  startup_stm32g431xx.o(.text)
    DMA2_Channel3_IRQHandler                 0x080002b7   Thumb Code     0  startup_stm32g431xx.o(.text)
    DMA2_Channel4_IRQHandler                 0x080002b7   Thumb Code     0  startup_stm32g431xx.o(.text)
    DMA2_Channel5_IRQHandler                 0x080002b7   Thumb Code     0  startup_stm32g431xx.o(.text)
    DMA2_Channel6_IRQHandler                 0x080002b7   Thumb Code     0  startup_stm32g431xx.o(.text)
    DMAMUX_OVR_IRQHandler                    0x080002b7   Thumb Code     0  startup_stm32g431xx.o(.text)
    EXTI0_IRQHandler                         0x080002b7   Thumb Code     0  startup_stm32g431xx.o(.text)
    EXTI15_10_IRQHandler                     0x080002b7   Thumb Code     0  startup_stm32g431xx.o(.text)
    EXTI1_IRQHandler                         0x080002b7   Thumb Code     0  startup_stm32g431xx.o(.text)
    EXTI2_IRQHandler                         0x080002b7   Thumb Code     0  startup_stm32g431xx.o(.text)
    EXTI3_IRQHandler                         0x080002b7   Thumb Code     0  startup_stm32g431xx.o(.text)
    EXTI4_IRQHandler                         0x080002b7   Thumb Code     0  startup_stm32g431xx.o(.text)
    EXTI9_5_IRQHandler                       0x080002b7   Thumb Code     0  startup_stm32g431xx.o(.text)
    FDCAN1_IT0_IRQHandler                    0x080002b7   Thumb Code     0  startup_stm32g431xx.o(.text)
    FDCAN1_IT1_IRQHandler                    0x080002b7   Thumb Code     0  startup_stm32g431xx.o(.text)
    FLASH_IRQHandler                         0x080002b7   Thumb Code     0  startup_stm32g431xx.o(.text)
    FMAC_IRQHandler                          0x080002b7   Thumb Code     0  startup_stm32g431xx.o(.text)
    FPU_IRQHandler                           0x080002b7   Thumb Code     0  startup_stm32g431xx.o(.text)
    I2C1_ER_IRQHandler                       0x080002b7   Thumb Code     0  startup_stm32g431xx.o(.text)
    I2C1_EV_IRQHandler                       0x080002b7   Thumb Code     0  startup_stm32g431xx.o(.text)
    I2C2_ER_IRQHandler                       0x080002b7   Thumb Code     0  startup_stm32g431xx.o(.text)
    I2C2_EV_IRQHandler                       0x080002b7   Thumb Code     0  startup_stm32g431xx.o(.text)
    I2C3_ER_IRQHandler                       0x080002b7   Thumb Code     0  startup_stm32g431xx.o(.text)
    I2C3_EV_IRQHandler                       0x080002b7   Thumb Code     0  startup_stm32g431xx.o(.text)
    LPTIM1_IRQHandler                        0x080002b7   Thumb Code     0  startup_stm32g431xx.o(.text)
    LPUART1_IRQHandler                       0x080002b7   Thumb Code     0  startup_stm32g431xx.o(.text)
    PVD_PVM_IRQHandler                       0x080002b7   Thumb Code     0  startup_stm32g431xx.o(.text)
    RCC_IRQHandler                           0x080002b7   Thumb Code     0  startup_stm32g431xx.o(.text)
    RNG_IRQHandler                           0x080002b7   Thumb Code     0  startup_stm32g431xx.o(.text)
    RTC_TAMP_LSECSS_IRQHandler               0x080002b7   Thumb Code     0  startup_stm32g431xx.o(.text)
    RTC_WKUP_IRQHandler                      0x080002b7   Thumb Code     0  startup_stm32g431xx.o(.text)
    SAI1_IRQHandler                          0x080002b7   Thumb Code     0  startup_stm32g431xx.o(.text)
    SPI1_IRQHandler                          0x080002b7   Thumb Code     0  startup_stm32g431xx.o(.text)
    SPI2_IRQHandler                          0x080002b7   Thumb Code     0  startup_stm32g431xx.o(.text)
    SPI3_IRQHandler                          0x080002b7   Thumb Code     0  startup_stm32g431xx.o(.text)
    TIM1_BRK_TIM15_IRQHandler                0x080002b7   Thumb Code     0  startup_stm32g431xx.o(.text)
    TIM1_CC_IRQHandler                       0x080002b7   Thumb Code     0  startup_stm32g431xx.o(.text)
    TIM1_TRG_COM_TIM17_IRQHandler            0x080002b7   Thumb Code     0  startup_stm32g431xx.o(.text)
    TIM1_UP_TIM16_IRQHandler                 0x080002b7   Thumb Code     0  startup_stm32g431xx.o(.text)
    TIM2_IRQHandler                          0x080002b7   Thumb Code     0  startup_stm32g431xx.o(.text)
    TIM3_IRQHandler                          0x080002b7   Thumb Code     0  startup_stm32g431xx.o(.text)
    TIM4_IRQHandler                          0x080002b7   Thumb Code     0  startup_stm32g431xx.o(.text)
    TIM6_DAC_IRQHandler                      0x080002b7   Thumb Code     0  startup_stm32g431xx.o(.text)
    TIM7_IRQHandler                          0x080002b7   Thumb Code     0  startup_stm32g431xx.o(.text)
    TIM8_BRK_IRQHandler                      0x080002b7   Thumb Code     0  startup_stm32g431xx.o(.text)
    TIM8_CC_IRQHandler                       0x080002b7   Thumb Code     0  startup_stm32g431xx.o(.text)
    TIM8_TRG_COM_IRQHandler                  0x080002b7   Thumb Code     0  startup_stm32g431xx.o(.text)
    TIM8_UP_IRQHandler                       0x080002b7   Thumb Code     0  startup_stm32g431xx.o(.text)
    UART4_IRQHandler                         0x080002b7   Thumb Code     0  startup_stm32g431xx.o(.text)
    UCPD1_IRQHandler                         0x080002b7   Thumb Code     0  startup_stm32g431xx.o(.text)
    USART2_IRQHandler                        0x080002b7   Thumb Code     0  startup_stm32g431xx.o(.text)
    USART3_IRQHandler                        0x080002b7   Thumb Code     0  startup_stm32g431xx.o(.text)
    USBWakeUp_IRQHandler                     0x080002b7   Thumb Code     0  startup_stm32g431xx.o(.text)
    USB_HP_IRQHandler                        0x080002b7   Thumb Code     0  startup_stm32g431xx.o(.text)
    USB_LP_IRQHandler                        0x080002b7   Thumb Code     0  startup_stm32g431xx.o(.text)
    WWDG_IRQHandler                          0x080002b7   Thumb Code     0  startup_stm32g431xx.o(.text)
    __user_initial_stackheap                 0x080002b9   Thumb Code     0  startup_stm32g431xx.o(.text)
    __aeabi_uldivmod                         0x080002dd   Thumb Code     0  lludivv7m.o(.text)
    _ll_udiv                                 0x080002dd   Thumb Code   238  lludivv7m.o(.text)
    __2sprintf                               0x080003cd   Thumb Code    34  noretval__2sprintf.o(.text)
    _printf_pre_padding                      0x080003f5   Thumb Code    44  _printf_pad.o(.text)
    _printf_post_padding                     0x08000421   Thumb Code    34  _printf_pad.o(.text)
    _printf_str                              0x08000443   Thumb Code    82  _printf_str.o(.text)
    _printf_int_dec                          0x08000495   Thumb Code   104  _printf_dec.o(.text)
    __printf                                 0x0800050d   Thumb Code   308  __printf_flags_wp.o(.text)
    strlen                                   0x08000645   Thumb Code    62  strlen.o(.text)
    __aeabi_memclr4                          0x08000683   Thumb Code     0  rt_memclr_w.o(.text)
    __aeabi_memclr8                          0x08000683   Thumb Code     0  rt_memclr_w.o(.text)
    __rt_memclr_w                            0x08000683   Thumb Code    78  rt_memclr_w.o(.text)
    _memset_w                                0x08000687   Thumb Code     0  rt_memclr_w.o(.text)
    __use_two_region_memory                  0x080006d1   Thumb Code     2  heapauxi.o(.text)
    __rt_heap_escrow$2region                 0x080006d3   Thumb Code     2  heapauxi.o(.text)
    __rt_heap_expand$2region                 0x080006d5   Thumb Code     2  heapauxi.o(.text)
    _printf_int_common                       0x080006d7   Thumb Code   178  _printf_intcommon.o(.text)
    __lib_sel_fp_printf                      0x08000789   Thumb Code     2  _printf_fp_dec.o(.text)
    _printf_fp_dec_real                      0x0800093b   Thumb Code   620  _printf_fp_dec.o(.text)
    _printf_char_common                      0x08000bb3   Thumb Code    32  _printf_char_common.o(.text)
    _sputc                                   0x08000bd9   Thumb Code    10  _sputc.o(.text)
    _printf_cs_common                        0x08000be3   Thumb Code    20  _printf_char.o(.text)
    _printf_char                             0x08000bf7   Thumb Code    16  _printf_char.o(.text)
    _printf_string                           0x08000c07   Thumb Code     8  _printf_char.o(.text)
    __rt_locale                              0x08000c11   Thumb Code     8  rt_locale_intlibspace.o(.text)
    _ll_udiv10                               0x08000c19   Thumb Code   138  lludiv10.o(.text)
    _printf_fp_infnan                        0x08000ca5   Thumb Code   112  _printf_fp_infnan.o(.text)
    _btod_etento                             0x08000d25   Thumb Code   224  bigflt0.o(.text)
    __user_libspace                          0x08000e09   Thumb Code     8  libspace.o(.text)
    __user_perproc_libspace                  0x08000e09   Thumb Code     0  libspace.o(.text)
    __user_perthread_libspace                0x08000e09   Thumb Code     0  libspace.o(.text)
    __user_setup_stackheap                   0x08000e11   Thumb Code    74  sys_stackheap_outer.o(.text)
    exit                                     0x08000e5b   Thumb Code    18  exit.o(.text)
    strcmp                                   0x08000e6d   Thumb Code   128  strcmpv7m.o(.text)
    _sys_exit                                0x08000eed   Thumb Code     8  sys_exit.o(.text)
    __I$use$semihosting                      0x08000ef9   Thumb Code     0  use_no_semi.o(.text)
    __use_no_semihosting_swi                 0x08000ef9   Thumb Code     2  use_no_semi.o(.text)
    __semihosting_library_function           0x08000efb   Thumb Code     0  indicate_semi.o(.text)
    _btod_d2e                                0x08000efb   Thumb Code    62  btod.o(CL$$btod_d2e)
    _d2e_denorm_low                          0x08000f39   Thumb Code    70  btod.o(CL$$btod_d2e_denorm_low)
    _d2e_norm_op1                            0x08000f7f   Thumb Code    96  btod.o(CL$$btod_d2e_norm_op1)
    __btod_div_common                        0x08000fdf   Thumb Code   696  btod.o(CL$$btod_div_common)
    _e2e                                     0x08001317   Thumb Code   220  btod.o(CL$$btod_e2e)
    _btod_ediv                               0x080013f3   Thumb Code    42  btod.o(CL$$btod_ediv)
    _btod_emul                               0x0800141d   Thumb Code    42  btod.o(CL$$btod_emul)
    __btod_mult_common                       0x08001447   Thumb Code   580  btod.o(CL$$btod_mult_common)
    ADC_Disable                              0x0800168d   Thumb Code   128  stm32g4xx_hal_adc.o(i.ADC_Disable)
    ADC_Enable                               0x08001711   Thumb Code   184  stm32g4xx_hal_adc.o(i.ADC_Enable)
    ADC_Task                                 0x080017d9   Thumb Code    64  hw.o(i.ADC_Task)
    BusFault_Handler                         0x08001835   Thumb Code     2  stm32g4xx_it.o(i.BusFault_Handler)
    DebugMon_Handler                         0x08001837   Thumb Code     2  stm32g4xx_it.o(i.DebugMon_Handler)
    Delay_LCD                                0x08001839   Thumb Code    28  lcd.o(i.Delay_LCD)
    EEPROM_Read                              0x08001855   Thumb Code    60  hw.o(i.EEPROM_Read)
    EEPROM_Read_k                            0x08001891   Thumb Code    34  hw.o(i.EEPROM_Read_k)
    EEPROM_Save_k                            0x080018c1   Thumb Code    30  hw.o(i.EEPROM_Save_k)
    EEPROM_Write                             0x080018e5   Thumb Code    48  hw.o(i.EEPROM_Write)
    Error_Handler                            0x08001915   Thumb Code     4  main.o(i.Error_Handler)
    HAL_ADCEx_Calibration_Start              0x08001919   Thumb Code   148  stm32g4xx_hal_adc_ex.o(i.HAL_ADCEx_Calibration_Start)
    HAL_ADC_ConfigChannel                    0x080019b5   Thumb Code  1026  stm32g4xx_hal_adc.o(i.HAL_ADC_ConfigChannel)
    HAL_ADC_Init                             0x08001de9   Thumb Code   482  stm32g4xx_hal_adc.o(i.HAL_ADC_Init)
    HAL_ADC_MspInit                          0x08001fe9   Thumb Code   106  adc.o(i.HAL_ADC_MspInit)
    HAL_ADC_Start                            0x08002061   Thumb Code   228  stm32g4xx_hal_adc.o(i.HAL_ADC_Start)
    HAL_DMA_Abort                            0x08002151   Thumb Code   104  stm32g4xx_hal_dma.o(i.HAL_DMA_Abort)
    HAL_DMA_Abort_IT                         0x080021b9   Thumb Code   118  stm32g4xx_hal_dma.o(i.HAL_DMA_Abort_IT)
    HAL_Delay                                0x08002231   Thumb Code    32  stm32g4xx_hal.o(i.HAL_Delay)
    HAL_GPIO_Init                            0x08002255   Thumb Code   400  stm32g4xx_hal_gpio.o(i.HAL_GPIO_Init)
    HAL_GPIO_ReadPin                         0x08002405   Thumb Code    14  stm32g4xx_hal_gpio.o(i.HAL_GPIO_ReadPin)
    HAL_GPIO_WritePin                        0x08002413   Thumb Code    12  stm32g4xx_hal_gpio.o(i.HAL_GPIO_WritePin)
    HAL_GetTick                              0x08002421   Thumb Code     6  stm32g4xx_hal.o(i.HAL_GetTick)
    HAL_IncTick                              0x0800242d   Thumb Code    12  stm32g4xx_hal.o(i.HAL_IncTick)
    HAL_Init                                 0x0800243d   Thumb Code    30  stm32g4xx_hal.o(i.HAL_Init)
    HAL_InitTick                             0x0800245d   Thumb Code    68  stm32g4xx_hal.o(i.HAL_InitTick)
    HAL_MspInit                              0x080024a9   Thumb Code    42  stm32g4xx_hal_msp.o(i.HAL_MspInit)
    HAL_NVIC_EnableIRQ                       0x080024d9   Thumb Code    26  stm32g4xx_hal_cortex.o(i.HAL_NVIC_EnableIRQ)
    HAL_NVIC_SetPriority                     0x080024f5   Thumb Code    60  stm32g4xx_hal_cortex.o(i.HAL_NVIC_SetPriority)
    HAL_NVIC_SetPriorityGrouping             0x08002535   Thumb Code    26  stm32g4xx_hal_cortex.o(i.HAL_NVIC_SetPriorityGrouping)
    HAL_PWREx_ControlVoltageScaling          0x08002559   Thumb Code   190  stm32g4xx_hal_pwr_ex.o(i.HAL_PWREx_ControlVoltageScaling)
    HAL_PWREx_DisableUCPDDeadBattery         0x08002625   Thumb Code    12  stm32g4xx_hal_pwr_ex.o(i.HAL_PWREx_DisableUCPDDeadBattery)
    HAL_RCCEx_PeriphCLKConfig                0x08002635   Thumb Code   656  stm32g4xx_hal_rcc_ex.o(i.HAL_RCCEx_PeriphCLKConfig)
    HAL_RCC_ClockConfig                      0x080028cd   Thumb Code   432  stm32g4xx_hal_rcc.o(i.HAL_RCC_ClockConfig)
    HAL_RCC_GetHCLKFreq                      0x08002a95   Thumb Code     6  stm32g4xx_hal_rcc.o(i.HAL_RCC_GetHCLKFreq)
    HAL_RCC_GetPCLK1Freq                     0x08002aa1   Thumb Code    26  stm32g4xx_hal_rcc.o(i.HAL_RCC_GetPCLK1Freq)
    HAL_RCC_GetPCLK2Freq                     0x08002ac5   Thumb Code    26  stm32g4xx_hal_rcc.o(i.HAL_RCC_GetPCLK2Freq)
    HAL_RCC_GetSysClockFreq                  0x08002ae9   Thumb Code   106  stm32g4xx_hal_rcc.o(i.HAL_RCC_GetSysClockFreq)
    HAL_RCC_OscConfig                        0x08002b61   Thumb Code  1104  stm32g4xx_hal_rcc.o(i.HAL_RCC_OscConfig)
    HAL_RTCEx_AlarmBEventCallback            0x08002fb1   Thumb Code     2  stm32g4xx_hal_rtc_ex.o(i.HAL_RTCEx_AlarmBEventCallback)
    HAL_RTC_AlarmAEventCallback              0x08002fb5   Thumb Code    78  hw.o(i.HAL_RTC_AlarmAEventCallback)
    HAL_RTC_AlarmIRQHandler                  0x08003029   Thumb Code    66  stm32g4xx_hal_rtc.o(i.HAL_RTC_AlarmIRQHandler)
    HAL_RTC_GetDate                          0x08003071   Thumb Code    64  stm32g4xx_hal_rtc.o(i.HAL_RTC_GetDate)
    HAL_RTC_GetTime                          0x080030b5   Thumb Code    80  stm32g4xx_hal_rtc.o(i.HAL_RTC_GetTime)
    HAL_RTC_Init                             0x08003109   Thumb Code   154  stm32g4xx_hal_rtc.o(i.HAL_RTC_Init)
    HAL_RTC_MspInit                          0x080031a9   Thumb Code    92  rtc.o(i.HAL_RTC_MspInit)
    HAL_RTC_SetAlarm_IT                      0x0800320d   Thumb Code   402  stm32g4xx_hal_rtc.o(i.HAL_RTC_SetAlarm_IT)
    HAL_RTC_SetDate                          0x080033a5   Thumb Code   160  stm32g4xx_hal_rtc.o(i.HAL_RTC_SetDate)
    HAL_RTC_SetTime                          0x08003449   Thumb Code   198  stm32g4xx_hal_rtc.o(i.HAL_RTC_SetTime)
    HAL_RTC_WaitForSynchro                   0x08003515   Thumb Code    48  stm32g4xx_hal_rtc.o(i.HAL_RTC_WaitForSynchro)
    HAL_SYSTICK_Config                       0x08003549   Thumb Code    40  stm32g4xx_hal_cortex.o(i.HAL_SYSTICK_Config)
    HAL_UARTEx_DisableFifoMode               0x08003571   Thumb Code    62  stm32g4xx_hal_uart_ex.o(i.HAL_UARTEx_DisableFifoMode)
    HAL_UARTEx_RxEventCallback               0x080035af   Thumb Code     2  stm32g4xx_hal_uart.o(i.HAL_UARTEx_RxEventCallback)
    HAL_UARTEx_RxFifoFullCallback            0x080035b1   Thumb Code     2  stm32g4xx_hal_uart_ex.o(i.HAL_UARTEx_RxFifoFullCallback)
    HAL_UARTEx_SetRxFifoThreshold            0x080035b3   Thumb Code    76  stm32g4xx_hal_uart_ex.o(i.HAL_UARTEx_SetRxFifoThreshold)
    HAL_UARTEx_SetTxFifoThreshold            0x080035ff   Thumb Code    76  stm32g4xx_hal_uart_ex.o(i.HAL_UARTEx_SetTxFifoThreshold)
    HAL_UARTEx_TxFifoEmptyCallback           0x0800364b   Thumb Code     2  stm32g4xx_hal_uart_ex.o(i.HAL_UARTEx_TxFifoEmptyCallback)
    HAL_UARTEx_WakeupCallback                0x0800364d   Thumb Code     2  stm32g4xx_hal_uart_ex.o(i.HAL_UARTEx_WakeupCallback)
    HAL_UART_ErrorCallback                   0x0800364f   Thumb Code     2  stm32g4xx_hal_uart.o(i.HAL_UART_ErrorCallback)
    HAL_UART_IRQHandler                      0x08003651   Thumb Code   764  stm32g4xx_hal_uart.o(i.HAL_UART_IRQHandler)
    HAL_UART_Init                            0x08003959   Thumb Code   112  stm32g4xx_hal_uart.o(i.HAL_UART_Init)
    HAL_UART_MspInit                         0x080039c9   Thumb Code   132  usart.o(i.HAL_UART_MspInit)
    HAL_UART_Receive_IT                      0x08003a55   Thumb Code    66  stm32g4xx_hal_uart.o(i.HAL_UART_Receive_IT)
    HAL_UART_RxCpltCallback                  0x08003a9d   Thumb Code    44  hw.o(i.HAL_UART_RxCpltCallback)
    HAL_UART_Transmit                        0x08003ad9   Thumb Code   184  stm32g4xx_hal_uart.o(i.HAL_UART_Transmit)
    HAL_UART_TxCpltCallback                  0x08003b91   Thumb Code     2  stm32g4xx_hal_uart.o(i.HAL_UART_TxCpltCallback)
    HardFault_Handler                        0x08003b93   Thumb Code     2  stm32g4xx_it.o(i.HardFault_Handler)
    I2CReceiveByte                           0x08003b95   Thumb Code    80  i2c - hal.o(i.I2CReceiveByte)
    I2CSendByte                              0x08003be5   Thumb Code    78  i2c - hal.o(i.I2CSendByte)
    I2CSendNotAck                            0x08003c33   Thumb Code    48  i2c - hal.o(i.I2CSendNotAck)
    I2CStart                                 0x08003c63   Thumb Code    54  i2c - hal.o(i.I2CStart)
    I2CStop                                  0x08003c99   Thumb Code    54  i2c - hal.o(i.I2CStop)
    I2CWaitAck                               0x08003ccf   Thumb Code    80  i2c - hal.o(i.I2CWaitAck)
    Key_Task                                 0x08003d21   Thumb Code   134  hw.o(i.Key_Task)
    LCD_BusIn                                0x08003db1   Thumb Code    40  lcd.o(i.LCD_BusIn)
    LCD_BusOut                               0x08003ddd   Thumb Code    42  lcd.o(i.LCD_BusOut)
    LCD_Clear                                0x08003e0d   Thumb Code    36  lcd.o(i.LCD_Clear)
    LCD_CtrlLinesConfig                      0x08003e31   Thumb Code   136  lcd.o(i.LCD_CtrlLinesConfig)
    LCD_DisplayChar                          0x08003ec1   Thumb Code    18  lcd.o(i.LCD_DisplayChar)
    LCD_DisplayStringLine                    0x08003ed9   Thumb Code    42  lcd.o(i.LCD_DisplayStringLine)
    LCD_DrawChar                             0x08003f05   Thumb Code    86  lcd.o(i.LCD_DrawChar)
    LCD_Init                                 0x08003f61   Thumb Code    46  lcd.o(i.LCD_Init)
    LCD_ReadReg                              0x08003f95   Thumb Code   120  lcd.o(i.LCD_ReadReg)
    LCD_SetBackColor                         0x08004015   Thumb Code    12  lcd.o(i.LCD_SetBackColor)
    LCD_SetCursor                            0x08004025   Thumb Code    24  lcd.o(i.LCD_SetCursor)
    LCD_SetTextColor                         0x0800403d   Thumb Code    12  lcd.o(i.LCD_SetTextColor)
    LCD_Task                                 0x0800404d   Thumb Code   280  hw.o(i.LCD_Task)
    LCD_WriteRAM                             0x08004245   Thumb Code    80  lcd.o(i.LCD_WriteRAM)
    LCD_WriteRAM_Prepare                     0x0800429d   Thumb Code    82  lcd.o(i.LCD_WriteRAM_Prepare)
    LCD_WriteReg                             0x080042f9   Thumb Code   100  lcd.o(i.LCD_WriteReg)
    LED_Disp                                 0x08004365   Thumb Code    36  hw.o(i.LED_Disp)
    LED_Task                                 0x08004391   Thumb Code    66  hw.o(i.LED_Task)
    MX_ADC2_Init                             0x08004435   Thumb Code   110  adc.o(i.MX_ADC2_Init)
    MX_GPIO_Init                             0x080044b1   Thumb Code   232  gpio.o(i.MX_GPIO_Init)
    MX_RTC_Init                              0x080045a9   Thumb Code   138  rtc.o(i.MX_RTC_Init)
    MX_USART1_UART_Init                      0x0800463d   Thumb Code    94  usart.o(i.MX_USART1_UART_Init)
    MemManage_Handler                        0x080046a5   Thumb Code     2  stm32g4xx_it.o(i.MemManage_Handler)
    NMI_Handler                              0x080046a7   Thumb Code     2  stm32g4xx_it.o(i.NMI_Handler)
    PendSV_Handler                           0x080046a9   Thumb Code     2  stm32g4xx_it.o(i.PendSV_Handler)
    REG_8230_Init                            0x080046fd   Thumb Code   274  lcd.o(i.REG_8230_Init)
    REG_932X_Init                            0x0800480f   Thumb Code   514  lcd.o(i.REG_932X_Init)
    RTC_Alarm_IRQHandler                     0x08004a11   Thumb Code     6  stm32g4xx_it.o(i.RTC_Alarm_IRQHandler)
    RTC_Bcd2ToByte                           0x08004a1d   Thumb Code    18  stm32g4xx_hal_rtc.o(i.RTC_Bcd2ToByte)
    RTC_ByteToBcd2                           0x08004a2f   Thumb Code    22  stm32g4xx_hal_rtc.o(i.RTC_ByteToBcd2)
    RTC_EnterInitMode                        0x08004a45   Thumb Code    72  stm32g4xx_hal_rtc.o(i.RTC_EnterInitMode)
    RTC_ExitInitMode                         0x08004a8d   Thumb Code    80  stm32g4xx_hal_rtc.o(i.RTC_ExitInitMode)
    SCL_Output                               0x08004add   Thumb Code    30  i2c - hal.o(i.SCL_Output)
    SDA_Input                                0x08004b01   Thumb Code    22  i2c - hal.o(i.SDA_Input)
    SDA_Input_Mode                           0x08004b1d   Thumb Code    40  i2c - hal.o(i.SDA_Input_Mode)
    SDA_Output                               0x08004b49   Thumb Code    30  i2c - hal.o(i.SDA_Output)
    SDA_Output_Mode                          0x08004b6d   Thumb Code    40  i2c - hal.o(i.SDA_Output_Mode)
    SVC_Handler                              0x08004b99   Thumb Code     2  stm32g4xx_it.o(i.SVC_Handler)
    SysTick_Handler                          0x08004b9d   Thumb Code    32  hw.o(i.SysTick_Handler)
    SystemClock_Config                       0x08004bc1   Thumb Code   102  main.o(i.SystemClock_Config)
    SystemInit                               0x08004c29   Thumb Code    12  system_stm32g4xx.o(i.SystemInit)
    UART_AdvFeatureConfig                    0x08004c81   Thumb Code   200  stm32g4xx_hal_uart.o(i.UART_AdvFeatureConfig)
    UART_CheckIdleState                      0x08004d49   Thumb Code   170  stm32g4xx_hal_uart.o(i.UART_CheckIdleState)
    UART_SetConfig                           0x08005351   Thumb Code   680  stm32g4xx_hal_uart.o(i.UART_SetConfig)
    UART_Start_Receive_IT                    0x08005625   Thumb Code   274  stm32g4xx_hal_uart.o(i.UART_Start_Receive_IT)
    UART_WaitOnFlagUntilTimeout              0x08005749   Thumb Code   152  stm32g4xx_hal_uart.o(i.UART_WaitOnFlagUntilTimeout)
    USART1_IRQHandler                        0x080057e1   Thumb Code     6  stm32g4xx_it.o(i.USART1_IRQHandler)
    USART_Task                               0x080057ed   Thumb Code   130  hw.o(i.USART_Task)
    UsageFault_Handler                       0x08005889   Thumb Code     2  stm32g4xx_it.o(i.UsageFault_Handler)
    __ARM_fpclassify                         0x0800588b   Thumb Code    48  fpclassify.o(i.__ARM_fpclassify)
    _is_digit                                0x080058db   Thumb Code    14  __printf_wp.o(i._is_digit)
    keyFlag_Task                             0x080058f5   Thumb Code   172  hw.o(i.keyFlag_Task)
    main                                     0x080059a9   Thumb Code    34  main.o(i.main)
    setRTC_A                                 0x080059cd   Thumb Code    78  hw.o(i.setRTC_A)
    sysInit                                  0x08005a25   Thumb Code    68  hw.o(i.sysInit)
    taskInit                                 0x08005a75   Thumb Code    16  hw.o(i.taskInit)
    taskRun                                  0x08005a89   Thumb Code    30  hw.o(i.taskRun)
    _get_lc_numeric                          0x08005aa9   Thumb Code    44  lc_numeric_c.o(locale$$code)
    __aeabi_d2f                              0x08005ad5   Thumb Code     0  d2f.o(x$fpl$d2f)
    _d2f                                     0x08005ad5   Thumb Code    98  d2f.o(x$fpl$d2f)
    __aeabi_ddiv                             0x08005b39   Thumb Code     0  ddiv.o(x$fpl$ddiv)
    _ddiv                                    0x08005b39   Thumb Code   552  ddiv.o(x$fpl$ddiv)
    __aeabi_i2d                              0x08005de9   Thumb Code     0  dflt_clz.o(x$fpl$dflt)
    _dflt                                    0x08005de9   Thumb Code    46  dflt_clz.o(x$fpl$dflt)
    __aeabi_ui2d                             0x08005e17   Thumb Code     0  dflt_clz.o(x$fpl$dfltu)
    _dfltu                                   0x08005e17   Thumb Code    38  dflt_clz.o(x$fpl$dfltu)
    __aeabi_dmul                             0x08005e3d   Thumb Code     0  dmul.o(x$fpl$dmul)
    _dmul                                    0x08005e3d   Thumb Code   332  dmul.o(x$fpl$dmul)
    __fpl_dnaninf                            0x08005f91   Thumb Code   156  dnaninf.o(x$fpl$dnaninf)
    __fpl_dretinf                            0x0800602d   Thumb Code    12  dretinf.o(x$fpl$dretinf)
    __aeabi_f2d                              0x08006039   Thumb Code     0  f2d.o(x$fpl$f2d)
    _f2d                                     0x08006039   Thumb Code    86  f2d.o(x$fpl$f2d)
    __fpl_fnaninf                            0x0800608f   Thumb Code   140  fnaninf.o(x$fpl$fnaninf)
    _fp_init                                 0x0800611b   Thumb Code    10  fpinit.o(x$fpl$fpinit)
    __fplib_config_fpu_vfp                   0x08006123   Thumb Code     0  fpinit.o(x$fpl$fpinit)
    __fplib_config_pureend_doubles           0x08006123   Thumb Code     0  fpinit.o(x$fpl$fpinit)
    __fpl_fretinf                            0x08006125   Thumb Code    10  fretinf.o(x$fpl$fretinf)
    _printf_fp_dec                           0x0800612f   Thumb Code     4  printf1.o(x$fpl$printf1)
    UARTPrescTable                           0x08006132   Data          24  stm32g4xx_hal_uart.o(.constdata)
    __I$use$fp                               0x08006132   Number         0  usenofp.o(x$fpl$usenofp)
    AHBPrescTable                            0x0800615a   Data          16  system_stm32g4xx.o(.constdata)
    APBPrescTable                            0x0800616a   Data           8  system_stm32g4xx.o(.constdata)
    ASCII_Table                              0x08006172   Data        4560  lcd.o(.constdata)
    Region$$Table$$Base                      0x080073e8   Number         0  anon$$obj.o(Region$$Table)
    Region$$Table$$Limit                     0x08007408   Number         0  anon$$obj.o(Region$$Table)
    uwTickPrio                               0x20000000   Data           4  stm32g4xx_hal.o(.data)
    uwTickFreq                               0x20000004   Data           4  stm32g4xx_hal.o(.data)
    uwTick                                   0x20000008   Data           4  stm32g4xx_hal.o(.data)
    SystemCoreClock                          0x2000000c   Data           4  system_stm32g4xx.o(.data)
    dummy                                    0x20000014   Data           2  lcd.o(.data)
    view                                     0x20000018   Data           1  hw.o(.data)
    LEDFalg                                  0x20000019   Data           1  hw.o(.data)
    USART_Pos                                0x2000001a   Data           1  hw.o(.data)
    choice                                   0x2000001b   Data           1  hw.o(.data)
    LEDState                                 0x2000001c   Data           1  hw.o(.data)
    USART_RecTmp                             0x2000001d   Data           1  hw.o(.data)
    k                                        0x20000020   Data           4  hw.o(.data)
    V                                        0x20000024   Data           4  hw.o(.data)
    sDate                                    0x20000028   Data           4  hw.o(.data)
    time                                     0x2000002c   Data           6  hw.o(.data)
    hadc2                                    0x20000034   Data         108  adc.o(.bss)
    hrtc                                     0x200000a0   Data          40  rtc.o(.bss)
    huart1                                   0x200000c8   Data         148  usart.o(.bss)
    sysTimer                                 0x2000015c   Data          24  hw.o(.bss)
    text                                     0x20000174   Data          30  hw.o(.bss)
    sTime                                    0x20000194   Data          20  hw.o(.bss)
    setTime                                  0x200001a8   Data          20  hw.o(.bss)
    key                                      0x200001bc   Data          12  hw.o(.bss)
    USART_Data                               0x200001c8   Data          64  hw.o(.bss)
    __libspace_start                         0x20000208   Data          96  libspace.o(.bss)
    __temporary_stack_top$libspace           0x20000268   Data           0  libspace.o(.bss)



==============================================================================

Memory Map of the image

  Image Entry point : 0x080001d9

  Load Region LR_IROM1 (Base: 0x08000000, Size: 0x00007458, Max: 0x00020000, ABSOLUTE)

    Execution Region ER_IROM1 (Exec base: 0x08000000, Load base: 0x08000000, Size: 0x00007424, Max: 0x00020000, ABSOLUTE)

    Exec Addr    Load Addr    Size         Type   Attr      Idx    E Section Name        Object

    0x08000000   0x08000000   0x000001d8   Data   RO            3    RESET               startup_stm32g431xx.o
    0x080001d8   0x080001d8   0x00000008   Code   RO         4041  * !!!main             c_w.l(__main.o)
    0x080001e0   0x080001e0   0x00000034   Code   RO         4293    !!!scatter          c_w.l(__scatter.o)
    0x08000214   0x08000214   0x0000001a   Code   RO         4295    !!handler_copy      c_w.l(__scatter_copy.o)
    0x0800022e   0x0800022e   0x00000002   PAD
    0x08000230   0x08000230   0x0000001c   Code   RO         4297    !!handler_zi        c_w.l(__scatter_zi.o)
    0x0800024c   0x0800024c   0x00000000   Code   RO         4034    .ARM.Collect$$_printf_percent$$00000000  c_w.l(_printf_percent.o)
    0x0800024c   0x0800024c   0x00000006   Code   RO         4033    .ARM.Collect$$_printf_percent$$00000003  c_w.l(_printf_f.o)
    0x08000252   0x08000252   0x00000006   Code   RO         4032    .ARM.Collect$$_printf_percent$$00000009  c_w.l(_printf_d.o)
    0x08000258   0x08000258   0x00000006   Code   RO         4031    .ARM.Collect$$_printf_percent$$00000014  c_w.l(_printf_s.o)
    0x0800025e   0x0800025e   0x00000004   Code   RO         4076    .ARM.Collect$$_printf_percent$$00000017  c_w.l(_printf_percent_end.o)
    0x08000262   0x08000262   0x00000002   Code   RO         4164    .ARM.Collect$$libinit$$00000000  c_w.l(libinit.o)
    0x08000264   0x08000264   0x00000004   Code   RO         4165    .ARM.Collect$$libinit$$00000001  c_w.l(libinit2.o)
    0x08000268   0x08000268   0x00000000   Code   RO         4168    .ARM.Collect$$libinit$$00000004  c_w.l(libinit2.o)
    0x08000268   0x08000268   0x00000000   Code   RO         4171    .ARM.Collect$$libinit$$0000000A  c_w.l(libinit2.o)
    0x08000268   0x08000268   0x00000000   Code   RO         4173    .ARM.Collect$$libinit$$0000000C  c_w.l(libinit2.o)
    0x08000268   0x08000268   0x00000000   Code   RO         4175    .ARM.Collect$$libinit$$0000000E  c_w.l(libinit2.o)
    0x08000268   0x08000268   0x00000006   Code   RO         4176    .ARM.Collect$$libinit$$0000000F  c_w.l(libinit2.o)
    0x0800026e   0x0800026e   0x00000000   Code   RO         4178    .ARM.Collect$$libinit$$00000011  c_w.l(libinit2.o)
    0x0800026e   0x0800026e   0x00000000   Code   RO         4180    .ARM.Collect$$libinit$$00000013  c_w.l(libinit2.o)
    0x0800026e   0x0800026e   0x00000000   Code   RO         4182    .ARM.Collect$$libinit$$00000015  c_w.l(libinit2.o)
    0x0800026e   0x0800026e   0x0000000a   Code   RO         4183    .ARM.Collect$$libinit$$00000016  c_w.l(libinit2.o)
    0x08000278   0x08000278   0x00000000   Code   RO         4184    .ARM.Collect$$libinit$$00000017  c_w.l(libinit2.o)
    0x08000278   0x08000278   0x00000000   Code   RO         4186    .ARM.Collect$$libinit$$00000019  c_w.l(libinit2.o)
    0x08000278   0x08000278   0x00000000   Code   RO         4188    .ARM.Collect$$libinit$$0000001B  c_w.l(libinit2.o)
    0x08000278   0x08000278   0x00000000   Code   RO         4190    .ARM.Collect$$libinit$$0000001D  c_w.l(libinit2.o)
    0x08000278   0x08000278   0x00000000   Code   RO         4192    .ARM.Collect$$libinit$$0000001F  c_w.l(libinit2.o)
    0x08000278   0x08000278   0x00000000   Code   RO         4194    .ARM.Collect$$libinit$$00000021  c_w.l(libinit2.o)
    0x08000278   0x08000278   0x00000000   Code   RO         4196    .ARM.Collect$$libinit$$00000023  c_w.l(libinit2.o)
    0x08000278   0x08000278   0x00000000   Code   RO         4198    .ARM.Collect$$libinit$$00000025  c_w.l(libinit2.o)
    0x08000278   0x08000278   0x00000000   Code   RO         4202    .ARM.Collect$$libinit$$0000002C  c_w.l(libinit2.o)
    0x08000278   0x08000278   0x00000000   Code   RO         4204    .ARM.Collect$$libinit$$0000002E  c_w.l(libinit2.o)
    0x08000278   0x08000278   0x00000000   Code   RO         4206    .ARM.Collect$$libinit$$00000030  c_w.l(libinit2.o)
    0x08000278   0x08000278   0x00000000   Code   RO         4208    .ARM.Collect$$libinit$$00000032  c_w.l(libinit2.o)
    0x08000278   0x08000278   0x00000002   Code   RO         4209    .ARM.Collect$$libinit$$00000033  c_w.l(libinit2.o)
    0x0800027a   0x0800027a   0x00000002   Code   RO         4256    .ARM.Collect$$libshutdown$$00000000  c_w.l(libshutdown.o)
    0x0800027c   0x0800027c   0x00000000   Code   RO         4274    .ARM.Collect$$libshutdown$$00000002  c_w.l(libshutdown2.o)
    0x0800027c   0x0800027c   0x00000000   Code   RO         4276    .ARM.Collect$$libshutdown$$00000004  c_w.l(libshutdown2.o)
    0x0800027c   0x0800027c   0x00000000   Code   RO         4278    .ARM.Collect$$libshutdown$$00000006  c_w.l(libshutdown2.o)
    0x0800027c   0x0800027c   0x00000000   Code   RO         4281    .ARM.Collect$$libshutdown$$00000009  c_w.l(libshutdown2.o)
    0x0800027c   0x0800027c   0x00000000   Code   RO         4284    .ARM.Collect$$libshutdown$$0000000C  c_w.l(libshutdown2.o)
    0x0800027c   0x0800027c   0x00000000   Code   RO         4286    .ARM.Collect$$libshutdown$$0000000E  c_w.l(libshutdown2.o)
    0x0800027c   0x0800027c   0x00000000   Code   RO         4289    .ARM.Collect$$libshutdown$$00000011  c_w.l(libshutdown2.o)
    0x0800027c   0x0800027c   0x00000002   Code   RO         4290    .ARM.Collect$$libshutdown$$00000012  c_w.l(libshutdown2.o)
    0x0800027e   0x0800027e   0x00000000   Code   RO         4061    .ARM.Collect$$rtentry$$00000000  c_w.l(__rtentry.o)
    0x0800027e   0x0800027e   0x00000000   Code   RO         4087    .ARM.Collect$$rtentry$$00000002  c_w.l(__rtentry2.o)
    0x0800027e   0x0800027e   0x00000006   Code   RO         4099    .ARM.Collect$$rtentry$$00000004  c_w.l(__rtentry4.o)
    0x08000284   0x08000284   0x00000000   Code   RO         4089    .ARM.Collect$$rtentry$$00000009  c_w.l(__rtentry2.o)
    0x08000284   0x08000284   0x00000004   Code   RO         4090    .ARM.Collect$$rtentry$$0000000A  c_w.l(__rtentry2.o)
    0x08000288   0x08000288   0x00000000   Code   RO         4092    .ARM.Collect$$rtentry$$0000000C  c_w.l(__rtentry2.o)
    0x08000288   0x08000288   0x00000008   Code   RO         4093    .ARM.Collect$$rtentry$$0000000D  c_w.l(__rtentry2.o)
    0x08000290   0x08000290   0x00000002   Code   RO         4210    .ARM.Collect$$rtexit$$00000000  c_w.l(rtexit.o)
    0x08000292   0x08000292   0x00000000   Code   RO         4225    .ARM.Collect$$rtexit$$00000002  c_w.l(rtexit2.o)
    0x08000292   0x08000292   0x00000004   Code   RO         4226    .ARM.Collect$$rtexit$$00000003  c_w.l(rtexit2.o)
    0x08000296   0x08000296   0x00000006   Code   RO         4227    .ARM.Collect$$rtexit$$00000004  c_w.l(rtexit2.o)
    0x0800029c   0x0800029c   0x00000040   Code   RO            4    .text               startup_stm32g431xx.o
    0x080002dc   0x080002dc   0x000000ee   Code   RO         3997    .text               c_w.l(lludivv7m.o)
    0x080003ca   0x080003ca   0x00000002   PAD
    0x080003cc   0x080003cc   0x00000028   Code   RO         4001    .text               c_w.l(noretval__2sprintf.o)
    0x080003f4   0x080003f4   0x0000004e   Code   RO         4005    .text               c_w.l(_printf_pad.o)
    0x08000442   0x08000442   0x00000052   Code   RO         4007    .text               c_w.l(_printf_str.o)
    0x08000494   0x08000494   0x00000078   Code   RO         4009    .text               c_w.l(_printf_dec.o)
    0x0800050c   0x0800050c   0x00000138   Code   RO         4023    .text               c_w.l(__printf_flags_wp.o)
    0x08000644   0x08000644   0x0000003e   Code   RO         4035    .text               c_w.l(strlen.o)
    0x08000682   0x08000682   0x0000004e   Code   RO         4037    .text               c_w.l(rt_memclr_w.o)
    0x080006d0   0x080006d0   0x00000006   Code   RO         4039    .text               c_w.l(heapauxi.o)
    0x080006d6   0x080006d6   0x000000b2   Code   RO         4066    .text               c_w.l(_printf_intcommon.o)
    0x08000788   0x08000788   0x0000041e   Code   RO         4068    .text               c_w.l(_printf_fp_dec.o)
    0x08000ba6   0x08000ba6   0x00000002   PAD
    0x08000ba8   0x08000ba8   0x00000030   Code   RO         4070    .text               c_w.l(_printf_char_common.o)
    0x08000bd8   0x08000bd8   0x0000000a   Code   RO         4072    .text               c_w.l(_sputc.o)
    0x08000be2   0x08000be2   0x0000002c   Code   RO         4074    .text               c_w.l(_printf_char.o)
    0x08000c0e   0x08000c0e   0x00000002   PAD
    0x08000c10   0x08000c10   0x00000008   Code   RO         4106    .text               c_w.l(rt_locale_intlibspace.o)
    0x08000c18   0x08000c18   0x0000008a   Code   RO         4108    .text               c_w.l(lludiv10.o)
    0x08000ca2   0x08000ca2   0x00000002   PAD
    0x08000ca4   0x08000ca4   0x00000080   Code   RO         4110    .text               c_w.l(_printf_fp_infnan.o)
    0x08000d24   0x08000d24   0x000000e4   Code   RO         4114    .text               c_w.l(bigflt0.o)
    0x08000e08   0x08000e08   0x00000008   Code   RO         4146    .text               c_w.l(libspace.o)
    0x08000e10   0x08000e10   0x0000004a   Code   RO         4149    .text               c_w.l(sys_stackheap_outer.o)
    0x08000e5a   0x08000e5a   0x00000012   Code   RO         4151    .text               c_w.l(exit.o)
    0x08000e6c   0x08000e6c   0x00000080   Code   RO         4157    .text               c_w.l(strcmpv7m.o)
    0x08000eec   0x08000eec   0x0000000c   Code   RO         4222    .text               c_w.l(sys_exit.o)
    0x08000ef8   0x08000ef8   0x00000002   Code   RO         4243    .text               c_w.l(use_no_semi.o)
    0x08000efa   0x08000efa   0x00000000   Code   RO         4245    .text               c_w.l(indicate_semi.o)
    0x08000efa   0x08000efa   0x0000003e   Code   RO         4117    CL$$btod_d2e        c_w.l(btod.o)
    0x08000f38   0x08000f38   0x00000046   Code   RO         4119    CL$$btod_d2e_denorm_low  c_w.l(btod.o)
    0x08000f7e   0x08000f7e   0x00000060   Code   RO         4118    CL$$btod_d2e_norm_op1  c_w.l(btod.o)
    0x08000fde   0x08000fde   0x00000338   Code   RO         4127    CL$$btod_div_common  c_w.l(btod.o)
    0x08001316   0x08001316   0x000000dc   Code   RO         4124    CL$$btod_e2e        c_w.l(btod.o)
    0x080013f2   0x080013f2   0x0000002a   Code   RO         4121    CL$$btod_ediv       c_w.l(btod.o)
    0x0800141c   0x0800141c   0x0000002a   Code   RO         4120    CL$$btod_emul       c_w.l(btod.o)
    0x08001446   0x08001446   0x00000244   Code   RO         4126    CL$$btod_mult_common  c_w.l(btod.o)
    0x0800168a   0x0800168a   0x00000002   PAD
    0x0800168c   0x0800168c   0x00000084   Code   RO          444    i.ADC_Disable       stm32g4xx_hal_adc.o
    0x08001710   0x08001710   0x000000c8   Code   RO          445    i.ADC_Enable        stm32g4xx_hal_adc.o
    0x080017d8   0x080017d8   0x0000005c   Code   RO         3846    i.ADC_Task          hw.o
    0x08001834   0x08001834   0x00000002   Code   RO          334    i.BusFault_Handler  stm32g4xx_it.o
    0x08001836   0x08001836   0x00000002   Code   RO          335    i.DebugMon_Handler  stm32g4xx_it.o
    0x08001838   0x08001838   0x0000001c   Code   RO         3632    i.Delay_LCD         lcd.o
    0x08001854   0x08001854   0x0000003c   Code   RO         3849    i.EEPROM_Read       hw.o
    0x08001890   0x08001890   0x00000030   Code   RO         3850    i.EEPROM_Read_k     hw.o
    0x080018c0   0x080018c0   0x00000024   Code   RO         3851    i.EEPROM_Save_k     hw.o
    0x080018e4   0x080018e4   0x00000030   Code   RO         3852    i.EEPROM_Write      hw.o
    0x08001914   0x08001914   0x00000004   Code   RO           13    i.Error_Handler     main.o
    0x08001918   0x08001918   0x0000009c   Code   RO          683    i.HAL_ADCEx_Calibration_Start  stm32g4xx_hal_adc_ex.o
    0x080019b4   0x080019b4   0x00000434   Code   RO          447    i.HAL_ADC_ConfigChannel  stm32g4xx_hal_adc.o
    0x08001de8   0x08001de8   0x00000200   Code   RO          456    i.HAL_ADC_Init      stm32g4xx_hal_adc.o
    0x08001fe8   0x08001fe8   0x00000078   Code   RO          209    i.HAL_ADC_MspInit   adc.o
    0x08002060   0x08002060   0x000000f0   Code   RO          462    i.HAL_ADC_Start     stm32g4xx_hal_adc.o
    0x08002150   0x08002150   0x00000068   Code   RO         1811    i.HAL_DMA_Abort     stm32g4xx_hal_dma.o
    0x080021b8   0x080021b8   0x00000076   Code   RO         1812    i.HAL_DMA_Abort_IT  stm32g4xx_hal_dma.o
    0x0800222e   0x0800222e   0x00000002   PAD
    0x08002230   0x08002230   0x00000024   Code   RO          904    i.HAL_Delay         stm32g4xx_hal.o
    0x08002254   0x08002254   0x000001b0   Code   RO         1673    i.HAL_GPIO_Init     stm32g4xx_hal_gpio.o
    0x08002404   0x08002404   0x0000000e   Code   RO         1675    i.HAL_GPIO_ReadPin  stm32g4xx_hal_gpio.o
    0x08002412   0x08002412   0x0000000c   Code   RO         1677    i.HAL_GPIO_WritePin  stm32g4xx_hal_gpio.o
    0x0800241e   0x0800241e   0x00000002   PAD
    0x08002420   0x08002420   0x0000000c   Code   RO          908    i.HAL_GetTick       stm32g4xx_hal.o
    0x0800242c   0x0800242c   0x00000010   Code   RO          914    i.HAL_IncTick       stm32g4xx_hal.o
    0x0800243c   0x0800243c   0x0000001e   Code   RO          915    i.HAL_Init          stm32g4xx_hal.o
    0x0800245a   0x0800245a   0x00000002   PAD
    0x0800245c   0x0800245c   0x0000004c   Code   RO          916    i.HAL_InitTick      stm32g4xx_hal.o
    0x080024a8   0x080024a8   0x00000030   Code   RO          416    i.HAL_MspInit       stm32g4xx_hal_msp.o
    0x080024d8   0x080024d8   0x0000001a   Code   RO         2320    i.HAL_NVIC_EnableIRQ  stm32g4xx_hal_cortex.o
    0x080024f2   0x080024f2   0x00000002   PAD
    0x080024f4   0x080024f4   0x00000040   Code   RO         2326    i.HAL_NVIC_SetPriority  stm32g4xx_hal_cortex.o
    0x08002534   0x08002534   0x00000024   Code   RO         2327    i.HAL_NVIC_SetPriorityGrouping  stm32g4xx_hal_cortex.o
    0x08002558   0x08002558   0x000000cc   Code   RO         2076    i.HAL_PWREx_ControlVoltageScaling  stm32g4xx_hal_pwr_ex.o
    0x08002624   0x08002624   0x00000010   Code   RO         2088    i.HAL_PWREx_DisableUCPDDeadBattery  stm32g4xx_hal_pwr_ex.o
    0x08002634   0x08002634   0x00000298   Code   RO         1280    i.HAL_RCCEx_PeriphCLKConfig  stm32g4xx_hal_rcc_ex.o
    0x080028cc   0x080028cc   0x000001c8   Code   RO         1150    i.HAL_RCC_ClockConfig  stm32g4xx_hal_rcc.o
    0x08002a94   0x08002a94   0x0000000c   Code   RO         1156    i.HAL_RCC_GetHCLKFreq  stm32g4xx_hal_rcc.o
    0x08002aa0   0x08002aa0   0x00000024   Code   RO         1158    i.HAL_RCC_GetPCLK1Freq  stm32g4xx_hal_rcc.o
    0x08002ac4   0x08002ac4   0x00000024   Code   RO         1159    i.HAL_RCC_GetPCLK2Freq  stm32g4xx_hal_rcc.o
    0x08002ae8   0x08002ae8   0x00000078   Code   RO         1160    i.HAL_RCC_GetSysClockFreq  stm32g4xx_hal_rcc.o
    0x08002b60   0x08002b60   0x00000450   Code   RO         1163    i.HAL_RCC_OscConfig  stm32g4xx_hal_rcc.o
    0x08002fb0   0x08002fb0   0x00000002   Code   RO         2624    i.HAL_RTCEx_AlarmBEventCallback  stm32g4xx_hal_rtc_ex.o
    0x08002fb2   0x08002fb2   0x00000002   PAD
    0x08002fb4   0x08002fb4   0x00000074   Code   RO         3853    i.HAL_RTC_AlarmAEventCallback  hw.o
    0x08003028   0x08003028   0x00000048   Code   RO         2451    i.HAL_RTC_AlarmIRQHandler  stm32g4xx_hal_rtc.o
    0x08003070   0x08003070   0x00000044   Code   RO         2460    i.HAL_RTC_GetDate   stm32g4xx_hal_rtc.o
    0x080030b4   0x080030b4   0x00000054   Code   RO         2462    i.HAL_RTC_GetTime   stm32g4xx_hal_rtc.o
    0x08003108   0x08003108   0x000000a0   Code   RO         2463    i.HAL_RTC_Init      stm32g4xx_hal_rtc.o
    0x080031a8   0x080031a8   0x00000064   Code   RO          251    i.HAL_RTC_MspInit   rtc.o
    0x0800320c   0x0800320c   0x00000198   Code   RO         2468    i.HAL_RTC_SetAlarm_IT  stm32g4xx_hal_rtc.o
    0x080033a4   0x080033a4   0x000000a4   Code   RO         2469    i.HAL_RTC_SetDate   stm32g4xx_hal_rtc.o
    0x08003448   0x08003448   0x000000cc   Code   RO         2470    i.HAL_RTC_SetTime   stm32g4xx_hal_rtc.o
    0x08003514   0x08003514   0x00000034   Code   RO         2471    i.HAL_RTC_WaitForSynchro  stm32g4xx_hal_rtc.o
    0x08003548   0x08003548   0x00000028   Code   RO         2331    i.HAL_SYSTICK_Config  stm32g4xx_hal_cortex.o
    0x08003570   0x08003570   0x0000003e   Code   RO         3367    i.HAL_UARTEx_DisableFifoMode  stm32g4xx_hal_uart_ex.o
    0x080035ae   0x080035ae   0x00000002   Code   RO         2951    i.HAL_UARTEx_RxEventCallback  stm32g4xx_hal_uart.o
    0x080035b0   0x080035b0   0x00000002   Code   RO         3375    i.HAL_UARTEx_RxFifoFullCallback  stm32g4xx_hal_uart_ex.o
    0x080035b2   0x080035b2   0x0000004c   Code   RO         3376    i.HAL_UARTEx_SetRxFifoThreshold  stm32g4xx_hal_uart_ex.o
    0x080035fe   0x080035fe   0x0000004c   Code   RO         3377    i.HAL_UARTEx_SetTxFifoThreshold  stm32g4xx_hal_uart_ex.o
    0x0800364a   0x0800364a   0x00000002   Code   RO         3379    i.HAL_UARTEx_TxFifoEmptyCallback  stm32g4xx_hal_uart_ex.o
    0x0800364c   0x0800364c   0x00000002   Code   RO         3380    i.HAL_UARTEx_WakeupCallback  stm32g4xx_hal_uart_ex.o
    0x0800364e   0x0800364e   0x00000002   Code   RO         2967    i.HAL_UART_ErrorCallback  stm32g4xx_hal_uart.o
    0x08003650   0x08003650   0x00000308   Code   RO         2970    i.HAL_UART_IRQHandler  stm32g4xx_hal_uart.o
    0x08003958   0x08003958   0x00000070   Code   RO         2971    i.HAL_UART_Init     stm32g4xx_hal_uart.o
    0x080039c8   0x080039c8   0x0000008c   Code   RO          293    i.HAL_UART_MspInit  usart.o
    0x08003a54   0x08003a54   0x00000048   Code   RO         2976    i.HAL_UART_Receive_IT  stm32g4xx_hal_uart.o
    0x08003a9c   0x08003a9c   0x0000003c   Code   RO         3854    i.HAL_UART_RxCpltCallback  hw.o
    0x08003ad8   0x08003ad8   0x000000b8   Code   RO         2980    i.HAL_UART_Transmit  stm32g4xx_hal_uart.o
    0x08003b90   0x08003b90   0x00000002   Code   RO         2983    i.HAL_UART_TxCpltCallback  stm32g4xx_hal_uart.o
    0x08003b92   0x08003b92   0x00000002   Code   RO          336    i.HardFault_Handler  stm32g4xx_it.o
    0x08003b94   0x08003b94   0x00000050   Code   RO         3529    i.I2CReceiveByte    i2c - hal.o
    0x08003be4   0x08003be4   0x0000004e   Code   RO         3531    i.I2CSendByte       i2c - hal.o
    0x08003c32   0x08003c32   0x00000030   Code   RO         3532    i.I2CSendNotAck     i2c - hal.o
    0x08003c62   0x08003c62   0x00000036   Code   RO         3533    i.I2CStart          i2c - hal.o
    0x08003c98   0x08003c98   0x00000036   Code   RO         3534    i.I2CStop           i2c - hal.o
    0x08003cce   0x08003cce   0x00000050   Code   RO         3535    i.I2CWaitAck        i2c - hal.o
    0x08003d1e   0x08003d1e   0x00000002   PAD
    0x08003d20   0x08003d20   0x00000090   Code   RO         3855    i.Key_Task          hw.o
    0x08003db0   0x08003db0   0x0000002c   Code   RO         3633    i.LCD_BusIn         lcd.o
    0x08003ddc   0x08003ddc   0x00000030   Code   RO         3634    i.LCD_BusOut        lcd.o
    0x08003e0c   0x08003e0c   0x00000024   Code   RO         3635    i.LCD_Clear         lcd.o
    0x08003e30   0x08003e30   0x00000090   Code   RO         3637    i.LCD_CtrlLinesConfig  lcd.o
    0x08003ec0   0x08003ec0   0x00000018   Code   RO         3638    i.LCD_DisplayChar   lcd.o
    0x08003ed8   0x08003ed8   0x0000002a   Code   RO         3641    i.LCD_DisplayStringLine  lcd.o
    0x08003f02   0x08003f02   0x00000002   PAD
    0x08003f04   0x08003f04   0x0000005c   Code   RO         3642    i.LCD_DrawChar      lcd.o
    0x08003f60   0x08003f60   0x00000034   Code   RO         3648    i.LCD_Init          lcd.o
    0x08003f94   0x08003f94   0x00000080   Code   RO         3651    i.LCD_ReadReg       lcd.o
    0x08004014   0x08004014   0x00000010   Code   RO         3652    i.LCD_SetBackColor  lcd.o
    0x08004024   0x08004024   0x00000018   Code   RO         3653    i.LCD_SetCursor     lcd.o
    0x0800403c   0x0800403c   0x00000010   Code   RO         3655    i.LCD_SetTextColor  lcd.o
    0x0800404c   0x0800404c   0x000001f8   Code   RO         3856    i.LCD_Task          hw.o
    0x08004244   0x08004244   0x00000058   Code   RO         3658    i.LCD_WriteRAM      lcd.o
    0x0800429c   0x0800429c   0x0000005c   Code   RO         3659    i.LCD_WriteRAM_Prepare  lcd.o
    0x080042f8   0x080042f8   0x0000006c   Code   RO         3660    i.LCD_WriteReg      lcd.o
    0x08004364   0x08004364   0x0000002c   Code   RO         3857    i.LED_Disp          hw.o
    0x08004390   0x08004390   0x00000050   Code   RO         3858    i.LED_Task          hw.o
    0x080043e0   0x080043e0   0x0000000c   Code   RO          470    i.LL_ADC_GetOffsetChannel  stm32g4xx_hal_adc.o
    0x080043ec   0x080043ec   0x00000008   Code   RO          471    i.LL_ADC_INJ_IsConversionOngoing  stm32g4xx_hal_adc.o
    0x080043f4   0x080043f4   0x00000008   Code   RO          472    i.LL_ADC_IsEnabled  stm32g4xx_hal_adc.o
    0x080043fc   0x080043fc   0x00000008   Code   RO          473    i.LL_ADC_REG_IsConversionOngoing  stm32g4xx_hal_adc.o
    0x08004404   0x08004404   0x0000001e   Code   RO          476    i.LL_ADC_SetChannelSamplingTime  stm32g4xx_hal_adc.o
    0x08004422   0x08004422   0x00000010   Code   RO          477    i.LL_ADC_SetOffsetState  stm32g4xx_hal_adc.o
    0x08004432   0x08004432   0x00000002   PAD
    0x08004434   0x08004434   0x0000007c   Code   RO          210    i.MX_ADC2_Init      adc.o
    0x080044b0   0x080044b0   0x000000f8   Code   RO          184    i.MX_GPIO_Init      gpio.o
    0x080045a8   0x080045a8   0x00000094   Code   RO          252    i.MX_RTC_Init       rtc.o
    0x0800463c   0x0800463c   0x00000068   Code   RO          294    i.MX_USART1_UART_Init  usart.o
    0x080046a4   0x080046a4   0x00000002   Code   RO          337    i.MemManage_Handler  stm32g4xx_it.o
    0x080046a6   0x080046a6   0x00000002   Code   RO          338    i.NMI_Handler       stm32g4xx_it.o
    0x080046a8   0x080046a8   0x00000002   Code   RO          339    i.PendSV_Handler    stm32g4xx_it.o
    0x080046aa   0x080046aa   0x00000002   PAD
    0x080046ac   0x080046ac   0x00000050   Code   RO         1164    i.RCC_GetSysClockFreqFromPLLSource  stm32g4xx_hal_rcc.o
    0x080046fc   0x080046fc   0x00000112   Code   RO         3661    i.REG_8230_Init     lcd.o
    0x0800480e   0x0800480e   0x00000202   Code   RO         3662    i.REG_932X_Init     lcd.o
    0x08004a10   0x08004a10   0x0000000c   Code   RO          340    i.RTC_Alarm_IRQHandler  stm32g4xx_it.o
    0x08004a1c   0x08004a1c   0x00000012   Code   RO         2472    i.RTC_Bcd2ToByte    stm32g4xx_hal_rtc.o
    0x08004a2e   0x08004a2e   0x00000016   Code   RO         2473    i.RTC_ByteToBcd2    stm32g4xx_hal_rtc.o
    0x08004a44   0x08004a44   0x00000048   Code   RO         2474    i.RTC_EnterInitMode  stm32g4xx_hal_rtc.o
    0x08004a8c   0x08004a8c   0x00000050   Code   RO         2475    i.RTC_ExitInitMode  stm32g4xx_hal_rtc.o
    0x08004adc   0x08004adc   0x00000024   Code   RO         3536    i.SCL_Output        i2c - hal.o
    0x08004b00   0x08004b00   0x0000001c   Code   RO         3537    i.SDA_Input         i2c - hal.o
    0x08004b1c   0x08004b1c   0x0000002c   Code   RO         3538    i.SDA_Input_Mode    i2c - hal.o
    0x08004b48   0x08004b48   0x00000024   Code   RO         3539    i.SDA_Output        i2c - hal.o
    0x08004b6c   0x08004b6c   0x0000002c   Code   RO         3540    i.SDA_Output_Mode   i2c - hal.o
    0x08004b98   0x08004b98   0x00000002   Code   RO          341    i.SVC_Handler       stm32g4xx_it.o
    0x08004b9a   0x08004b9a   0x00000002   PAD
    0x08004b9c   0x08004b9c   0x00000024   Code   RO         3859    i.SysTick_Handler   hw.o
    0x08004bc0   0x08004bc0   0x00000066   Code   RO           14    i.SystemClock_Config  main.o
    0x08004c26   0x08004c26   0x00000002   PAD
    0x08004c28   0x08004c28   0x00000010   Code   RO         3491    i.SystemInit        system_stm32g4xx.o
    0x08004c38   0x08004c38   0x00000048   Code   RO         3381    i.UARTEx_SetNbDataToProcess  stm32g4xx_hal_uart_ex.o
    0x08004c80   0x08004c80   0x000000c8   Code   RO         2985    i.UART_AdvFeatureConfig  stm32g4xx_hal_uart.o
    0x08004d48   0x08004d48   0x000000aa   Code   RO         2986    i.UART_CheckIdleState  stm32g4xx_hal_uart.o
    0x08004df2   0x08004df2   0x00000014   Code   RO         2987    i.UART_DMAAbortOnError  stm32g4xx_hal_uart.o
    0x08004e06   0x08004e06   0x00000002   PAD
    0x08004e08   0x08004e08   0x00000054   Code   RO         2997    i.UART_EndRxTransfer  stm32g4xx_hal_uart.o
    0x08004e5c   0x08004e5c   0x00000024   Code   RO         2998    i.UART_EndTransmit_IT  stm32g4xx_hal_uart.o
    0x08004e80   0x08004e80   0x000000c8   Code   RO         3000    i.UART_RxISR_16BIT  stm32g4xx_hal_uart.o
    0x08004f48   0x08004f48   0x000001a0   Code   RO         3001    i.UART_RxISR_16BIT_FIFOEN  stm32g4xx_hal_uart.o
    0x080050e8   0x080050e8   0x000000c8   Code   RO         3002    i.UART_RxISR_8BIT   stm32g4xx_hal_uart.o
    0x080051b0   0x080051b0   0x000001a0   Code   RO         3003    i.UART_RxISR_8BIT_FIFOEN  stm32g4xx_hal_uart.o
    0x08005350   0x08005350   0x000002d4   Code   RO         3004    i.UART_SetConfig    stm32g4xx_hal_uart.o
    0x08005624   0x08005624   0x00000124   Code   RO         3006    i.UART_Start_Receive_IT  stm32g4xx_hal_uart.o
    0x08005748   0x08005748   0x00000098   Code   RO         3011    i.UART_WaitOnFlagUntilTimeout  stm32g4xx_hal_uart.o
    0x080057e0   0x080057e0   0x0000000c   Code   RO          342    i.USART1_IRQHandler  stm32g4xx_it.o
    0x080057ec   0x080057ec   0x0000009c   Code   RO         3860    i.USART_Task        hw.o
    0x08005888   0x08005888   0x00000002   Code   RO          343    i.UsageFault_Handler  stm32g4xx_it.o
    0x0800588a   0x0800588a   0x00000030   Code   RO         4144    i.__ARM_fpclassify  m_wm.l(fpclassify.o)
    0x080058ba   0x080058ba   0x00000020   Code   RO         2333    i.__NVIC_SetPriority  stm32g4xx_hal_cortex.o
    0x080058da   0x080058da   0x0000000e   Code   RO         4021    i._is_digit         c_w.l(__printf_wp.o)
    0x080058e8   0x080058e8   0x0000000c   Code   RO         3541    i.delay1            i2c - hal.o
    0x080058f4   0x080058f4   0x000000b4   Code   RO         3861    i.keyFlag_Task      hw.o
    0x080059a8   0x080059a8   0x00000022   Code   RO           15    i.main              main.o
    0x080059ca   0x080059ca   0x00000002   PAD
    0x080059cc   0x080059cc   0x00000058   Code   RO         3862    i.setRTC_A          hw.o
    0x08005a24   0x08005a24   0x00000050   Code   RO         3863    i.sysInit           hw.o
    0x08005a74   0x08005a74   0x00000014   Code   RO         3864    i.taskInit          hw.o
    0x08005a88   0x08005a88   0x0000001e   Code   RO         3865    i.taskRun           hw.o
    0x08005aa6   0x08005aa6   0x00000002   PAD
    0x08005aa8   0x08005aa8   0x0000002c   Code   RO         4140    locale$$code        c_w.l(lc_numeric_c.o)
    0x08005ad4   0x08005ad4   0x00000062   Code   RO         4043    x$fpl$d2f           fz_wm.l(d2f.o)
    0x08005b36   0x08005b36   0x00000002   PAD
    0x08005b38   0x08005b38   0x000002b0   Code   RO         4046    x$fpl$ddiv          fz_wm.l(ddiv.o)
    0x08005de8   0x08005de8   0x0000002e   Code   RO         4050    x$fpl$dflt          fz_wm.l(dflt_clz.o)
    0x08005e16   0x08005e16   0x00000026   Code   RO         4049    x$fpl$dfltu         fz_wm.l(dflt_clz.o)
    0x08005e3c   0x08005e3c   0x00000154   Code   RO         4055    x$fpl$dmul          fz_wm.l(dmul.o)
    0x08005f90   0x08005f90   0x0000009c   Code   RO         4077    x$fpl$dnaninf       fz_wm.l(dnaninf.o)
    0x0800602c   0x0800602c   0x0000000c   Code   RO         4079    x$fpl$dretinf       fz_wm.l(dretinf.o)
    0x08006038   0x08006038   0x00000056   Code   RO         4057    x$fpl$f2d           fz_wm.l(f2d.o)
    0x0800608e   0x0800608e   0x0000008c   Code   RO         4081    x$fpl$fnaninf       fz_wm.l(fnaninf.o)
    0x0800611a   0x0800611a   0x0000000a   Code   RO         4220    x$fpl$fpinit        fz_wm.l(fpinit.o)
    0x08006124   0x08006124   0x0000000a   Code   RO         4083    x$fpl$fretinf       fz_wm.l(fretinf.o)
    0x0800612e   0x0800612e   0x00000004   Code   RO         4059    x$fpl$printf1       fz_wm.l(printf1.o)
    0x08006132   0x08006132   0x00000000   Code   RO         4085    x$fpl$usenofp       fz_wm.l(usenofp.o)
    0x08006132   0x08006132   0x00000018   Data   RO         3012    .constdata          stm32g4xx_hal_uart.o
    0x0800614a   0x0800614a   0x00000010   Data   RO         3383    .constdata          stm32g4xx_hal_uart_ex.o
    0x0800615a   0x0800615a   0x00000010   Data   RO         3492    .constdata          system_stm32g4xx.o
    0x0800616a   0x0800616a   0x00000008   Data   RO         3493    .constdata          system_stm32g4xx.o
    0x08006172   0x08006172   0x000011d0   Data   RO         3663    .constdata          lcd.o
    0x08007342   0x08007342   0x00000011   Data   RO         4024    .constdata          c_w.l(__printf_flags_wp.o)
    0x08007353   0x08007353   0x00000001   PAD
    0x08007354   0x08007354   0x00000094   Data   RO         4115    .constdata          c_w.l(bigflt0.o)
    0x080073e8   0x080073e8   0x00000020   Data   RO         4291    Region$$Table       anon$$obj.o
    0x08007408   0x08007408   0x0000001c   Data   RO         4139    locale$$data        c_w.l(lc_numeric_c.o)


    Execution Region RW_IRAM1 (Exec base: 0x20000000, Load base: 0x08007424, Size: 0x00000868, Max: 0x00008000, ABSOLUTE)

    Exec Addr    Load Addr    Size         Type   Attr      Idx    E Section Name        Object

    0x20000000   0x08007424   0x0000000c   Data   RW          935    .data               stm32g4xx_hal.o
    0x2000000c   0x08007430   0x00000004   Data   RW         3494    .data               system_stm32g4xx.o
    0x20000010   0x08007434   0x00000006   Data   RW         3664    .data               lcd.o
    0x20000016   0x0800743a   0x00000002   PAD
    0x20000018   0x0800743c   0x0000001a   Data   RW         3867    .data               hw.o
    0x20000032   0x08007456   0x00000002   PAD
    0x20000034        -       0x0000006c   Zero   RW          211    .bss                adc.o
    0x200000a0        -       0x00000028   Zero   RW          253    .bss                rtc.o
    0x200000c8        -       0x00000094   Zero   RW          295    .bss                usart.o
    0x2000015c        -       0x000000ac   Zero   RW         3866    .bss                hw.o
    0x20000208        -       0x00000060   Zero   RW         4147    .bss                c_w.l(libspace.o)
    0x20000268        -       0x00000200   Zero   RW            2    HEAP                startup_stm32g431xx.o
    0x20000468        -       0x00000400   Zero   RW            1    STACK               startup_stm32g431xx.o


==============================================================================

Image component sizes


      Code (inc. data)   RO Data    RW Data    ZI Data      Debug   Object Name

       244         28          0          0        108       1773   adc.o
       248         16          0          0          0       1035   gpio.o
      1822        422          0         26        172      11304   hw.o
       594         26          0          0          0       6498   i2c - hal.o
      1770         78       4560          6          0      13016   lcd.o
       140          0          0          0          0     640065   main.o
       248         18          0          0         40       1731   rtc.o
        64         26        472          0       1536        836   startup_stm32g431xx.o
       170         22          0         12          0       4281   stm32g4xx_hal.o
      2242        112          0          0          0      77238   stm32g4xx_hal_adc.o
       156          8          0          0          0      67294   stm32g4xx_hal_adc_ex.o
       198         14          0          0          0      33899   stm32g4xx_hal_cortex.o
       222          0          0          0          0       1799   stm32g4xx_hal_dma.o
       458         32          0          0          0       2923   stm32g4xx_hal_gpio.o
        48          6          0          0          0        846   stm32g4xx_hal_msp.o
       220         18          0          0          0       1457   stm32g4xx_hal_pwr_ex.o
      1844        100          0          0          0       8084   stm32g4xx_hal_rcc.o
       664          8          0          0          0       1956   stm32g4xx_hal_rcc_ex.o
      1404         40          0          0          0      10109   stm32g4xx_hal_rtc.o
         2          0          0          0          0        980   stm32g4xx_hal_rtc_ex.o
      4060        146         24          0          0      38338   stm32g4xx_hal_uart.o
       292          6         16          0          0       5402   stm32g4xx_hal_uart_ex.o
        40         12          0          0          0       4587   stm32g4xx_it.o
        16          4         24          4          0       1111   system_stm32g4xx.o
       244         18          0          0        148       1786   usart.o

    ----------------------------------------------------------------------
     17438       1160       5128         52       2004     938348   Object Totals
         0          0         32          0          0          0   (incl. Generated)
        28          0          0          4          0          0   (incl. Padding)

    ----------------------------------------------------------------------

      Code (inc. data)   RO Data    RW Data    ZI Data      Debug   Library Member Name

         8          0          0          0          0         68   __main.o
       312          4         17          0          0         92   __printf_flags_wp.o
        14          0          0          0          0         68   __printf_wp.o
         0          0          0          0          0          0   __rtentry.o
        12          0          0          0          0          0   __rtentry2.o
         6          0          0          0          0          0   __rtentry4.o
        52          8          0          0          0          0   __scatter.o
        26          0          0          0          0          0   __scatter_copy.o
        28          0          0          0          0          0   __scatter_zi.o
        44          0          0          0          0        108   _printf_char.o
        48          6          0          0          0         96   _printf_char_common.o
         6          0          0          0          0          0   _printf_d.o
       120         16          0          0          0         92   _printf_dec.o
         6          0          0          0          0          0   _printf_f.o
      1054          0          0          0          0        216   _printf_fp_dec.o
       128         16          0          0          0         84   _printf_fp_infnan.o
       178          0          0          0          0         88   _printf_intcommon.o
        78          0          0          0          0        108   _printf_pad.o
         0          0          0          0          0          0   _printf_percent.o
         4          0          0          0          0          0   _printf_percent_end.o
         6          0          0          0          0          0   _printf_s.o
        82          0          0          0          0         80   _printf_str.o
        10          0          0          0          0         68   _sputc.o
       228          4        148          0          0         96   bigflt0.o
      1936        128          0          0          0        672   btod.o
        18          0          0          0          0         80   exit.o
         6          0          0          0          0        152   heapauxi.o
         0          0          0          0          0          0   indicate_semi.o
        44         10         28          0          0         76   lc_numeric_c.o
         2          0          0          0          0          0   libinit.o
        22          0          0          0          0          0   libinit2.o
         2          0          0          0          0          0   libshutdown.o
         2          0          0          0          0          0   libshutdown2.o
         8          4          0          0         96         68   libspace.o
       138          0          0          0          0         80   lludiv10.o
       238          0          0          0          0        100   lludivv7m.o
        40          6          0          0          0         84   noretval__2sprintf.o
         8          4          0          0          0         68   rt_locale_intlibspace.o
        78          0          0          0          0         80   rt_memclr_w.o
         2          0          0          0          0          0   rtexit.o
        10          0          0          0          0          0   rtexit2.o
       128          0          0          0          0         68   strcmpv7m.o
        62          0          0          0          0         76   strlen.o
        12          4          0          0          0         68   sys_exit.o
        74          0          0          0          0         80   sys_stackheap_outer.o
         2          0          0          0          0         68   use_no_semi.o
        98          4          0          0          0        140   d2f.o
       688        140          0          0          0        256   ddiv.o
        84          0          0          0          0        232   dflt_clz.o
       340         12          0          0          0        152   dmul.o
       156          4          0          0          0        140   dnaninf.o
        12          0          0          0          0        116   dretinf.o
        86          4          0          0          0        132   f2d.o
       140          4          0          0          0        132   fnaninf.o
        10          0          0          0          0        116   fpinit.o
        10          0          0          0          0        116   fretinf.o
         4          0          0          0          0        116   printf1.o
         0          0          0          0          0          0   usenofp.o
        48          0          0          0          0        124   fpclassify.o

    ----------------------------------------------------------------------
      6972        378        194          0         96       4856   Library Totals
        14          0          1          0          0          0   (incl. Padding)

    ----------------------------------------------------------------------

      Code (inc. data)   RO Data    RW Data    ZI Data      Debug   Library Name

      5282        210        193          0         96       3084   c_w.l
      1628        168          0          0          0       1648   fz_wm.l
        48          0          0          0          0        124   m_wm.l

    ----------------------------------------------------------------------
      6972        378        194          0         96       4856   Library Totals

    ----------------------------------------------------------------------

==============================================================================


      Code (inc. data)   RO Data    RW Data    ZI Data      Debug   

     24410       1538       5322         52       2100     926440   Grand Totals
     24410       1538       5322         52       2100     926440   ELF Image Totals
     24410       1538       5322         52          0          0   ROM Totals

==============================================================================

    Total RO  Size (Code + RO Data)                29732 (  29.04kB)
    Total RW  Size (RW Data + ZI Data)              2152 (   2.10kB)
    Total ROM Size (Code + RO Data + RW Data)      29784 (  29.09kB)

==============================================================================

