:020000040800F2
:1000000000060020ED010008954300086137000854
:10001000914300084D0900087D79000800000000A8
:10002000000000000000000000000000F966000869
:10003000510900080000000099430008FD6600080F
:10004000070200080702000807020008070200086C
:10005000070200080702000807020008070200085C
:10006000070200080702000807020008070200084C
:10007000070200080702000807020008070200083C
:10008000070200080000000007020008070200083D
:10009000070200080702000807020008070200081C
:1000A00007020008070200085D6700080702000851
:1000B00007020008070200080702000807020008FC
:1000C00007020008070200080702000807020008EC
:1000D00007020008717900080702000807020008FB
:1000E00007020008070200080702000807020008CC
:1000F00007020008070200080702000800000000CD
:1001000000000000070200080000000007020008CD
:1001100007020008000000000702000807020008AC
:10012000070200080702000807020008070200088B
:10013000070200080000000000000000070200089D
:10014000070200080702000800000000000000008D
:10015000000000000000000000000000000000009F
:10016000000000000000000000000000070200087E
:10017000070200080000000000000000000000006E
:10018000000000000702000800000000000000005E
:10019000000000000000000000000000000000005F
:1001A000000000000000000007020008070200082D
:1001B000070200080702000807020008000000000C
:1001C000000000000702000800000000000000001E
:1001D0000702000807020008DFF80CD000F066FBF9
:1001E000004800479D7A0008000600200648804726
:1001F00006480047FEE7FEE7FEE7FEE7FEE7FEE70C
:10020000FEE7FEE7FEE7FEE749670008D9010008C0
:100210002DE9F05F0546002092469B46884606463B
:10022000814640241BE0284641464746224600F0CE
:1002300056FA53465A46C01A914110D311461846F1
:10024000224600F03DFA2D1A67EB01084F46224680
:100250000120002100F034FA17EB00094E41201E66
:10026000A4F10104DFDC484631462A464346BDE896
:10027000F09FD2B201E000F8012B491EFBD270477B
:100280000022F6E710B513460A4604461946FFF762
:10029000F0FF204610BD421C10F8011B0029FBD1C5
:1002A000801A70472DE9FE4F804681EA0300C00F97
:1002B0000C46009021F0004123F00045B8EB02000D
:1002C000A94105D24046214690461C460B460246AF
:1002D00023F00040104347D0270DC7F30A00C3F3B3
:1002E0000A510290401A019040286BDAC3F31300C0
:1002F00040F4801B0098924620B10023D2EB030A01
:1003000063EB0B0B01985946C0F14002504600F0D8
:10031000D7F906460D4650465946019A00F0EFF9C6
:1003200010EB08006141002487EA115284EAE77368
:100330001A4340D0009A62B3019A012A4FEA075249
:1003400015DC001B61EB02014FF0004202EA07528C
:10035000CDE90042001C41F5801132462B4600F0E9
:1003600026FA03B0BDE8F08F40462146F9E7001BAE
:1003700061EB0201001C41F5801300185B4120185D
:10038000A2F5001747EB030140EAD570B6196D419D
:1003900011E06D084FEA360645EAC0754FEA07528C
:1003A000001B61EB0201001C41F5801149084FEA76
:1003B00030000019514132462B4603B0BDE8F04FE2
:1003C00000F0E6B90098012240000023D0EB0202C1
:1003D00063EBE073009821464FEAE074B8EB00004D
:1003E00061EB0401E9E783F000435BE781F0004142
:1003F00058E72DE9FE4F81EA030404F0004421F0A0
:10040000004100944FF0000B23F0004350EA010438
:100410005ED052EA03045BD0C3F30A54C1F30A5519
:100420002C44A4F2F3340194A0FB0254C1F3130151
:1004300041F48011C3F3130343F4801301FB02441E
:1004400000FB034E840A970A44EA815447EA835723
:10045000A4FB076802958D0A05FB07854FEA932CDC
:1004600004FB0C542705029D4FEA065847EA16374D
:10047000B5EB08056EEB070C870E920E47EA811765
:1004800042EA8312A7FB0201B6EB0B0164EB000406
:100490002B0D43EA0C335E1844EB1C50DA465146F0
:1004A000E7FB0201C5F313044FEA0B3343EA14538D
:1004B0004FEA0432019C43EA0603A4F10C040294BF
:1004C000009CCDE900B400F072F903B0BDE8F08FF4
:1004D00000200146F9E72DE9F04D81EA030404F01C
:1004E000004B21F0004514464FF0000A23F0004174
:1004F00050EA050220D054EA01021DD0C5F30A5784
:100500000246C5F31303C1F31300C1F30A5640F4C6
:10051000801543F48013A7EB0608101BD64608F29B
:10052000FD3873EB050002D308F1010801E09218D1
:100530005B41B8F1000F03DA00200146BDE8F08D01
:1005400000204FF48011064684460EE0171B73EB23
:10055000050705D3121B63EB050306434CEA010CA8
:1005600049084FEA300092185B4150EA0107EDD18B
:1005700052EA030012D082EA040083EA050108432C
:1005800005D0101BAB4106D20122002306E0002259
:100590004FF0004302E06FF0010253101AEB060027
:1005A0004CEB085110EB0A0041EB0B01BDE8F04D9C
:1005B00000F0EEB830B5041E71F1000404DB4FF01A
:1005C0000044404264EB0101141E73F1000405DB9A
:1005D0001C464FF00043524263EB0403801A9941DA
:1005E00001D3012030BD002030BD30B5041E71F1B3
:1005F000000404DB4FF00044404264EB0101141E90
:1006000073F1000405DB1C464FF00043524263EBDC
:100610000403801A994101D2012030BD002030BD71
:100620000EB5C10F80EAE0700844CA07002140F20D
:1006300033438DE80E000A460B4600F0B8F803B0CD
:1006400000BD0EB540F2334102910021CDE9001109
:100650000A460B4600F0ABF803B000BD01F00043C2
:1006600030B421F0004150EA010206D00A0DA2F593
:100670006072C1F31301002A02DC30BC0020704715
:10068000440F44EAC104C100E01830BC00EBC25082
:1006900000F047B830B50B46014600202022012467
:1006A00009E021FA02F59D4205D303FA02F5491B40
:1006B00004FA02F52844151EA2F10102F1DC30BD56
:1006C000202A04DB203A00FA02F100207047914012
:1006D000C2F1200320FA03F3194390407047202A07
:1006E00004DB203A21FA02F00021704721FA02F3DC
:1006F000D040C2F120029140084319467047202A99
:1007000006DBCB17203A41FA02F043EAE07306E039
:1007100041FA02F3D040C2F1200291400843194649
:1007200070470029A8BF7047401C490008BF20F04F
:100730000100704710B4B0FA80FC00FA0CF050EAE7
:10074000010404BF10BC704749B1CCF1200421FA68
:1007500004F411FA0CF118BF012121430843A3EB63
:100760000C01CB1D4FEA00614FEA102042BF002070
:1007700010BC704700EBC35010440029A4BF10BC4C
:100780007047401C490008BF20F0010010BC7047B2
:1007900010B5141E73F1000408DA401C41F1000189
:1007A00092185B411A4301D120F0010010BD2DE9E0
:1007B000F04D92469B4611B1B1FA81F202E0B0FAD7
:1007C00080F220329046FFF77BFF04460F4640EA56
:1007D0000A0041EA0B0153465A46084313D011461A
:1007E00053EA010019D0C8F140025046FFF777FFE5
:1007F00005460E46504659464246FFF761FF0843FC
:1008000005D0012004E020463946BDE8F08D0020E7
:10081000054346EAE0762C4337430A986305E40A29
:10082000A0EB08000022FD0A44EA47540A3002D532
:1008300000200146E9E7010510196941DDE9084595
:1008400000196941BDE8F04DA2E7C1F30A52C1F3B6
:10085000130140F2FF3341F480119A4202DA002082
:100860000146704740F233439A42A2F2334202DC1F
:100870005242FFF734BFFFF723BF000030B5041E1C
:1008800071F1000404DB4FF00044404264EB0101CD
:10089000141E73F1000405DB1C464FF00043524266
:1008A00063EB0403994208BF904230BD064C074DEC
:1008B00006E0E06840F0010394E807009847103430
:1008C000AC42F6D3FFF78CFCC4980008E49800080B
:1008D000B0B5016804468A688868C0074FF0000018
:1008E00031D012F0020218BFB0BD886800F00D00D0
:1008F00001281FD188684FF6C072C7F6FF721040FA
:10090000023088600320086000F0EEFD21688968ED
:10091000C90704BF0020B0BD054602E08068C007DB
:1009200012D000F0E1FD411B20680329F6D3816855
:10093000C907F3D0E06D40F01000E065206E40F094
:10094000010020660120B0BD0020B0BDFEE7000020
:1009500070470000EFF3108072B600BFFEE70000A2
:10096000B0B582B004460020019094F858000128E8
:1009700002D1022002B0B0BD012084F85800204608
:100980000D46FFF7A5FFE16D10B141F010014BE0FE
:1009900041F2021291430231E16521684FF6C073C2
:1009A000D1F808C0C3F6FF7303EA0C0305F08045D5
:1009B0004DF601622B44C0F2040203F100438B6048
:1009C0008B68B3F1FF3F2BDC019B01330193019B4B
:1009D00093421DD88B68B3F1FF3F21DC019B0133AB
:1009E0000193019B934213D88B68B3F1FF3F17DC4F
:1009F000019B01330193019B934209D88B68B3F1AA
:100A0000FF3F0DDC019B01330193019B9342D7D93A
:100A1000E06D40F0100020F00201012004E000BF72
:100A2000E16D012262F30101E165002184F85810B3
:100A300002B0B0BDF0B581B00022009290F858200D
:100A4000012A03D10221084601B0F0BD0123076845
:100A500080F85830BB685B0736D4D1E900531F26B5
:100A6000C3F3012407EB8404226B03F01F039E40B1
:100A7000B243C5F3846606FA03F31A432263BA68E5
:100A8000BB6802F0040203F00803D21840F0BD80F6
:100A90000A6807F114030426C2F34064D1F808E0A1
:100AA00006EAD25C53F82450C2F304540722A24051
:100AB000BEF1004F25EA02050CD143F80C501A682C
:100AC00042F000430EE000BFC16D41F02001C1655E
:100AD00001217EE10EFA04F22A4343F80C201A6841
:100AE00022F000437B61D1E90434FD68042B5FD11F
:100AF0003A6E3A6E0B68C2F3846293FAA3F6C3F3BC
:100B0000846C6FF3DF43B6FA86F5002B2C464FF664
:100B1000FF7E08BF6446A242C0F2070E0CD13A6EB7
:100B200022F000423A660A6802EA0E03C2F3846CBD
:100B300092FAA2F2B2FA82F57A6E7A6E002BC2F3C2
:100B400084622C4608BF6446A2420CD17A6E22F021
:100B500000427A660A6802EA0E03C2F3846C92FAD3
:100B6000A2F2B2FA82F5BA6EBA6E002BC2F38462B8
:100B70002C4608BF6446A2420CD1BA6E22F0004255
:100B8000BA660A6802EA0E03C2F3846C92FAA2F211
:100B9000B2FA82F5FA6EFA6E002BC2F3846208BFD5
:100BA0006546AA4231D1FA6E22F00042FA662CE084
:100BB000062202EA95020E6807F1600504FA02FCBB
:100BC00055F823404FF20002C0F2FF3206F0F8461B
:100BD000224046EA0C06324342F0004245F8232008
:100BE0000A698B6955F8226026F08076334345F810
:100BF00022300A690B7F55F82260012B26F000761F
:100C000008BF06F1007645F82260BA68D2074CD1D9
:100C10000C68CA6800262346C4F27F06B2426FF30E
:100C2000DF4319D1D7F8B02042EA0302C7F8B02059
:100C3000C3B194FAA4F2B2FA82F2013202F01E03B6
:100C4000092B02F01F0316D801229A4003EB43033D
:100C500042EA03531BE000BFD7F8B0209A43C7F81D
:100C6000B02022E0012202EB946202F01E030A2B64
:100C700002F01F03E8D3012200269A4003EB43034E
:100C8000CFF6206606EB03531A4342F00073C3F31A
:100C9000406607EB86068A687569C3F30453072428
:100CA0009C40A5439A402A43726109680022C8F219
:100CB0000802114254D040F2083CC5F2000CDCF8A6
:100CC00000300022CCF22132914203F0E07404D0D3
:100CD0001022C9F2C002914244D119024FF0000122
:100CE00077D4B7F1A04F74D1DCF8001042F663520C
:100CF00021F0E071214341F40001CCF8001040F2F2
:100D00001C01C2F200010968C0F23E528909A1FB30
:100D10000212910901EB41010C2202EB81010091C9
:100D2000009900293CD000BF009901390091009939
:100D3000002947D00099013900910099002943D03A
:100D4000009901390091009900293FD0009901399B
:100D50000091009900294FF00001E5D139E000BF72
:100D6000002136E00022CCF25272914208BF13F00B
:100D7000807217D00022CCF6843291424FF00001ED
:100D800008BF13F4800224D1ACF50272974220D040
:100D9000DCF8001021F0E071214341F480010CE007
:100DA000002116E0ACF502718F4211D0DCF8001082
:100DB00021F0E071214341F08071CCF80010002156
:100DC00007E000BF002104E0002102E0002100E074
:100DD0000021002280F85820084601B0F0BD000034
:100DE0000068006C70470000B0B582B00446002077
:100DF00001904CB1E06D58B121688868800012D430
:100E00008868C00019D54CE0012002B0B0BD00BF19
:100E1000204600F00DF90020206684F85800216873
:100E200088688000ECD588684FF6C072C5F6FF72FE
:100E3000104088608868C00033D44FF6C07288685C
:100E4000C5F6FF7202F18052104000F180508860B8
:100E500040F21C00C2F20000006842F663528009B2
:100E6000C0F23E52A0FB02029009022202EB4000B7
:100E700001900198A8B100BF019801380190019834
:100E800078B1019801380190019850B1019801386A
:100E90000190019828B1019801380190019800282B
:100EA000EAD18868C00009D4E06D40F01000E06528
:100EB000206E40F001002066012000E000208A68DA
:100EC000E36D02F0040203F01003D218E26D75D155
:100ED00022F481720232E2658A68D2071AD140F2A6
:100EE000083C4FF600534FF60062C5F2000CCFF6F7
:100EF000FF73CFF6FF725CF803305CF802201A43F0
:100F0000D20707D16268DCF8003023F47C131A435F
:100F1000CCF80020627FE36B43EA4232D4E902C39B
:100F20001A4394F8243042EA0C02012B42EA0342AD
:100F300007D1D4F828C00023CFF6FE7303EB4C434F
:100F40001A43E36A33B1D4F830C003F4787343EA48
:100F50000C031A43D1F80CC044F20703CFF6F07328
:100F600003EA0C031A43CA600A69636B22F0406209
:100F70001A430A618A688B6802F0040203F00803CE
:100F8000D21844D194F83820237F520042EA833C9F
:100F9000CB6844F2020223EA020242EA0C02CA606F
:100FA00022690B6982B143F480330B61D1F8C0C070
:100FB00043F6FF732CEA03031A430DE042F01001DD
:100FC0000120E16502B0B0BD23F480320A61D1F89E
:100FD000C02043F6FF739A43C1F8C02094F8403014
:100FE0000A69012B10D140F2FD7322EA030CD4E907
:100FF0001132D4E913E543EA0C031A4342EA0E0224
:101000002A4342F0010201E022F001020A61626912
:101010000B6B012A23F00F0202D1236A013B1A4312
:101020000A63E16D012262F30101E16502B0B0BD26
:1010300010B598B004460020CDE9160002A804308F
:101040004021FFF71DF9206840F20011C5F20001B0
:10105000884201D018B010BD4FF000504FF400444A
:10106000119002A8029400F091FB002818BFFFF72E
:1010700071FC41F24C00C4F20200016841F40051DD
:101080000160016801F4005101910199016841F08A
:1010900002010160006813A900F0020001900198AC
:1010A000032014900020159040F20040C4F6000088
:1010B000139400F037F918B010BD00002DE9F0418D
:1010C00040F20017C5F20007D7F80862016804462D
:1010D0008868400703D494F85800012802D1022000
:1010E000BDE8F081012084F8580088684FF6C07888
:1010F000C007C7F6FF7837D1886808F17F02104231
:101100000ED0E06D40F01000E065206E40F0010070
:101110002066002084F858000120BDE8F08100BF5F
:10112000886800EA080040F00100886000F0DCF9FF
:1011300021680A68D20717D1054602E00868C0078F
:1011400012D18868C00705D1886800EA080040F01D
:101150000100886000F0C8F9401B21680328EDD326
:101160000868C007EAD1CCE7E06D40F60173984308
:1011700006F01F0200F580760846B94208BF4FF01E
:10118000A040431AB3FA83F35B09E66500D11AB9AC
:10119000E76D27F48017E765E66D0027F6044FF04A
:1011A000000644BF266E26F0060626661C260E6044
:1011B00084F8587043B9092A18D8012303FA02F2B7
:1011C00040F221231A4211D0C868800104D5E06D95
:1011D000012262F30D30E065886800EA080040F003
:1011E000040088600020BDE8F08100BFE16D41F49B
:1011F0008011E165C06880015CBF0020BDE8F0811E
:10120000E06D012161F30D30E0650020BDE8F08163
:1012100080B5014690F82500022825D10868D1E95B
:1012200010CE8A6C036823F00E030360136823F466
:1012300080731360026822F0010202600EF01F004A
:10124000012202FA00F0CCF80400D1E9132050602A
:10125000486D68B1026822F480720260D1E916021A
:101260004260002005E000BF0420C863012000E0C8
:101270000020012281F82520002281F8242080BD51
:1012800080B590F8251002292ED10168D0E910CE42
:10129000826C0B6823F00E030B600B6823F00103D4
:1012A0000B60116821F4807111600EF01F020121A2
:1012B00001FA02F2CCF80420D0E913325A60426DF0
:1012C00032B1136823F480731360D0E9162353609E
:1012D00080F82510826B002180F824100AB1904715
:1012E0000021084680BD00BF0421C1630121002206
:1012F00080F8251080F82420084680BDB0B504464B
:1013000000F0F2F8054640F20000C2F2000040682A
:10131000611C18BF044400BF00F0E6F8401BA04267
:10132000FAD3B0BD2DE9F04F82B00D68002D00F06A
:10133000CB8041F2004400F13847C4F60004062295
:101340004FEAB726A04208BF0522052E38BF4FEA54
:10135000B722002401274FF0000E0026009209E07A
:101360000D68013635FA06F20EF1040E04F102049E
:1013700000F0AA8007FA06FB15EA0B08F0D0D1F8B6
:1013800004A003220AF0030CACF10105A240012DD8
:101390006FEA020910D88268CD6802EA0902A54006
:1013A0002A4382604268CAF3001522EA0B02B54064
:1013B0002A43426006E000BFBCF1030F02D14FF0A8
:1013C000030C21E0C2688D6802EA0902A5402A43A5
:1013D000BCF1020FC26017D16FF0030202EA56029D
:1013E00002440EF01C030F25D2F820C005FA03FAC0
:1013F0000D692CEA0A0C05FA03F343EA0C031362A5
:10140000D1F804A00AF0030C02680CFA04F302EA13
:1014100009021A431AF4403F0260A1D041F260036E
:10142000C4F202031A6840F2004942F001021A6055
:101430001A68C4F2010902F001020192019A26F031
:1014400003024FF6084A4A44CFF6FF7A52F80AC020
:101450000EF00C050F23009FAB402CEA030307FAA4
:1014600005F52B4342F80A30D9F808C04B684CEA1E
:101470000805DA0258BF2CEA080540F20C4CC9F8FE
:101480000850C4F2010CDCF800209F0242EA080573
:1014900058BF22EA0805CCF80050D9F804209D0373
:1014A00042EA080758BF22EA0807C9F80470D9F8C9
:1014B0000020DB0342EA080758BF22EA0807C9F800
:1014C000007001274CE700BF02B0BDE8F08F0000BC
:1014D0000069084018BF0120704700001823002A47
:1014E00008BF2823C150704740F2FC10C2F2000030
:1014F0000068704740F2000040F2FC11C2F20000A8
:10150000C2F2000140680A68104408607047000099
:1015100080B5032000F08CF80F2000F009F80028B7
:101520001CBF012080BD00F029F8002080BD000014
:1015300070B540F20006C2F200067168E1B10446DF
:1015400040F21C00C2F200004FF47A720068B2FB55
:10155000F1F1B0FBF1F000F09DFE0F2C4FF0010512
:1015600008D838B94FF0FF3021460022002500F09E
:1015700033F83460284670BD012070BD82B041F25E
:101580005800C4F20200816841F001018160816865
:1015900001F0010101910199016841F08051016060
:1015A000006800F080500090009802B000F0E4B8AD
:1015B000002848BF7047C1B200F01F00012202FAA4
:1015C00000F04EF20012CEF2000242EAD10121F008
:1015D000030108607047000010B54EF60C5CCEF2B7
:1015E000000CDCF80030C3F3022E8EF00704042C4C
:1015F00028BF0424BEF103034FF0FF3E0EFA04F4AB
:1016000038BF0023A14399400EFA03F39A431143D4
:1016100000F00F0200F160430901043A03F564434E
:101620006244002848BF02F10C03197010BD00008D
:101630004EF60C51CEF200010A684FF6FF031A4035
:1016400060F30A2242F0806040F0FD70086070474D
:10165000B0F5007F42D0002840F0808047F21400AF
:10166000C4F2000050F8141CC26E01F4C06122F4F0
:101670008072B1F5806FC2662ED150F8141C012221
:1016800062F34A2140F8141C40F21C01C2F200012E
:101690000968322251434DF68362C4F21B32A1FB2A
:1016A0000212910C0268520511D54A1C0FD0026833
:1016B00052050CD559B10268520508D5012906D04A
:1016C0000268520503D50229A1F10401EAD100689C
:1016D000400544BF032070470020704747F21400C4
:1016E000C4F2000050F8141CC26E01F4C06142F450
:1016F0008072B1F5806FC266EED150F8141C0122E1
:1017000062F34A2140F8141C40F21C01C2F20001AD
:101710000968322251434DF68362C4F21B32A1FBA9
:101720000212910C0268520511D54A1C0FD00268B2
:1017300052050CD559B10268520508D5012906D0C9
:101740000268520503D50229A1F10401EAD100681B
:10175000400544BF03207047BEE700BF47F21400B6
:10176000C4F2000050F8141C022262F34A2140F82F
:10177000141C00207047000047F20800C4F200006B
:10178000016841F480410160704700002DE9F0419B
:1017900082B00446807841F288060007C4F202064F
:1017A00002D400202FE000BF56F8300C10F0805813
:1017B0000BD156F8300C40F0805046F8300C56F8FB
:1017C000300C00F080500190019847F20007C4F2FD
:1017D0000007386840F480703860FFF785FE0546E2
:1017E0003868C00500F1D680FFF77EFE401B022856
:1017F000F6D90320B8F1000F05D156F8301C21F0BE
:10180000805146F8301C2168CA0713D18A0719D4C1
:101810004A071FD40A0725D48A062BD44A0631D496
:101820000A0637D4CA053DD48A0543D44A0549D4AB
:1018300057E000BF3268636822F003021A43326047
:101840008A07E5D53268A36822F00C021A43326099
:101850004A07DFD53268E36822F030021A4332606B
:101860000A07D9D53268236922F0C0021A433260D0
:101870008A06D3D53268636922F440621A43326023
:101880004A06CDD53268A36922F440521A43326029
:101890000A06C7D53268E36922F440421A4332602F
:1018A000CA05C1D53268236A22F440321A43326035
:1018B0008A05BBD53268636A22F440221A4332603B
:1018C0004A050ED53268A36A22F440121A43B3F5D2
:1018D000801F326005D156F87C2C42F4801246F805
:1018E0007C2C0A050ED53268E36A22F440021A43C2
:1018F000B3F5800F326005D156F87C2C42F480128B
:1019000046F87C2CCA040ED53268236B22F0407254
:101910001A43B3F1807F326005D156F87C2C42F433
:10192000801246F87C2C8A040ED53268636B22F054
:1019300040621A43B3F1006F326005D156F87C2C37
:1019400042F4801246F87C2C4A040ED53268A36B10
:1019500022F040621A43B3F1006F326005D156F8AD
:101960007C2C42F4801246F87C2C09040ED5316898
:10197000E26B21F040511143B2F1805F316005D13B
:1019800056F87C1C41F4803146F87C1C02B0BDE85E
:10199000F08100BFB06810F4407010D0216C884214
:1019A0000BD0B068B16820F4407041F48031B16070
:1019B000B16821F48031B160B060C0070CD1B0686B
:1019C000216C20F440700843B0600020B8F1000F93
:1019D0007FF419AF11E700BFFFF786FD054641F21E
:1019E000883700BFB0688007E9D4FFF77DFD401B52
:1019F000B842F7D9FDE600002DE9F04700286DD088
:101A000042F2000AC4F2020A0446DAF800000D4667
:101A100000F00F0088420CD2DAF8000020F00F002E
:101A20002843CAF80000DAF8000000F00F00A842CE
:101A300054D1216841F20808C807C4F2020803D152
:101A4000880740F1D880BDE0606802283AD00328BA
:101A500040D158F8082C920140D5D8F80420D8F885
:101A6000043042F20046C3F3031302F00302D8F835
:101A700004700133C0F2F406032A04BF43F2006687
:101A8000C0F26E16B6FBF3F2D8F80430C7F306279F
:101A90007A43C3F34163022707EB4303B2FBF3F23C
:101AA0004BF20043C0F2C4439A4261D9D8F80020F7
:101AB00012F0F00F51D089075AD5A168002957D1EB
:101AC0004BE000BF58F8081C89035CBF0120BDE84B
:101AD000F08707E058F8081C490503D40120BDE849
:101AE000F08700BFD8F8001001F00C0104293FD0A6
:101AF000D8F8001001F00C01082939D0D8F80010EE
:101B000001F00C010C2933D1D8F80410D8F80420C6
:101B100042F20047C2F3031201F00301D8F8043087
:101B20000132C0F2F407032904BF43F20067C0F298
:101B30006E17B7FBF2F1D8F80420C3F3062359431C
:101B4000C2F34162022303EB4202B1FBF2F14BF21A
:101B50000042C0F2C44291420AD9D8F800100822CB
:101B600062F307114FF00109C8F8001002E000BF4E
:101B70004FF00009D8F8001021F003010843C8F81D
:101B80000000FFF7B1FC064641F28837D8F80000A4
:101B9000616800F00C00B0EB810F07D0FFF7A4FCE8
:101BA000801BB842F2D90320BDE8F087216888077E
:101BB00008D4B9F1000F1ED0D8F8000020F0F000D2
:101BC00017E000BF480705D5D8F8000040F4E060F2
:101BD000C8F80000080706D5D8F80000072262F30D
:101BE0000D20C8F80000D8F80000A26820F0F0002E
:101BF0001043C8F80000DAF8000000F00F00A84217
:101C00001BD9DAF8000020F00F002843CAF80000C2
:101C1000FFF76AFC064641F2883700BFDAF8000099
:101C200000F00F00A84207D0FFF75EFC801BB8420F
:101C3000F4D90320BDE8F0872168480707D5D8F814
:101C40000000E26820F4E0601043C8F800000807D4
:101C500008D5D8F80000216920F4605040EAC1009E
:101C6000C8F80000D8F8000042F20041C0F2F401C8
:101C700000F00C00042808462DD0D8F8000000F031
:101C80000C00082843F20060C0F26E1023D0D8F890
:101C9000002002F00C020C2A1CD1D8F80420D8F83D
:101CA000043002F00302C3F30313D8F804700133C5
:101CB000032A08BF0146B1FBF3F0D8F80410C7F3BC
:101CC0000627C1F341610222784302EB4101B0FBD8
:101CD000F1F000E00020D8F8001048F28462C1F36F
:101CE0000311C0F60002515C40F21C0201F01F011A
:101CF00020FA01F140F20000C2F200000068C2F2D6
:101D000000021160BDE8F047FFF712BC40F21C0072
:101D100041F20801C2F20000C4F202010068096841
:101D200048F29462C1F30221C0F60002515C01F056
:101D30001F01C8407047000040F21C0041F208013A
:101D4000C2F20000C4F202010068096848F294621D
:101D5000C1F3C221C0F60002515C01F01F01C8406E
:101D60007047000080B541F20C01C4F2020151F845
:101D7000040C42F20042C0F2F40200F00C0004280D
:101D8000104608BF80BD51F8040C00F00C00082874
:101D900043F20060C0F26E1022D051F8043C03F010
:101DA0000C030C2B1CBF002080BDD1F800C00B68B9
:101DB0000CF0030CC3F3031E0B680EF1010EBCF113
:101DC000030F08BF02460968B2FBFEF0C3F3062307
:101DD000C1F341610222584302EB4101B0FBF1F033
:101DE00080BD00002DE9F04182B0002800F006819E
:101DF0000446007841F20006C007C4F2020655D13D
:101E00002078800774D42078000700F1978020782C
:101E1000400700F1B7802078800600F10781E06973
:101E2000002840D0B16801F00C010C2940F0568127
:101E3000012800F0E380F068216A00F003028A4282
:101E400040F0DC80626A6FF00F0300F0F00103EBFA
:101E50000212914240F0D280A16A00F4FE42B2EB3D
:101E6000012F40F0CB80E16A00F07842B2EBC16F05
:101E700040F0C480226B0023CFF6E07303EA0252E5
:101E800000F4C001A2F50012914240F0B780616BEE
:101E90004FF07E4202EA016100F0C06001F17E4134
:101EA000884240F0AB800020F1E100BFB06800F054
:101EB0000C01F06808295BD0032281F00C0122EAB2
:101EC00000000844B0FA80F0400951D16068B0F5D4
:101ED000803F07D0B0F5A02F40F0D680306840F4A6
:101EE00080203060306840F480303060D7E000BF40
:101EF000B068F16800F00C00042869D001F003011B
:101F000080F00C0081F002010844B0FA80F0400932
:101F10005ED1E1683068002900F0CE8040F4807026
:101F20003060FFF7E1FA05463068400500F1EC80CB
:101F3000FFF7DAFA401B0228F6D920E16169D6F8EA
:101F40009400002900F08C8040F00100C6F8940055
:101F5000FFF7CAFA054600BFD6F8940080073FF5A0
:101F600056AFFFF7C1FA401B0228F5D907E100BFC1
:101F7000306880037FF544AF606800287FF440AF8D
:101F80003CE000BFB06D10F0805808D1B06D40F05B
:101F90008050B065B06D00F080500190019847F21C
:101FA0000007C4F200073868C0052BD4386840F435
:101FB00080703860FFF798FA054600BF3868C005A2
:101FC00020D4FFF791FA401B0228F7D9D7E000BFD1
:101FD0003068400501D5E06880B17068216920F063
:101FE000FE4040EA0160706040F20000C2F2000072
:101FF0000068FFF79DFA00283FF405AF012002B00A
:10200000BDE8F081A068012808D0052840F09A803A
:10201000D6F8900040F00400C6F89000D6F8900082
:1020200040F00100C6F890009AE000BFA169D6F820
:102030009800002970D040F00100C6F89800FFF722
:1020400053FA0546D6F8980080073FF5E8AEFFF74B
:102050004BFA401B02284FF00300F3D917E100BFF1
:1020600020F00100C6F89400FFF73EFA054600BFD5
:10207000D6F8940080077FF5CAAEFFF735FA401B0B
:102080000228F5D97BE000BF3168002821F48031B7
:102090003160316821F48021316000F08F80FFF7DA
:1020A00023FA0546306880033FF5AAAEFFF71CFA15
:1020B000401B6428F6D962E020F480703060FFF79E
:1020C00013FA0546306840057FF59DAEFFF70CFA20
:1020D000401B02284FF00300F4D9D8E031680228F1
:1020E00021F0807131604FD1FFF7FEF9054600BF46
:1020F0003068800140F18E80FFF7F6F9401B02281E
:102100004FF00300F4D9C2E07068216920F0FE406E
:1021100040EA0160706076E620F00100C6F89800A1
:10212000FFF7E2F9054600BFD6F8980080077FF573
:1021300076AEFFF7D9F9401B02284FF00300F3D920
:10214000A5E000BFD6F89010002821F00101C6F8E4
:102150009010D6F8901021F00401C6F890103DD0F0
:10216000FFF7C2F9054641F2883700BFD6F8900064
:10217000800745D4FFF7B8F9401BB842F6D90320D1
:1021800002B0BDE8F08100BFF0684FF6FF7120F0AB
:102190000300F060F068CFF6EE610840F060FFF7F2
:1021A000A3F90446306880017FF57DAEFFF79CF906
:1021B000001B02284FF00300F4D968E0FFF794F900
:1021C000054600BF306880037FF51AAEFFF78CF933
:1021D000401B64284FF00300F4D958E0FFF784F95E
:1021E000054641F2883700BFD6F89000800707D532
:1021F000FFF77AF9401BB8424FF00300F4D946E0EC
:10220000B8F1000F7FF407AEB06D20F08050B065DC
:1022100001E600BFF06848F20C01C0F29F1104F122
:10222000200700EA010C8ECF6FF00F00D4E90C54A8
:1022300000EB02100022CFF6E07241EA0C0102EA44
:1022400005520843A2F500124FF07E4540EA0320F4
:1022500005EA0465104305F17E4540EAC76028435E
:10226000F060306840F080703060F06840F080705E
:10227000F060FFF739F90446306880013FF513AE8E
:10228000FFF732F9001B02284FF00300F4D902B027
:10229000BDE8F081411E0020B0EB116F1CBF012092
:1022A00070474EF21002CEF2000251604EF62351FA
:1022B000CEF20001F0230B7007219060116070478F
:1022C000704700007047000070470000F0B590F8BC
:1022D0003C20012A04BF0220F0BDD1E90232D1E93D
:1022E00000CE22F47C5223F470531A4348F2FF7359
:1022F000CFF6F07303EA0E0342EA030E0A692CF4E8
:1023000077234EEA030C22F476224B6942EA0C0250
:102310001A430B6B22F4742C23F470238A6943EA6A
:102320000C0343EA0243026843F2004EC4F2010E7A
:1023300042F6004C7245C4F2010C01D0624503D153
:10234000CC6923F080532343724501D0624517D1F5
:1023500001F12006002770CECFF6F04723F07C7302
:1023600007EA0656334324F000742343724543EAD8
:10237000050301D0624503D1C96A23F000530B4322
:102380000021536480F83C100846F0BD70470000FF
:10239000704700007047000070470000002804BF2D
:1023A0000120704710B5044690F83D0028B9002080
:1023B00084F83C00204600F023F8022084F83D0019
:1023C0002068211D04F0D0F9012084F8480084F829
:1023D0003E0084F83F0084F8400084F8410084F80F
:1023E000420084F8430084F8440084F8450084F8EF
:1023F000460084F8470084F83D00002010BD00002E
:1024000080B582B0006844F60001C4F20101884240
:102410001CBF02B080BD41F26000C4F2020001683E
:10242000002241F4802101600068002100F4802036
:10243000019001981A20FFF7CFF81A2002B0BDE8EA
:102440008040FFF7B5B800007047000010B5016884
:1024500004460869800744BFC8685FEA807061D499
:102460000869400744BFC8685FEA407066D40869DD
:10247000000744BFC8685FEA00706DD40869C006F1
:1024800044BFC8685FEAC06072D40869C0071CBF57
:10249000C8685FEAC07079D10869000644BFC8689F
:1024A0005FEA00607AD40869C00544BFC8685FEA83
:1024B000006000F17B800869400644BFC8685FEA9D
:1024C000406000F17B800869800644BFC8685FEA0D
:1024D000806000F17B800869C00244BFC8685FEA81
:1024E000C02000F17B800869800244BFC8685FEAB1
:1024F000802000F17B800869400244BFC8685FEA21
:10250000402000F17B800869000246BFC8685FEA8E
:10251000002010BD6FF4000220460A61BDE81040A3
:10252000FFF73ABF6FF00200086101202077886949
:1025300080076BD02046FFF787FF6DE06FF0040047
:10254000086102202077886910F4407F68D0204617
:10255000FFF77AFF6AE000BF6FF00800086104200F
:102560002077C869800765D02046FFF76DFF67E0D8
:102570006FF01000086108202077C86910F4407FD0
:1025800062D02046FFF760FF64E000BF6FF00100FB
:102590000861204600F078FB21687DE76FF080003D
:1025A00008612046FFF78EFE21687CE76FF480709B
:1025B00008612046FFF784FE21687CE76FF0400049
:1025C0000861204600F062FB21687CE76FF0200084
:1025D00008612046FFF778FE21687CE76FF48010E1
:1025E00008612046FFF7D4FE21687CE76FF40010F5
:1025F00008612046FFF7CAFE21687CE76FF480007F
:1026000008612046FFF7C6FE21687CE7204600F0FF
:1026100025F8204600F040FA2168002020771FE7C7
:10262000204600F01BF8204600F036FA2168002012
:1026300020771CE7204600F011F8204600F02CFA25
:1026400021680020207719E7204600F007F820468F
:1026500000F022FA21680020207716E7704700007A
:102660002DE9F04190F83C30012B04BF0220BDE879
:10267000F0814FEAB202052A00F28A81DFE812F007
:1026800006005000A400F8004C01900103681A6A8B
:10269000A3F1804622F001021A621D6A1A465C68A4
:1026A00052F818CF8F68A6F59636D1F800E025F0DD
:1026B00002054FEAB626072E45EA07050AD8012784
:1026C000B74017F0E50F1FBFCF6825F00C0527F0C6
:1026D00004073D43072E0BD8012707FA06F616F02C
:1026E000E50F1FBF24F44074D1E9056734433C4330
:1026F0004FF68C76CFF6FE760CEA060747EA0E0711
:102700005C609F614F6809695F631D629F6947F064
:1027100008079F619F6927F004079F617DE100BF63
:10272000036843F200461A6AC4F2010622F010025E
:102730001A621D6A1A46D3F804C052F8188FB342C1
:102740008E68D1F800E025F0200545EA061505D091
:1027500042F60046C4F20106B34207D1CE686FF0DC
:10276000400725F0C00507EA06163543A3F1804669
:10277000A6F596364FEAB626072E0CD8012707FA9B
:1027800006F616F0E50F1FBFD1E905672CF440648B
:10279000374344EA870C48F6FF44CFF6FF6404EA67
:1027A000080444EA0E27C3F804C09F614F68096912
:1027B0009F631D629F6947F400679F619F6927F4CB
:1027C00080679F6128E100BF036843F200461A6AF0
:1027D000C4F2010622F480721A621D6A1A46D3F806
:1027E00004C052F81CEFB3428E68D1F8008025F483
:1027F000007545EA062505D042F60046C4F20106FA
:10280000B34207D1CE6840F2FF47360225F4406557
:10281000BE433543A3F18046A6F596364FEAB62669
:10282000072E0CD8012707FA06F616F0E50F1FBF92
:10283000D1E905672CF44054374344EA071C4FF6AE
:102840008C74CFF6FE740EEA040747EA0807C3F853
:1028500004C0DF614F680969DF631D62DF6947F00B
:102860000807DF61DF6927F00407DF61D5E000BFFB
:10287000036843F200461A6AC4F2010622F4805249
:102880001A621D6A1A46D3F804C052F81C8FB3426C
:102890008E68D1F800E025F4005545EA063505D0EC
:1028A00042F60046C4F20106B34207D1CE6844F6B0
:1028B000FF77360325F44045BE433543A3F18046F8
:1028C000A6F596364FEAB626072E0CD8012707FA4A
:1028D00006F616F0E50F1FBFD1E905672CF440445A
:1028E000374344EA871C48F6FF44CFF6FF6404EA06
:1028F000080444EA0E27C3F804C0DF614F68096981
:102900001F641D62DF6947F40067DF61DF6927F438
:102910008067DF6180E000BF03681A6AA3F1804727
:1029200022F480321A621A46A7F59637D3F820802F
:102930005D6852F850EFD1F800C08E684FEAB727B3
:10294000072F09D80124BC4014F0E50F1EBF4C69C5
:1029500025F4803545EA042528F4003444EA064489
:102960004FF68C76CFF6FE7603360EEA060747EA78
:102970000C075D601F654F6809699F641C621F6DCD
:1029800047F008071F651F6D27F004071F6544E027
:102990000121002280F83C200846BDE8F08100BFFC
:1029A00003681A6AA3F1804722F480121A621A4659
:1029B000A7F59637D3F820805D6852F850EFD1F82C
:1029C00000C08E684FEAB727072F09D80124BC4002
:1029D00014F0E50F1EBF4C6925F4802545EA8425D7
:1029E00028F4001444EA065448F6FF46CFF6FF6682
:1029F00006F540760EEA060747EA0C275D601F657C
:102A00004F680969DF641C621F6D47F400671F652A
:102A10001F6D27F480671F65090213681943116051
:102A20000021002280F83C200846BDE8F08100002B
:102A3000002804BF0120704710B5044690F83D00FF
:102A400028B9002084F83C00204600F023F802203A
:102A500084F83D002068211D03F086FE012084F8E3
:102A6000480084F83E0084F83F0084F8400084F871
:102A7000410084F8420084F8430084F8440084F85C
:102A8000450084F8460084F8470084F83D000020A3
:102A900010BD0000704700007047000061B10A1FC0
:102AA0004FEAB202032A17D8DFE802F0021A1E2208
:102AB00000F13F031EE000BF90F83E20012A1CBF3A
:102AC00001207047022280F83E204FEAB103032B19
:102AD0004FF0010241D84CE000F143030AE000BF8F
:102AE00000F1400306E000BF00F1410302E000BF37
:102AF00000F142031B78012B1CBF01207047032A01
:102B00000ED8DFE802F00317212D00BF022280F863
:102B10003F204FEAB103032B4FF001021DD828E0FC
:102B2000022280F843204FEAB103032B4FF0010249
:102B300013D81EE0022280F840204FEAB103032B95
:102B40004FF0010209D814E0022280F841204FEA38
:102B5000B103032B4FF001020BD91046704700BFA1
:102B6000022280F842204FEAB103032B4FF001020A
:102B7000F3D849F6840C0068C0F6000C5CF823C05A
:102B8000C36801F01F0143EA0C03C360036A02FA41
:102B900001F123EA01020262026A0A43A0F18041C4
:102BA000A1F596314FEAB1210629026246D80122E9
:102BB00002FA01F111F0650F40D0416C42F6FF328C
:102BC000C4F2010241F400419042416410DCB0F1D2
:102BD000804F1FD040F20041C4F20001884219D05A
:102BE00040F60001C4F20001884213D01EE000BF8D
:102BF00042F60041C4F2010188420BD044F20001C8
:102C0000C4F20101884205D043F20041C4F201013F
:102C100088420BD181680722C0F2010211400629C7
:102C20004FF0000299D0B1F5803F96D001680022A4
:102C300041F0010101601046704700BF42F6FF31CC
:102C4000C4F201018842C2DD43F6FF71C4F2010102
:102C5000884207DC42F60041C4F201018842D3D128
:102C6000D8E700BF44F20001C4F201018842D1D08C
:102C700044F60001C4F20101884202BF416C41F4F4
:102C800000414164D2E70000704700007047000037
:102C900090F88010012904BF022070472421C0F859
:102CA000841002681168136823F00103136021F097
:102CB00000530021416613602022C0F8842080F870
:102CC0008010084670470000704700007047000001
:102CD000B0B590F88020012A04BF0220B0BD2422A4
:102CE000C0F884200268D0F864E0D2F800C013680D
:102CF000BEF1000F23F001031360936823F06063BB
:102D000041EA0301916019D09368916849F6B40EC5
:102D1000490FC0F6000E49F6BC051EF80140C0F68A
:102D20000005695CC3F34263E400B4FBF1F11EF8F3
:102D30000340EB5CE500B5FBF3F301E00121012367
:102D4000A0F86A102021A0F86830C2F800C0C0F8CE
:102D50008410002180F880100846B0BDB0B590F80E
:102D60008020012A04BF0220B0BD2422C0F88420A4
:102D70000268D0F864E0D2F800C01368BEF1000F1A
:102D800023F001031360936823F0604341EA0301D9
:102D9000916019D09368916849F6B40E490FC0F656
:102DA000000E49F6BC051EF80140C0F60005695C3E
:102DB000C3F34263E400B4FBF1F11EF80340EB5CA3
:102DC000E500B5FBF3F301E001210123A0F86A104F
:102DD0002021A0F86830C2F800C0C0F8841000219B
:102DE00080F880100846B0BD7047000070470000B2
:102DF0007047000070B5016840F62F03CA690446A9
:102E000008688E681340202B0CD100F0200306F0D8
:102E100080555B1917D0216F00297BD02046BDE873
:102E20007040084740F60F031A420CD00123C1F24C
:102E3000000306EA030C40F22013C0F200430340F3
:102E400013EB0C0368D1E36E012B05D112F01003D4
:102E500018BF10F010034DD1D3020BD516F4800328
:102E600008D04FF4801220460A62BDE87040FFF798
:102E7000BDBF00BF110606D500F0800106F40003B7
:102E8000C91840F02B82510640F1068110F0400134
:102E900000F00281206850E8000F216820F0400017
:102EA00041E80002DAB1206850E8000F216820F004
:102EB000400041E8000292B1206850E8000F21680C
:102EC00020F0400041E800024AB1206850E8000FBD
:102ED000216820F0400041E80002002ADAD12020D9
:102EE0000021C4F8840020466167BDE8704000F00E
:102EF00035BC00BF102008628868400618D4B4F8BA
:102F00005C00B4F85E10B4F85E20002A18BF884256
:102F100040F0FC8170BD00BFD30718BF10F4807370
:102F200040F0C680930706F0010E00F1CD80D6E098
:102F3000E06F01684A6893B2002BEBD0B4F85C00F4
:102F40008342E7D2A4F85E200968890600F1A080D8
:102F5000206850E8000F216820F4807041E80002EA
:102F6000DAB1206850E8000F216820F4807041E851
:102F7000000292B1206850E8000F216820F48070B0
:102F800041E800024AB1206850E8000F216820F4AF
:102F9000807041E80002002ADAD1206850E8020F70
:102FA000216820F0010041E80202C2B3206850E825
:102FB000020F216820F0010041E802027AB3206884
:102FC00050E8020F216820F0010041E8020232B30C
:102FD000206850E8020F216820F0010041E8020259
:102FE000002ADAD11BE000BF206850E8020F2168F8
:102FF00020F0400041E80202DAB1206850E8020FF8
:10300000216820F0400041E8020292B1206850E8B7
:10301000020F216820F0400041E802024AB1206816
:1030200050E8020F216820F0400041E80202002A27
:10303000DAD12020C4F888000020E066206850E83B
:10304000000F216820F0100041E80002DAB120688A
:1030500050E8000F216820F0100041E8000292B112
:10306000206850E8000F216820F0100041E80002BD
:103070004AB1206850E8000F216820F0100041E8B4
:103080000002002ADAD1E06FFEF7C2F8B4F85C0063
:10309000B4F85E10401AB2E1110240F1258110F03F
:1030A000804100F021812046BDE87040FFF79CBEC2
:1030B00001230B62D4F88C3043F00103C4F88C3048
:1030C000930706F0010E0AD5BEF1000F07D00223C8
:1030D0000B62D4F88C3043F00403C4F88C305307EF
:1030E0000AD5BEF1000F07D004230B62D4F88C3050
:1030F00043F00203C4F88C3013070CD500F0200312
:1031000053EA0C0307D008230B62D4F88C3043F049
:103110000803C4F88C3013050BD510F0806308D079
:103120004FF400630B62D4F88C3043F02003C4F8F2
:103130008C30D4F88C30002B3FF4ECAE12F020022F
:103140001EBF00F0200006F0805210EB020040F09D
:103150005D81D4F88C00896800F0280001F04001FE
:10316000401807D12046FFF743FE0020C4F88C002A
:1031700070BD00BF206850E8000F216820F49070F7
:1031800041E80002DAB1206850E8000F216820F41D
:10319000907041E8000292B1206850E8000F216869
:1031A00020F4907041E800024AB1206850E8000F16
:1031B000216820F4907041E80002002ADAD14FF62D
:1031C000FE70CEF6FF7000BF216851E8021F226832
:1031D000014042E80213C3B1216851E8021F22688E
:1031E000014042E8021383B1216851E8021F2268BE
:1031F000014042E8021343B1216851E8021F2268EE
:10320000014042E80213002BDED1E06E012824D1F8
:10321000206850E8000F216820F0100041E800020B
:10322000DAB1206850E8000F216820F0100041E872
:10323000000292B1206850E8000F216820F01000D1
:1032400041E800024AB1206850E8000F216820F0F0
:10325000100041E80002002ADAD12020C4F88800DA
:103260000020E066216820678868400648D500BFD6
:10327000206850E8020F216820F0400041E8020277
:10328000DAB1206850E8020F216820F0400041E8E0
:10329000020292B1206850E8020F216820F040003D
:1032A00041E802024AB1206850E8020F216820F08C
:1032B000400041E80202002ADAD1E06F00B346F68E
:1032C0005D11C0F600018163FDF7DAFF00283FF4CD
:1032D00021AEE06F816BBDE870400847616F002947
:1032E0007FF49CAD16E600BFD1017FF513AEB0F1BF
:1032F000FF3FC8BF70BD2046BDE87040FFF7E6BC89
:103300002046BDE87040FFF773BD00BF401A00BF04
:10331000216851E8001F226821F4907142E80013EF
:10332000DBB1216851E8001F226821F4907142E866
:10333000001393B1216851E8001F226821F49071B5
:1033400042E800134BB1216851E8001F226821F4C4
:10335000907142E80013002BDAD14FF6FE71CEF6E1
:10336000FF7100BF226852E8022F23680A4043E839
:103370000226C6B1226852E8022F23680A4043E8B9
:10338000022686B1226852E8022F23680A4043E8E9
:10339000022646B1226852E8022F23680A4043E819
:1033A0000226002EDED12021C4F888100021E1661B
:1033B000216700BF216851E8001F226821F0100139
:1033C00042E80013DBB1216851E8001F226821F0B8
:1033D000100142E8001393B1216851E8001F2268F0
:1033E00021F0100142E800134BB1216851E8001FA1
:1033F000226821F0100142E80013002BDAD181B2DB
:103400002046BDE87040FFF75FBC00BF226F002A76
:103410003FF49FAE2046904721689AE6B0B582B04F
:10342000B0B10446D0F8840028B9002084F88000A8
:10343000204600F059F82420C4F884002068016870
:1034400021F001010160204603F08CFE012803D128
:10345000012002B0B0BD00BFA06A10B1204603F049
:1034600009FA2068416821F490414160816821F0A7
:103470002A018160016841F0010101600020C4F867
:103480008C00FEF731F8216805460A6812070CD552
:103490006FF07E4C20464FF4001100222B46CDF8F1
:1034A00000C004F0F3F878B92168086840070FD528
:1034B0006FF07E4C20464FF4800100222B46CDF861
:1034C00000C004F0E3F818B1032002B0B0BD00BFA3
:1034D0002020C4F88400C4F888000020E06684F846
:1034E000800002B0B0BD000010B596B0044668463A
:1034F00008303C21FCF7C4FE206843F60001C4F20A
:103500000101884202D016B010BD00BF012000901A
:10351000002468460194FEF739F9002818BFFDF72A
:1035200019FA41F24C00C4F20200416941F48041B1
:103530004161416901F4804111911199016841F0A3
:1035400001010160006811A900F0010011901198BB
:103550004FF4C06011900220CDE9120407201590AD
:103560004FF090401494FDF7DDFE2520002100224D
:10357000FEF732F82520FEF71BF816B010BD00004C
:1035800080B5D0F88830202B0CD100294FF00103F2
:1035900018BF002A02D1184680BD00BF90F88030C5
:1035A000012B01D1022080BD012380F8803000234F
:1035B000C366D0F800C048F20003C4F200039C4583
:1035C00034D0DCF804301B0230D500BF036853E868
:1035D00000CFD0F800E04CF080634EE8003CBCF136
:1035E000000F23D0036853E800CFD0F800E04CF080
:1035F00080634EE8003CBCF1000F17D0036853E82D
:1036000000CFD0F800E04CF080634EE8003CBCF105
:10361000000F0BD0036853E800CFD0F800E04CF067
:1036200080634EE8003CBCF1000FCFD103F0ECFE0C
:103630000023184680BD0000006843F60001C4F274
:103640000101884218BF704740F22001C2F2000118
:1036500011F8020F0A2211F8013CC1F8422040F291
:103660007002C2F20002D05440F26C1003F1010C5F
:10367000C2F20000012201F801CCFFF781BF000077
:103680002DE9F04182B00446D0F8840020280BD107
:103690000D4600294FF001005CD01746002A59D092
:1036A00094F88000012803D1022002B0BDE8F08127
:1036B000012084F880000020C4F88C002120984666
:1036C000C4F88400FDF710FFA4F85470A4F85670F5
:1036D000A1680746B1F5805F01D1206910B12E467F
:1036E000002500E00026002084F880000CE000BFE8
:1036F00035F8020B21686FF35F2088620026B4F86A
:1037000056000138A4F85600B4F8560080B120469F
:10371000802100223B46CDF8008003F0B7FF80B93E
:10372000002EE5D016F8010B21688862E7E700BF9C
:103730002046402100223B46CDF8008003F0A6FF42
:1037400020B1032002B0BDE8F08100BF2020C4F802
:103750008400002002B0BDE8F08100007047000046
:10376000FEE7000040F21841C4F60001D1F8FC3336
:103770000A694FF0000C42F400720A610A6942F4CF
:1037800080720A610A6842F020020A602022C1F8B1
:10379000FC230A6942F020020A6100BF00BF00BF9B
:1037A0000A6842F020020A600A6842F480720A60E5
:1037B000C1F8FCC30A6942F020020A6100BF00BFE1
:1037C00000BF0A6842F020020A600A6842F4807270
:1037D0000A609AB2C1F8FC23D1F8FC330A6942F4BA
:1037E00000720A610A6942F480720A610A6842F052
:1037F00020020A602122C1F8FC230A6942F020025B
:103800000A6100BF00BF00BF0A6842F020020A60E0
:103810000A6842F480720A60C1F8FCC30A6942F087
:1038200020020A6100BF00BF00BF0A6842F0200208
:103830000A600A6842F480720A609AB2C1F8FC23F6
:10384000D1F8FC230B6992B243F400730B610B694E
:1038500043F480730B610B6843F020030B60222359
:10386000C1F8FC330B6943F020030B6100BF00BFBC
:1038700000BF0B6843F020030B600B6843F48073B8
:103880000B6000BF00BF00BF0B6843F400730B6008
:10389000C1F8FC234FF49632D1F8FCC30B69043A0B
:1038A00043F400730B610B6843F480730B600B6887
:1038B00043F020030B60C1F8FC030B6943F02003C5
:1038C0000B6100BF00BF00BF0B6843F020030B601B
:1038D0000B6843F480730B6000BF00BF00BF0B6830
:1038E00043F400730B601FFA8CF3C1F8FC33D1F87A
:1038F000FCC30B6943F400730B610B6843F48073E2
:103900000B600B6843F020030B60C1F8FC030B69EC
:1039100043F020030B6100BF00BF00BF0B6843F002
:1039200020030B600B6843F480730B6000BF00BF83
:1039300000BF0B6843F400730B601FFA8CF3C1F8EF
:10394000FC33D1F8FCC30B6943F400730B610B68C3
:1039500043F480730B600B6843F020030B60C1F8E5
:10396000FC030B6943F020030B6100BF00BF00BFE5
:103970000B6843F020030B600B6843F480730B600B
:1039800000BF00BF00BF0B6843F400730B601FFA59
:103990008CF3C1F8FC33D1F8FCC30B6943F400731A
:1039A0000B610B6843F480730B600B6843F02003DA
:1039B0000B60C1F8FC030B6943F020030B6100BFEF
:1039C00000BF00BF0B6843F020030B600B6843F49B
:1039D00080730B6000BF00BF00BF0B6843F400732F
:1039E0000B601FFA8CF3C1F8FC337FF455AF7047BE
:1039F0002DE9F0410A78FAB148F29C6804464D1C62
:103A0000002740F23F16C0F6000800BFA2F12000D8
:103A1000C1B2490051FA80F008EB0012B1B2204661
:103A200000F00CF8EA5D002A08BFBDE8F081103E06
:103A3000132F07F10107E9D3BDE8F0812DE9F04F1D
:103A400040F21843C4F60003D3F8FC731E694FF02C
:103A5000200C46F400761E611E69BFB246F48076E3
:103A60001E611E684FF0210E46F020061E60C3F84E
:103A7000FCC31E6940F2180946F020061E6100BF13
:103A800000BF00BF1E6840F26C0A46F020061E60B0
:103A90001E684FF0000B46F480761E60C3F8FC03EE
:103AA0001E694FF0220846F020061E6100BF00BFCD
:103AB00000BF1E68C2F2000946F020061E601E68A4
:103AC000C2F2000A46F480761E60C3F8FC73D3F895
:103AD000FC431F69A4B247F400771F611F6947F4D4
:103AE00080771F611F6847F020071F60C3F8FCE361
:103AF0001D6945F020051D6100BF00BF00BF1D68A6
:103B000045F020051D601D6845F480751D60C3F8F3
:103B1000FC131D6945F020051D6100BF00BF00BFFB
:103B20001D6845F020051D601D6845F480751D6009
:103B3000C3F8FC43D3F8FC531E69ADB246F40076DB
:103B40001E611E6946F480761E611E6846F02006DE
:103B50001E60C3F8FC831E6946F020061E6100BF8C
:103B600000BF00BF1E6846F020061E601E6846F4B7
:103B700080761E6000BF00BF00BF1E6846F400765E
:103B80001E60C3F8FC53002532F81B60EE40F607B8
:103B9000564608BF4E463788D3F8FC631C6944F488
:103BA00000741C611C6844F480741C601C6844F040
:103BB00020041C60C3F8FC731C6944F020041C61E1
:103BC00000BF00BF00BF1C6844F020041C601C68DC
:103BD00044F480741C6000BF00BF00BF1C6844F444
:103BE00000741C60B4B2C3F8FC4332F81B40EC40D4
:103BF000A407544658BF4C462488D3F8FC631F6979
:103C0000023547F400771F611F68102D47F4807755
:103C10001F601F6847F020071F60C3F8FC431C6942
:103C200044F020041C6100BF00BF00BF1C6844F0CA
:103C300020041C601C6844F480741C6000BF00BF3A
:103C400000BF1C6844F400741C60B4B2C3F8FC43A9
:103C50009AD1D3F8FC531C69013044F400741C6100
:103C60001C690BF1010B44F480741C611C68BBF1EE
:103C7000180F44F020041C60C3F8FCC31C6944F016
:103C800020041C6100BF00BF00BF1C6844F020047A
:103C90001C601C6844F480741C60C4B2C3F8FC430C
:103CA0001C6944F020041C6100BF00BF00BF1C68F9
:103CB00044F020041C601C6844F480741C60ACB2A6
:103CC000C3F8FC43D3F8FC531C6944F400741C6132
:103CD0001C6944F480741C611C6844F020041C605E
:103CE000C3F8FCE31C6944F020041C6100BF00BF62
:103CF00000BF1C6844F020041C601C6844F48074FD
:103D00001C60C3F8FC131C6944F020041C6100BF54
:103D100000BF00BF1C6844F020041C601C6844F411
:103D200080741C60ACB2C3F8FC4308BFBDE8F08FE0
:103D300000E700002DE9F04F8BB0002641F24C0067
:103D40000596C4F20200016840F2184541F00401F2
:103D500001600168C4F6000501F0040106910699AE
:103D6000016801AC41F001010160016840F61409ED
:103D700001F00101069106990168C4F6000941F0BD
:103D8000020101600068214600F0020006900698DA
:103D90004FF44870019001200290A5F1180001270E
:103DA000CDE90366FDF7BEFA4FF48070CDE9010757
:103DB0004FF090402146CDE90366FDF7B3FA4FF688
:103DC000FF7005F57A7406904FF0030806A92046A7
:103DD0000A964FF6FF7B0797CDE90868FDF7A2FA30
:103DE0004FF6004ACFF6FF7A55F80A0006A940F4CC
:103DF000807045F80A0028684FF6FF7740F4087095
:103E00002860286940F400702861286940F48070B7
:103E10002861286840F020002860C9F800602869FF
:103E200040F02000286100BF00BF00BF286840F0BC
:103E300020002860286840F48070286020460A9698
:103E4000CDF818B0CDF82480CDE90766FDF76AFA01
:103E50004FF6104BCFF6FF7B55F80B0007A940F447
:103E6000807045F80B0000BF00BF00BFD5F8F89385
:103E700055F80A0040F4807045F80A00012081E8F6
:103E8000410106A920460A960697FDF74BFA2868D5
:103E900048F2302140F40070286040F2B000C2F2D5
:103EA0000000A0F800900088884203D100F076FA64
:103EB00002E000BF01F078F82869002640F40070A5
:103EC000286128694FF6FF7840F4807028612868DF
:103ED0004FF0030940F02000286040F61400C4F6BB
:103EE00000000660286906A940F02000286100BF94
:103EF00000BF00BF286840F020002860286840F418
:103F00008070286020460A96CDE90686CDE90869CA
:103F1000FDF708FA55F80B0007A940F4807045F842
:103F20000B0000BF00BF00BFD5F8F87355F80A00BA
:103F300040F4807045F80A00012081E8410206A99A
:103F400020460A96CDF81880FDF7ECF9286840F471
:103F50000070286040F2B000C2F2000007800BB091
:103F6000BDE8F08F81B0ADF80200BDF8020040F26C
:103F70001801C2F20001088001B0704781B0ADF8AD
:103F80000200BDF8020040F26C01C2F2000108809C
:103F900001B0704710B540F22004C2F20004E06B9B
:103FA00000B110BD207864210128E16322D00028EF
:103FB00018BF10BD2EA13020FFF71AFD94ED020BA3
:103FC0001C3453EC102B30A1204603F0D9FE4820BE
:103FD0002146FFF70DFD40F20800C2F20000026822
:103FE0002FA1204603F0CCFE60202146BDE8104002
:103FF000FFF7FEBC0DA13020FFF7FAFC40F20800ED
:10400000C2F2000090ED020B1C3453EC102B0DA1FA
:10401000204603F0B5FE48202146FFF7E9FC0EA438
:1040200060202146BDE81040FFF7E2BC20202020A0
:1040300020202020504152412020202020202020DC
:104040000000000020202020205650313A252E313B
:104050006656202020202000202020202020202004
:1040600020202020202020202020202000000000D0
:1040700020202020202020204441544120202020A6
:104080002020202000000000202020202056523335
:10409000373A252E326656202020202000000000CE
:1040A00020202020205041373A2564487A202020C3
:1040B00020200000B0B588B040F2B40040F20011FA
:1040C000C2F20000C5F2000100244FF400320425C2
:1040D00080E816000121CDE90644C0E90344C0E9A7
:1040E00005458483016280F82440C0E90B4480F8D0
:1040F0003840C46380F84040FCF776FE002818BFC3
:10410000FCF728FC48F20000C3F6F060009006209F
:10411000CDE901047F20CDE9030540F2B400C2F2ED
:10412000000069460594FCF785FC002818BFFCF7E1
:1041300011FC08B0B0BD00002DE9F04387B00027A6
:1041400041F24C000697C4F20200016840F60005F7
:1041500041F0040101600168C4F6000501F00401AA
:10416000019101990168002241F02001016001687C
:104170004FF47F4601F0200101910199016841F05F
:1041800001010160016801F00101019101990168DB
:1041900041F002010160016801F002010191019901
:1041A000016841F00801016000684FF47F4100F0B0
:1041B0000800019001982846FDF790F905F5806404
:1041C0002046042100224FF00408FDF787F90296EB
:1041D00002AE4FF0010928463146CDE90397059715
:1041E000FDF7A0F84FF090403146CDE902970497D3
:1041F000FDF798F80720CDE90207A5F58060314664
:104200000497FDF78FF820463146CDE90289CDE9C4
:104210000477FDF787F807B0BDE8F083B0B59AB032
:1042200044F6000501A83421C4F20105FCF728F882
:1042300040F22010C2F200004F21002240F2E7338A
:10424000C0E90051C0E90223C0E904228261FEF7FF
:10425000A5F8002818BFFCF77DFB40F22010C2F241
:104260000000FEF7E5FB002818BFFCF773FB602099
:104270000E9064200F9040F220100024C2F2000043
:104280000EA90022CDE91044CDE912441494FEF7A2
:10429000E7F9002818BFFCF75DFB4FF400500594C8
:1042A000CDE90344CDE90144CDE906040D9440F283
:1042B0002014C2F2000401A92046FEF707F80028E6
:1042C00018BFFCF747FB2068A84201D01AB0B0BD68
:1042D00041F24C00C4F20200016841F001010160AA
:1042E000006815A900F00100159015988020159020
:1042F000022016900020CDE91700012019904FF000
:104300009040FDF70FF81AB0B0BD000080B540F244
:104310006C1043F60001C2F20000C4F20101002358
:104320004FF00C0C4FF4165280E80E00C0E9033336
:10433000C0E905C3C0E90733C0E90933FFF76EF8E8
:10434000002818BFFCF706FB40F26C10C2F2000018
:104350000021FEF703FD002818BFFCF7FBFA40F22E
:104360006C10C2F200000021FEF7B2FC002818BF5A
:10437000FCF7F0FA40F26C10C2F20000FEF788FC85
:10438000002808BF80BDBDE88040FCF7E3BA00000C
:10439000FEE70000FEE700007047000080B540F235
:1043A0001840C4F60000D0F8FC330169002241F443
:1043B0000071016101694FF0010C41F480710161EC
:1043C00001684FF4407E41F020010160C0F8FC23F9
:1043D000016941F02001016100BF00BF00BF016819
:1043E00041F020010160016841F480710160C0F872
:1043F000FCC3016941F02001016100BF00BF00BFA3
:10440000016841F020010160016841F480710160A0
:1044100099B2C0F8FC13D0F8FC33016941F4007183
:104420000161016941F480710161016841F020017D
:104430000160C0F8FCC3016941F02001016100BFC7
:1044400000BF00BF016841F020010160016841F434
:1044500080710160C0F8FC23016941F02001016115
:1044600000BF00BF00BF016841F02001016001688A
:1044700041F48071016099B2C0F8FC13D0F8FC23BC
:10448000016941F400710161016941F480710161C8
:10449000016841F0200101601021C0F8FC1301699E
:1044A00041F02001016100BF00BF00BF016841F081
:1044B00020010160016841F48071016041F2907156
:1044C000C0F8FC13016941F02001016100BF00BF89
:1044D00000BF016841F020010160016841F4807172
:1044E000016091B2C0F8FC13D0F8FC23016941F4DB
:1044F00000710161016941F480710161016841F05D
:10450000200101606021C0F8FC13016941F0200125
:10451000016100BF00BF00BF016841F020010160E0
:10452000016841F4807101604FF41C51C0F8FC1324
:10453000016941F02001016100BF00BF00BF0168B7
:1045400041F020010160016841F48071016091B285
:10455000C0F8FC13D0F8FC23016941F4007101613B
:10456000016941F480710161016841F0200101603D
:104570006121C0F8FC13016941F02001016100BF15
:1045800000BF00BF016841F020010160016841F4F3
:1045900080710160C0F8FCC301694FF0030C41F069
:1045A0002001016100BF00BF00BF016841F0200190
:1045B0000160016841F48071016091B2C0F8FC13A0
:1045C000D0F8FC23016992B241F4007101610169E4
:1045D00041F480710161016841F0200101604621D0
:1045E000C0F8FC13016941F02001016100BF00BF68
:1045F00000BF016841F020010160016841F4807151
:1046000001600221C0F8FC13036943F02003036139
:1046100000BF00BF00BF036843F0200303600368CE
:1046200043F480730360C0F8FC23D0F8FC230369D3
:1046300092B243F400730361036943F4807303612E
:10464000036843F0200303601323C0F8FC330369BD
:1046500043F02003036100BF00BF00BF036843F0C5
:1046600020030360036843F48073036048F210037F
:10467000C0F8FC33036943F02003036100BF00BFAF
:1046800000BF036843F020030360036843F48073B2
:104690000360C0F8FC23D0F8FC23036992B243F412
:1046A00000730361036943F480730361036843F09B
:1046B000200303601223C0F8FC33036943F0200396
:1046C000036100BF00BF00BF036843F02003036025
:1046D000036843F48073036048F2FE03C0F8FC33C0
:1046E000036943F02003036100BF00BF00BF0368FC
:1046F00043F020030360036843F480730360C0F851
:10470000FC23D0F8FC23036943F4007303610369BD
:1047100043F480730361036843F020030360C0F82F
:10472000FC13016941F02001016100BF00BF00BF1F
:10473000016841F020010160016841F4807101606D
:104740004FF4A061C0F8FC13016941F02001016140
:1047500000BF00BF00BF016841F020010160016897
:1047600041F48071016091B2C0F8FC13D0F8FC23D1
:10477000016941F400710161016941F480710161D5
:10478000016841F020010160C0F8FCC3016941F0FB
:104790002001016100BF00BF00BF016841F020019E
:1047A0000160016841F48071016041F23001C0F89C
:1047B000FC13016941F02001016100BF00BF00BF8F
:1047C000016841F020010160016841F480710160DD
:1047D00091B2C0F8FC13D0F8FC33016940F2033207
:1047E00041F400710161016941F480710161016866
:1047F00041F0200101603021C0F8FC13016941F053
:104800002001016100BF00BF00BF016841F020012D
:104810000160016841F480710160C0F8FC23016906
:1048200041F02001016100BF00BF00BF016841F0FD
:1048300020010160016841F48071016099B2C0F803
:10484000FC13D0F8FC13036989B243F400730361CD
:10485000036943F480730361036843F0200303603A
:104860003123C0F8FC33036943F02003036100BF28
:1048700000BF00BF036843F020030360036843F4F4
:1048800080730360C0F8FC23036943F020030361D5
:1048900000BF00BF00BF036843F02003036003684C
:1048A00043F480730360C0F8FC13D0F8FC13036971
:1048B00089B243F400730361036943F480730361B5
:1048C000036843F0200303603223C0F8FC3303691C
:1048D00043F02003036100BF00BF00BF036843F043
:1048E00020030360036843F480730360C0F8FC2373
:1048F000036943F02003036100BF00BF00BF0368EA
:1049000043F020030360036843F480730360C0F83E
:10491000FC13D0F8FC13036989B243F400730361FC
:10492000036943F480730361036843F02003036069
:104930003323C0F8FC33036943F02003036100BF55
:1049400000BF00BF036843F020030360036843F423
:1049500080730360C0F8FCE3036943F02003036144
:1049600000BF00BF00BF036843F02003036003687B
:1049700043F480730360C0F8FC13D0F8FC130369A0
:1049800089B243F400730361036943F480730361E4
:10499000036843F0200303603423C0F8FC33036949
:1049A00043F02003036100BF00BF00BF036843F072
:1049B00020030360036843F480730360C0F8FCC302
:1049C000036943F02003036100BF00BF00BF036819
:1049D00043F020030360036843F480730360C0F86E
:1049E000FC13D0F8FC13036989B243F4007303612C
:1049F000036943F480730361036843F02003036099
:104A00003523C0F8FC33036943F02003036100BF82
:104A100000BF00BF036843F020030360036843F452
:104A200080730360C0F8FC23036943F02003036133
:104A300000BF00BF00BF036843F0200303600368AA
:104A400043F480730360C0F8FC13D0F8FC130369CF
:104A500089B243F400730361036943F48073036113
:104A6000036843F0200303603623C0F8FC33036976
:104A700043F02003036100BF00BF00BF036843F0A1
:104A800020030360036843F4807303601423C0F8B9
:104A9000FC33036943F02003036100BF00BF00BF84
:104AA000036843F020030360036843F480730360EA
:104AB000C0F8FC13D0F8FC13036989B243F4007307
:104AC0000361036943F480730361036843F02003C7
:104AD00003603723C0F8FC33036943F0200303610C
:104AE00000BF00BF00BF036843F0200303600368FA
:104AF00043F480730360C0F8FC23036943F0200390
:104B0000036100BF00BF00BF036843F020030360E0
:104B1000036843F480730360C0F8FC13D0F8FC13FF
:104B2000036989B243F400730361036943F480733A
:104B30000361036843F0200303603823C0F8FC33AB
:104B4000036943F02003036100BF00BF00BF036897
:104B500043F020030360036843F480730360C0F8EC
:104B6000FC23036943F02003036100BF00BF00BFC3
:104B7000036843F020030360036843F48073036019
:104B8000C0F8FC13D0F8FC13036989B243F4007336
:104B90000361036943F480730361036843F02003F6
:104BA00003603923C0F8FC33036943F02003036139
:104BB00000BF00BF00BF036843F020030360036829
:104BC00043F480730360C0F8FC23036943F02003BF
:104BD000036100BF00BF00BF036843F02003036010
:104BE000036843F480730360C0F8FC13D0F8FC132F
:104BF000036989B243F400730361036943F480736A
:104C00000361036843F0200303603A23C0F8FC33D8
:104C1000036943F02003036100BF00BF00BF0368C6
:104C200043F020030360036843F480730360C0F81B
:104C3000FCE3036943F02003036100BF00BF00BF32
:104C4000036843F020030360036843F48073036048
:104C5000C0F8FC13D0F8FC13036989B243F4007365
:104C60000361036943F480730361036843F0200325
:104C700003603B23C0F8FC33036943F02003036166
:104C800000BF00BF00BF036843F020030360036858
:104C900043F480730360C0F8FCC3036943F020034E
:104CA000036100BF00BF00BF036843F0200303603F
:104CB000036843F480730360C0F8FC13D0F8FC135E
:104CC000036989B243F400730361036943F4807399
:104CD0000361036843F0200303603C23C0F8FC3306
:104CE000036943F02003036100BF00BF00BF0368F6
:104CF00043F020030360036843F480730360C0F84B
:104D0000FC23036943F02003036100BF00BF00BF21
:104D1000036843F020030360036843F48073036077
:104D2000C0F8FC13D0F8FC13036989B243F4007394
:104D30000361036943F480730361036843F0200354
:104D400003603D23C0F8FC33036943F02003036193
:104D500000BF00BF00BF036843F020030360036887
:104D600043F4807303604FF4A053C0F8FC3303692D
:104D700043F02003036100BF00BF00BF036843F09E
:104D800020030360036843F480730360C0F8FC13DE
:104D9000D0F8FC13036989B243F40073036103691B
:104DA00043F480730361036843F02003036092239C
:104DB000C0F8FC33036943F02003036100BF00BF68
:104DC00000BF036843F020030360036843F480736B
:104DD00003604FF40073C0F8FC33036943F0200311
:104DE000036100BF00BF00BF036843F020030360FE
:104DF000036843F480730360C0F8FC13D0F8FC131D
:104E0000036989B243F400730361036943F4807357
:104E10000361036843F0200303609323C0F8FC336D
:104E2000036943F02003036100BF00BF00BF0368B4
:104E300043F020030360036843F480730360C0F809
:104E4000FC23026942F02002026100BF00BF00BFE4
:104E5000026842F020020260026842F4807202603E
:104E6000C0F8FC13D0F8FC13026989B242F4007256
:104E70000261026942F480720261026842F020021B
:104E800002609022C0F8FC23026942F02002026115
:104E900000BF00BF00BF026842F02002026002684B
:104EA00042F48072026040F60D02C0F8FC230269F1
:104EB00042F02002026100BF00BF00BF026842F062
:104EC00020020260026842F480720260C0F8FC13A3
:104ED000D0F8FC13026989B242F4007202610269DF
:104EE00042F480720261026842F020020260C0F85F
:104EF000FCC3026942F02002026100BF00BF00BF94
:104F0000026842F020020260026842F4807202608D
:104F100041F21802C0F8FC23026942F0200202614B
:104F200000BF00BF00BF026842F0200202600268BA
:104F300042F480720260C0F8FC13D0F8FC130269DE
:104F400089B242F400720261026942F48072026125
:104F5000026842F0200202600722C0F8FC230269C6
:104F600042F02002026100BF00BF00BF026842F0B1
:104F700020020260026842F48072026040F2731202
:104F8000C0F8FC23026942F02002026100BF00BFAA
:104F900000BF026842F020020260026842F48072A0
:104FA0000260C0F8FC1380BD2DE9F04F81B040F2E3
:104FB0001844C4F60004D4F8FC03216980B241F41B
:104FC0000071216121694FF0120941F48071216162
:104FD0002168002541F020012160E321C4F8FC1381
:104FE0002169112641F02001216100BF00BF00BFEF
:104FF00021684FF0130B41F0200121602168102738
:1050000041F48071216043F20801C4F8FC13216966
:105010004FF0070841F02001216100BF00BF00BF31
:10502000216841F020012160216841F480712160F4
:10503000C4F8FC03D4F8FC03216980B241F4007188
:105040002161216941F480712161216841F02001D1
:105050002160E721C4F8FC13216941F0200121619E
:1050600000BF00BF00BF216841F02001216021681E
:1050700041F480712160C4F8FC93216941F0200162
:10508000216100BF00BF00BF216841F02001216005
:10509000216841F480712160C4F8FC03D4F8FC035A
:1050A000216980B241F400712161216941F480716C
:1050B0002161216841F020012160EF21C4F8FC1337
:1050C000216941F02001216100BF00BF00BF2168BC
:1050D00041F020012160216841F48071216041F29A
:1050E0003121C4F8FC13216941F02001216100BF86
:1050F00000BF00BF216841F020012160216841F418
:1051000080712160C4F8FC03D4F8FC03216980B2EB
:1051100041F400712161216941F4807121612168AC
:1051200041F0200121600121C4F8FC13216941F004
:105130002001216100BF00BF00BF216841F02001B4
:105140002160216841F480712160C4F8FC53216919
:1051500041F02001216100BF00BF00BF216841F084
:1051600020012160216841F480712160C4F8FC03B2
:10517000D4F8FC03216980B241F4007121612169F6
:1051800041F480712161216841F0200121600221F8
:10519000C4F8FC13216941F02001216100BF00BF68
:1051A00000BF216841F020012160216841F4807135
:1051B00021604FF4E061C4F8FC13216941F0200143
:1051C000216100BF00BF00BF216841F020012160C4
:1051D000216841F480712160C4F8FC03D4F8FC0319
:1051E000216980B241F400712161216941F480712B
:1051F0002161216841F0200121600321C4F8FC13E2
:10520000216941F02001216100BF00BF00BF21687A
:1052100041F020012160216841F48071216041F258
:105220003001C4F8FC13216941F02001216100BF65
:1052300000BF00BF216841F020012160216841F4D6
:1052400080712160C4F8FC03D4F8FC03216980B2AA
:1052500041F400712161216941F48071216121686B
:1052600041F0200121600421C4F8FC13216941F0C0
:105270002001216100BF00BF00BF216841F0200173
:105280002160216841F480712160C4F8FC532169D8
:1052900041F02001216100BF00BF00BF216841F043
:1052A00020012160216841F480712160C4F8FC0371
:1052B000D4F8FC03216980B241F4007121612169B5
:1052C00041F480712161216841F0200121600821B1
:1052D000C4F8FC13216941F02001216100BF00BF27
:1052E00000BF216841F020012160216841F48071F4
:1052F000216040F20721C4F8FC13216941F020012C
:10530000216100BF00BF00BF216841F02001216082
:10531000216841F480712160C4F8FC03D4F8FC03D7
:10532000216980B241F400712161216941F48071E9
:105330002161216841F0200121600921C4F8FC139A
:10534000216941F02001216100BF00BF00BF216839
:1053500041F020012160216841F480712160C4F88E
:10536000FC53216941F02001216100BF00BF00BF53
:10537000216841F020012160216841F480712160A1
:10538000C4F8FC03D4F8FC03216980B241F4007135
:105390002161216941F480712161216841F020017E
:1053A00021600A21C4F8FC13216941F02001216128
:1053B00000BF00BF00BF216841F0200121602168CB
:1053C00041F480712160C4F8FC53216941F020014F
:1053D000216100BF00BF00BF216841F020012160B2
:1053E000216841F480712160C4F8FC03D4F8FC0307
:1053F000216980B241F400712161216941F4807119
:105400002161216841F0200121600C21C4F8FC13C6
:10541000216941F02001216100BF00BF00BF216868
:1054200041F020012160216841F480712160C4F8BD
:10543000FC53216941F02001216100BF00BF00BF82
:10544000216841F020012160216841F480712160D0
:10545000C4F8FC03D4F8FC03216980B241F4007164
:105460002161216941F480712161216841F02001AD
:1054700021600D21C4F8FC13216941F02001216154
:1054800000BF00BF00BF216841F0200121602168FA
:1054900041F480712160C4F8FC53216941F020017E
:1054A000216100BF00BF00BF216841F020012160E1
:1054B000216841F480712160C4F8FC03D4F8FC0336
:1054C000216980B241F400712161216941F4807148
:1054D0002161216841F0200121600F21C4F8FC13F3
:1054E000216941F02001216100BF00BF00BF216898
:1054F00041F020012160216841F480712160C4F8ED
:10550000FC53216941F02001216100BF00BF00BFB1
:10551000216841F020012160216841F480712160FF
:10552000C4F8FC03D4F8FC03216980B241F4007193
:105530002161216941F480712161216841F02001DC
:1055400021601021C4F8FC13216941F02001216180
:1055500000BF00BF00BF216841F020012160216829
:1055600041F480712160C4F8FC53216941F02001AD
:10557000216100BF00BF00BF216841F02001216010
:10558000216841F480712160C4F8FC03D4F8FC0365
:10559000216980B241F400712161216941F4807177
:1055A0002161216841F020012160C4F8FC63216978
:1055B00041F02001216100BF00BF00BF216841F020
:1055C00020012160216841F4807121600721C4F825
:1055D000FC13216941F02001216100BF00BF00BF21
:1055E000216841F020012160216841F4807121602F
:1055F000C4F8FC03D4F8FC03216980B241F40071C3
:105600002161216941F480712161216841F020010B
:105610002160C4F8FC93216941F02001216100BFA1
:1056200000BF00BF216841F020012160216841F4E2
:1056300080712160C4F8FC53216941F0200121618F
:1056400000BF00BF00BF216841F020012160216838
:1056500041F480712160C4F8FC03D4F8FC03216993
:1056600080B241F400712161216941F480712161AE
:10567000216841F020012160C4F8FCB3216941F0A8
:105680002001216100BF00BF00BF216841F020015F
:105690002160216841F480712160C4F8FC532169C4
:1056A00041F02001216100BF00BF00BF216841F02F
:1056B00020012160216841F480712160C4F8FC035D
:1056C000C820FBF71BFED4F8FC03216980B241F42B
:1056D0000071216121694FF0320A41F4807121612A
:1056E000216841F020012160C4F8FC732169102772
:1056F00041F02001216100BF00BF00BF216841F0DF
:1057000020012160216841F48071216041F29061A3
:10571000C4F8FC13216941F02001216100BF00BFE2
:1057200000BF216841F020012160216841F48071AF
:105730002160C4F8FC03D4F8FC03216980B241F471
:1057400000712161216941F480712161216841F07A
:1057500020012160C4F8FC63216941F0200121612E
:1057600000BF00BF00BF216841F020012160216817
:1057700041F48071216040F22721C4F8FC132169B3
:1057800041F02001216100BF00BF00BF216841F04E
:1057900020012160216841F480712160C4F8FC037C
:1057A0003220FBF7ABFDD4F8FC03216980B241F451
:1057B00000712161216941F480712161216841F00A
:1057C00020012160C4F8FC93216941F0200121618E
:1057D00000BF00BF00BF216841F0200121602168A7
:1057E00041F4807121601D21C4F8FC13216941F04E
:1057F0002001216100BF00BF00BF216841F02001EE
:105800002160216841F480712160C4F8FC033220DA
:10581000FBF774FDD4F8FC03216980B241F40071F8
:105820002161216941F480712161216841F02001E9
:105830002160C4F8FCB3216941F02001216100BF5F
:1058400000BF00BF216841F020012160216841F4C0
:10585000807121604FF40061C4F8FC13216941F0AC
:105860002001216100BF00BF00BF216841F020017D
:105870002160216841F480712160C4F8FC03D4F8F0
:10588000FC03216980B241F400712161216941F476
:1058900080712161216841F0200121602921C4F833
:1058A000FC13216941F02001216100BF00BF00BF4E
:1058B000216841F020012160216841F4807121605C
:1058C0001421C4F8FC13216941F02001216100BFBB
:1058D00000BF00BF216841F020012160216841F430
:1058E00080712160C4F8FC03D4F8FC03216980B204
:1058F00041F400712161216941F4807121612168C5
:1059000041F0200121602B21C4F8FC13216941F0F2
:105910002001216100BF00BF00BF216841F02001CC
:105920002160216841F4807121600B21C4F8FC13CF
:10593000216941F02001216100BF00BF00BF216843
:1059400041F020012160216841F480712160C4F898
:10595000FC033220FBF7D2FCD4F8FC03216980B2AF
:1059600041F4007121612169032241F480712161B8
:105970002168072341F0200121602021C4F8FC1395
:10598000216941F02001216100BF00BF00BF2168F3
:1059900041F020012160216841F480712160C4F848
:1059A000FC53216941F02001216100BF00BF00BF0D
:1059B000216841F020012160216841F4807121605B
:1059C000C4F8FC03D4F8FC03216980B241F40071EF
:1059D0002161216941F480712161216841F0200138
:1059E00021602121C4F8FC13216941F020012161CB
:1059F00000BF00BF00BF216841F020012160216885
:105A000041F480712160C4F8FC53216941F0200108
:105A1000216100BF00BF00BF216841F0200121606B
:105A2000216841F480712160C4F8FC03D4F8FC03C0
:105A3000216980B241F400712161216941F48071D2
:105A40002161216841F0200121603021C4F8FC135C
:105A5000216941F02001216100BF00BF00BF216822
:105A600041F020012160216841F480712160C4F877
:105A7000FC83216941F02001216100BF00BF00BF0C
:105A8000216841F020012160216841F4807121608A
:105A9000C4F8FC03D4F8FC03216980B241F400711E
:105AA0002161216941F480712161216841F0200167
:105AB00021603121C4F8FC13216941F020012161EA
:105AC00000BF00BF00BF216841F0200121602168B4
:105AD00041F48071216040F20771C4F8FC13216920
:105AE00041F02001216100BF00BF00BF216841F0EB
:105AF00020012160216841F480712160C4F8FC0319
:105B0000D4F8FC03216980B241F40071216121695C
:105B100041F480712161216841F020012160C4F8C5
:105B2000FCA3216941F02001216100BF00BF00BF3B
:105B3000216841F020012160216841F480712160D9
:105B40000621C4F8FC13216941F02001216100BF46
:105B500000BF00BF216841F020012160216841F4AD
:105B600080712160C4F8FC03D4F8FC03216980B281
:105B700041F400712161216941F480712161216842
:105B800041F0200121603521C4F8FC13216941F066
:105B90002001216100BF00BF00BF216841F020014A
:105BA0002160216841F48071216040F20471C4F8E1
:105BB000FC13216941F02001216100BF00BF00BF3B
:105BC000216841F020012160216841F48071216049
:105BD000C4F8FC03D4F8FC03216980B241F40071DD
:105BE0002161216941F480712161216841F0200126
:105BF00021603621C4F8FC13216941F020012161A4
:105C000000BF00BF00BF216841F020012160216872
:105C100041F48071216041F60471C4F8FC132169DC
:105C200041F02001216100BF00BF00BF216841F0A9
:105C300020012160216841F480712160C4F8FC03D7
:105C4000D4F8FC03216980B241F40071216121691B
:105C500041F480712161216841F0200121603721E8
:105C6000C4F8FC13216941F02001216100BF00BF8D
:105C700000BF216841F020012160216841F480715A
:105C800021600421C4F8FC13216941F02001216145
:105C900000BF00BF00BF216841F0200121602168E2
:105CA00041F480712160C4F8FC03D4F8FC0321693D
:105CB00080B241F400712161216941F48071216158
:105CC000216841F0200121603821C4F8FC132169CA
:105CD00041F02001216100BF00BF00BF216841F0F9
:105CE00020012160216841F480712160C4F8FC53D7
:105CF000216941F02001216100BF00BF00BF216880
:105D000041F020012160216841F480712160C4F8D4
:105D1000FC03D4F8FC03216980B241F400712161D5
:105D2000216941F480712161216841F020012160E5
:105D30003921C4F8FC13216941F02001216100BF21
:105D400000BF00BF216841F020012160216841F4BB
:105D50008071216040F20671C4F8FC13216941F0A2
:105D60002001216100BF00BF00BF216841F0200178
:105D70002160216841F480712160C4F8FC03D4F8EB
:105D8000FC03216980B241F400712161216941F471
:105D900080712161216841F0200121603C21C4F81B
:105DA000FC13216941F02001216100BF00BF00BF49
:105DB000216841F020012160216841F48071216057
:105DC00040F20171C4F8FC13216941F02001216106
:105DD00000BF00BF00BF216841F0200121602168A1
:105DE00041F480712160C4F8FC03D4F8FC032169FC
:105DF00080B241F400712161216941F48071216117
:105E0000216841F0200121603D21C4F8FC13216983
:105E100041F02001216100BF00BF00BF216841F0B7
:105E200020012160216841F4807121600F21C4F8B4
:105E3000FC13216941F02001216100BF00BF00BFB8
:105E4000216841F020012160216841F480712160C6
:105E5000C4F8FC03D4F8FC03216980B241F400715A
:105E60002161216941F480712161216841F02001A3
:105E700021605021C4F8FC13216941F02001216107
:105E800000BF00BF00BF216841F0200121602168F0
:105E900041F480712160C4F8FC53216941F0200174
:105EA000216100BF00BF00BF216841F020012160D7
:105EB000216841F480712160C4F8FC03D4F8FC032C
:105EC000216980B241F400712161216941F480713E
:105ED0002161216841F0200121605121C4F8FC13A7
:105EE000216941F02001216100BF00BF00BF21688E
:105EF00041F020012160216841F480712160EF218F
:105F0000C4F8FC13216941F02001216100BF00BFEA
:105F100000BF216841F020012160216841F48071B7
:105F20002160C4F8FC03D4F8FC03216980B241F479
:105F300000712161216941F480712161216841F082
:105F4000200121605221C4F8FC13216941F0200195
:105F5000216100BF00BF00BF216841F02001216026
:105F6000216841F480712160C4F8FC53216941F03B
:105F70002001216100BF00BF00BF216841F0200166
:105F80002160216841F480712160C4F8FC03D4F8D9
:105F9000FC03216980B241F400712161216941F45F
:105FA00080712161216841F0200121605321C4F8F2
:105FB000FC13216941F02001216100BF00BF00BF37
:105FC000216841F020012160216841F48071216045
:105FD00040F23F11C4F8FC13216941F02001216116
:105FE00000BF00BF00BF216841F02001216021688F
:105FF00041F480712160C4F8FC03D4F8FC032169EA
:1060000080B241F400712161216941F48071216104
:10601000216841F0200121606021C4F8FC1321694E
:1060200041F02001216100BF00BF00BF216841F0A5
:1060300020012160216841F4807121604FF41C51DE
:10604000C4F8FC13216941F02001216100BF00BFA9
:1060500000BF216841F020012160216841F4807176
:106060002160C4F8FC03D4F8FC03216980B241F438
:1060700000712161216941F480712161216841F041
:10608000200121606121C4F8FC13216941F0200145
:10609000216100BF00BF00BF216841F020012160E5
:1060A000216841F4807121600121C4F8FC13216949
:1060B00041F02001216100BF00BF00BF216841F015
:1060C00020012160216841F480712160C4F8FC0343
:1060D000D4F8FC03216980B241F400712161216987
:1060E00041F480712161216841F0200121606A2121
:1060F000C4F8FC13216941F02001216100BF00BFF9
:1061000000BF216841F020012160216841F48071C5
:106110002160C4F8FC53216941F02001216100BFD6
:1061200000BF00BF216841F020012160216841F4D7
:1061300080712160C4F8FC03D4F8FC03216980B2AB
:1061400041F400712161216941F48071216121686C
:1061500041F0200121608021C4F8FC13216941F045
:106160002001216100BF00BF00BF216841F0200174
:106170002160216841F480712160C4F8FC532169D9
:1061800041F02001216100BF00BF00BF216841F044
:1061900020012160216841F480712160C4F8FC0372
:1061A000D4F8FC03216980B241F4007121612169B6
:1061B00041F480712161216841F020012160812139
:1061C000C4F8FC13216941F02001216100BF00BF28
:1061D00000BF216841F020012160216841F48071F5
:1061E0002160C4F8FC53216941F02001216100BF06
:1061F00000BF00BF216841F020012160216841F407
:1062000080712160C4F8FC03D4F8FC03216980B2DA
:1062100041F400712161216941F48071216121689B
:1062200041F0200121608221C4F8FC13216941F072
:106230002001216100BF00BF00BF216841F02001A3
:106240002160216841F480712160C4F8FC53216908
:1062500041F02001216100BF00BF00BF216841F073
:1062600020012160216841F480712160C4F8FC03A1
:10627000D4F8FC03216980B241F4007121612169E5
:1062800041F480712161216841F020012160832166
:10629000C4F8FC13216941F02001216100BF00BF57
:1062A00000BF216841F020012160216841F4807124
:1062B0002160C4F8FC53216941F02001216100BF35
:1062C00000BF00BF216841F020012160216841F436
:1062D00080712160C4F8FC03D4F8FC03216980B20A
:1062E00041F400712161216941F4807121612168CB
:1062F00041F0200121608421C4F8FC13216941F0A0
:106300002001216100BF00BF00BF216841F02001D2
:106310002160216841F480712160C4F8FC53216937
:1063200041F02001216100BF00BF00BF216841F0A2
:1063300020012160216841F480712160C4F8FC03D0
:10634000D4F8FC03216980B241F400712161216914
:1063500041F480712161216841F020012160852193
:10636000C4F8FC13216941F02001216100BF00BF86
:1063700000BF216841F020012160216841F4807153
:106380002160C4F8FC53216941F02001216100BF64
:1063900000BF00BF216841F020012160216841F465
:1063A00080712160C4F8FC03D4F8FC03216980B239
:1063B00041F400712161216941F4807121612168FA
:1063C00041F0200121609021C4F8FC13216941F0C3
:1063D0002001216100BF00BF00BF216841F0200102
:1063E0002160216841F480712160C4F8FC73216947
:1063F00041F02001216100BF00BF00BF216841F0D2
:1064000020012160216841F480712160C4F8FC03FF
:10641000D4F8FC03216980B241F400712161216943
:1064200041F480712161216841F0200121609221B5
:10643000C4F8FC13216941F02001216100BF00BFB5
:1064400000BF216841F020012160216841F4807182
:106450002160C4F8FC53216941F02001216100BF93
:1064600000BF00BF216841F020012160216841F494
:1064700080712160C4F8FC03D4F8FC03216980B268
:1064800041F400712161216941F480712161216829
:1064900041F0200121609321C4F8FC13216941F0EF
:1064A0002001216100BF00BF00BF216841F0200131
:1064B0002160216841F480712160C4F8FC232169C6
:1064C00041F02001216100BF00BF00BF216841F001
:1064D00020012160216841F480712160C4F8FC032F
:1064E000D4F8FC03216980B241F400712161216973
:1064F00041F480712161216841F0200121609521E2
:10650000C4F8FC13216941F02001216100BF00BFE4
:1065100000BF216841F020012160216841F48071B1
:1065200021604FF48871C4F8FC13216941F0200107
:10653000216100BF00BF00BF216841F02001216040
:10654000216841F480712160C4F8FC03D4F8FC0395
:10655000216980B241F400712161216941F48071A7
:106560002161216841F0200121609721C4F8FC13CA
:10657000216941F02001216100BF00BF00BF2168F7
:1065800041F020012160216841F480712160C4F84C
:10659000FC53216941F02001216100BF00BF00BF11
:1065A000216841F020012160216841F4807121605F
:1065B000C4F8FC03D4F8FC03216980B241F40071F3
:1065C0002161216941F480712161216841F020013C
:1065D00021609821C4F8FC13216941F02001216158
:1065E00000BF00BF00BF216841F020012160216889
:1065F00041F480712160C4F8FC53216941F020010D
:10660000216100BF00BF00BF216841F0200121606F
:10661000216841F480712160C4F8FC03D4F8FC03C4
:10662000216980B241F400712161216941F48071D6
:106630002161216841F020012160C4F8FC23216917
:1066400041F02001216100BF00BF00BF216841F07F
:1066500020012160216841F48071216041F218011C
:10666000C4F8FC13216941F02001216100BF00BF83
:1066700000BF216841F020012160216841F4807150
:106680002160C4F8FC03D4F8FC03216980B241F412
:1066900000712161216941F480712161216841F01B
:1066A00020012160C4F8FC33216941F020012161FF
:1066B00000BF00BF00BF216841F0200121602168B8
:1066C00041F48071216040F27311C4F8FC13216918
:1066D00041F02001216100BF00BF00BF216841F0EF
:1066E00020012160216841F480712160C4F8FC031D
:1066F00001B0BDE8F08F00007047000080B5FAF7E8
:10670000F9FE40F22000C2F20000416B00291CBFDC
:1067100001394163816B00291CBF01398163C16B61
:1067200000291CBF0139C163016C00291CBF01395C
:106730000164416C00291CBF01394164816C00294E
:106740001CBF0139816480BD4EF68850CEF2000036
:10675000016841F4700101607047000040F22010B0
:10676000C2F20000FBF772BE80B540F2FF7C026807
:10677000C4F2000C604521DD40F60003C4F20003C2
:10678000984224D043F20043C4F2010398421ED041
:1067900042F60043C4F20103984218D043F2FF339B
:1067A000C4F2010398421CDC604529DCB0F1804F43
:1067B0003CD040F20043C4F2000335E0B0F1804F1A
:1067C00005D040F20043C4F200039842E6D14B6882
:1067D00022F070021A4343F2FF33C4F201039842DD
:1067E000E2DD44F2FF33C4F20103984212DC43F2CB
:1067F0000043C4F20103984218D044F2000311E0B0
:1068000040F60003C4F2000398420FD042F6004362
:1068100008E000BF44F60003C4F20103984205D02B
:1068200044F20043C4F20103984203D1CB6822F43E
:1068300040721A434B6922F0800E8A6843EA0E03C5
:10684000D1F800C00360C262A0F18042A2F5963286
:106850004FEAB222072AC0F828C007D8012303FA5A
:1068600002F212F0E50F1CBF0969016301214161C9
:1068700080BD000080B5816ACA070DD18A0716D491
:106880004A071FD40A0728D4CA0631D48A063AD444
:106890004A0658D542E000BF0268D0F82CC05368C1
:1068A00023F4003343EA0C0353608A07E8D50268F7
:1068B000D0F830C0536823F4803343EA0C035360AC
:1068C0004A07DFD50268D0F834C0536823F4802328
:1068D00043EA0C0353600A07D6D50268D0F838C0E3
:1068E000536823F4004343EA0C035360CA06CDD532
:1068F0000268D0F83CC0936823F4805343EA0C0349
:1069000093608A06C4D50268D0F840C0936823F427
:10691000005343EA0C0393604A0614D50268D0F88A
:1069200044C05368BCF5801F23F4801343EA0C0372
:10693000536008D1D2F804C0D0F848E02CF4C0036A
:1069400043EA0E035360090658BF80BD0168C06C5E
:106950004A6822F400221043486080BD806A00210A
:10696000A0F85E10A0F85610FCF742BAB0F860200C
:106970000168D0F88830222B40F09680496A836DF8
:10698000114023F8021B8365B0F85E100139A0F8AE
:106990005E10B0F85E10002918BF7047016851E81A
:1069A000001F026821F4907142E80013E3B101680E
:1069B00051E8001F026821F4907142E800139BB176
:1069C000016851E8001F026821F4907142E8001349
:1069D00053B1016851E8001F026821F4907142E848
:1069E0000013002BDAD100BF016851E8021F0268D2
:1069F00021F0010142E80213DBB1016851E8021FF6
:106A0000026821F0010142E8021393B1016851E8E4
:106A1000021F026821F0010142E802134BB1016834
:106A200051E8021F026821F0010142E80213002B25
:106A3000DAD12021C0F8881000210167C26E012A36
:106A400018BFFCF7F9BDC166016851E8001F026874
:106A500021F0100142E80013DBB1016851E8001F8A
:106A6000026821F0100142E8001393B1016851E877
:106A7000001F026821F0100142E800134BB10168C9
:106A800051E8001F026821F0100142E80013002BBA
:106A9000DAD10168CA69D20644BF10220A62B0F88E
:106AA0005C10FCF711B900BF886940F008008861EC
:106AB000704700002DE9F04F81B003680446B0F83C
:106AC0006050DA6918689968D4F88870222F5FD10D
:106AD000B4F86830002B18BF12F0200260D1B4F86F
:106AE0005E00002858D0B4F86810884254D200BF25
:106AF000206850E8020F216820F0805041E802022F
:106B0000DAB1206850E8020F216820F0805041E897
:106B1000020292B1206850E8020F216820F08050F4
:106B200041E802024AB1206850E8020F216820F0D3
:106B3000805041E80202002ADAD146F66D10C0F614
:106B400000002067206850E8000F216840F0200016
:106B500041E8000202B3206850E8000F216840F0CD
:106B6000200041E80002BAB1206850E8000F216817
:106B700040F0200041E8000272B1206850E8000FA8
:106B8000216840F0200041E80002002ADAD103E049
:106B9000986940F00800986101B0BDE8F08F00BF2F
:106BA0004FF6FE76CEF6FF7600F4807801F001070E
:106BB0004FF020094FF0000A08E000BF2046FCF724
:106BC0003BFD00BF5FEA8B607FF589AF2068A16D58
:106BD000426A2A4021F8022BA165B4F85E100139FF
:106BE000A4F85E10D0F81CB05FEA4B7131D05FEAB8
:106BF000CB7218BFB8F1000F04D15FEA8B720CD4CE
:106C000014E000BF01220262D4F88C2042F001029D
:106C1000C4F88C205FEA8B7208D53FB10222026271
:106C2000D4F88C2042F00402C4F88C20002908D546
:106C30003FB104210162D4F88C0040F00200C4F896
:106C40008C00D4F88C0020B12046FCF7D1F8C4F8B1
:106C50008CA0B4F85E000028B4D100BF206850E8D2
:106C6000000F216820F4807041E80002E2B1206842
:106C700050E8000F216820F4807041E800029AB1CA
:106C8000206850E8000F216820F4807041E800027D
:106C900052B1206850E8000F216820F4807041E86C
:106CA0000002002ADAD100BF206850E8020F2168F4
:106CB000304041E80202C2B1206850E8020F21686A
:106CC000304041E8020282B1206850E8020F21689A
:106CD000304041E8020242B1206850E8020F2168CA
:106CE000304041E80202002ADED1C4F88890C4F89E
:106CF00070A0E06E01287FF461AFC4F86CA000BF03
:106D0000206850E8000F216820F0100041E80002E0
:106D1000DAB1206850E8000F216820F0100041E847
:106D2000000292B1206850E8000F216820F01000A6
:106D300041E800024AB1206850E8000F216820F0C5
:106D4000100041E80002002ADAD12068C169C906B2
:106D500044BF10210162B4F85C102046FBF7B4FF79
:106D600030E70000B0F860100268D0F88830222BBD
:106D700040F09880526A836D11401970816D013125
:106D80008165B0F85E100139A0F85E10B0F85E10B1
:106D9000002918BF704700BF016851E8001F026852
:106DA00021F4907142E80013E3B1016851E8001F3B
:106DB000026821F4907142E800139BB1016851E828
:106DC000001F026821F4907142E8001353B101687A
:106DD00051E8001F026821F4907142E80013002B73
:106DE000DAD100BF016851E8021F026821F00101F9
:106DF00042E80213DBB1016851E8021F026821F08A
:106E0000010142E8021393B1016851E8021F0268D0
:106E100021F0010142E802134BB1016851E8021F61
:106E2000026821F0010142E80213002BDAD120218F
:106E3000C0F8881000210167C26E012A18BFFCF754
:106E4000FBBBC166016851E8001F026821F0100118
:106E500042E80013DBB1016851E8001F026821F02D
:106E6000100142E8001393B1016851E8001F026865
:106E700021F0100142E800134BB1016851E8001FF6
:106E8000026821F0100142E80013002BDAD10168FA
:106E9000CA69D20644BF10220A62B0F85C10FBF740
:106EA00013BF00BF906940F0080090617047000078
:106EB0002DE9F04F81B003680446B0F86050DA69FC
:106EC00018689968D4F88870222F5FD1B4F86830B8
:106ED000002B18BF12F0200260D1B4F85E00002829
:106EE00058D0B4F86810884254D200BF206850E8E7
:106EF000020F216820F0805041E80202DAB12068D8
:106F000050E8020F216820F0805041E8020292B15F
:106F1000206850E8020F216820F0805041E802020A
:106F20004AB1206850E8020F216820F0805041E803
:106F30000202002ADAD146F66550C0F6000020674A
:106F4000206850E8000F216840F0200041E800026E
:106F500002B3206850E8000F216840F0200041E8AB
:106F60000002BAB1206850E8000F216840F020000C
:106F700041E8000272B1206850E8000F216840F03B
:106F8000200041E80002002ADAD103E0986940F0CD
:106F90000800986101B0BDE8F08F00BF4FF6FE76A3
:106FA000CEF6FF7600F4807801F001074FF020095B
:106FB0004FF0000A08E000BF2046FCF73DFB00BF91
:106FC0005FEA8B607FF589AF2068A16D406A284039
:106FD0000870A16D20680131A165B4F85E10013917
:106FE000A4F85E10D0F81CB05FEA4B7131D05FEAB4
:106FF000CB7218BFB8F1000F04D15FEA8B720CD4CA
:1070000014E000BF01220262D4F88C2042F0010299
:10701000C4F88C205FEA8B7208D53FB1022202626D
:10702000D4F88C2042F00402C4F88C20002908D542
:107030003FB104210162D4F88C0040F00200C4F892
:107040008C00D4F88C0020B12046FBF7D1FEC4F8A8
:107050008CA0B4F85E000028B2D100BF206850E8D0
:10706000000F216820F4807041E80002E2B120683E
:1070700050E8000F216820F4807041E800029AB1C6
:10708000206850E8000F216820F4807041E8000279
:1070900052B1206850E8000F216820F4807041E868
:1070A0000002002ADAD100BF206850E8020F2168F0
:1070B000304041E80202C2B1206850E8020F216866
:1070C000304041E8020282B1206850E8020F216896
:1070D000304041E8020242B1206850E8020F2168C6
:1070E000304041E80202002ADED1C4F88890C4F89A
:1070F00070A0E06E01287FF45FAFC4F86CA000BF01
:10710000206850E8000F216820F0100041E80002DC
:10711000DAB1206850E8000F216820F0100041E843
:10712000000292B1206850E8000F216820F01000A2
:1071300041E800024AB1206850E8000F216820F0C1
:10714000100041E80002002ADAD12068C169C906AE
:1071500044BF10210162B4F85C102046FBF7B4FD77
:107160002EE7000070B5054605F108041ECC006846
:10717000194341EA0403EE69046846F6F311CCF6BC
:10718000FF712140194331430160416848F2000C0E
:1071900021F4405111434160AA69C4F2000C6045DA
:1071A0001CBF296A0A4381684FF2FF43C1F2FF13F3
:1071B000194011438160C16AD5F824E021F00F0124
:1071C00041EA0E01C16244F6FF31C4F20001884277
:1071D0004FF0100314DD44F60041C4F20001884270
:1071E00022D0604528D043F60001C4F20101884254
:1071F00038D141F28801C4F202010B687EA22DE071
:1072000044F20041C4F2000188421DD044F600015E
:10721000C4F20001884225D141F28801C4F2020182
:1072200009680B0916E000BF41F28801C4F20201AF
:1072300009688B090EE000BF41F28801C4F2020127
:1072400009688B0A06E000BF41F28801C4F202011E
:1072500009688B0849F6A402C0F6000203F0030196
:1072600052F82130604542F20040C0F2F40015D0DF
:10727000B6F5004F24D1082B4FF0010100F2B38086
:10728000DFE803F0065E6CB164B1B1B16A0000BF23
:10729000FAF73CFD002856D15CE000BF082B4FF008
:1072A000010100F2A080DFE803F0059E259E1D9EEF
:1072B0009E9E2300FAF72AFDC0B1D5F824E019E01C
:1072C000082B4FF0010100F28E80DFE803F0056526
:1072D000738C6B8C8C8C7100FAF718FD00285ED1D2
:1072E00064E000BFFAF73EFD0028E6D100217AE015
:1072F0004FF4004049F66C01C0F6000131F81E1051
:107300006A68B0FBF1F002EB420188424FF00101E4
:1073100069D31303984266D8010E000210EB5200A5
:1073200041F100010023F8F773FF4FF60052A0F57A
:107330004071C0F20F0291424FD3012153E000BFD0
:10734000FAF7FAFC30B1D5F824E007E0FAF70AFDC5
:107350000028F8D1002146E04FF4004049F66C01C6
:10736000C0F6000131F81E106A68B0FBF1F0510858
:1073700001EB4000B0FBF2F04FF6EF72A0F110010C
:10738000914207D84FF6F0710140C0F34200084423
:1073900023E000BF012126E0FAF7CEFC30B1D5F89A
:1073A00024E007E0FAF7DEFC0028F8D100211AE01B
:1073B0004FF4004049F66C01C0F6000131F81E1090
:1073C0004FF6EF72B0FBF1F0696800EB5100B0FBD3
:1073D000F1F0A0F11001914204D82968C8600021A1
:1073E00001E000BF01214FF00110A866002208460D
:1073F0002A676A6770BD00BF01000000040000003A
:1074000002000000080000008165A0F85C20A0F8E0
:107410005E2081680023036751B1B1F1805F0BD01A
:10742000B1F5805F0CD1016921B940F2FF110AE08A
:10743000016939B9FF2106E0016919B13F2102E074
:10744000002100E07F21A0F860100021C0F88C101E
:107450002221C0F8881000BF016851E8021FD0F84F
:1074600000C041F001014CE80213F3B1016851E89A
:10747000021FD0F800C041F001014CE80213A3B193
:10748000016851E8021FD0F800C041F001014CE84A
:10749000021353B1016851E8021FD0F800C041F057
:1074A00001014CE80213002BD6D1416EB1F1005F0F
:1074B00003D1B0F86810914246D982680169B2F5EB
:1074C000805F0BD100294FD046F66551C0F6000110
:1074D0000167002180F880100AE000BF46F665527F
:1074E000C0F6000202670022002980F8802043D005
:1074F000016851E8001F026841F4907142E80013EE
:10750000002B00F0C080016851E8001F026841F4C0
:10751000907142E80013002B00F0B580016851E83B
:10752000001F026841F4907142E80013002B00F044
:10753000AA80016851E8001F026841F4907142E896
:107540000013002BD4D19EE082680169B2F5805F00
:107550003CD100296AD046F6B161C0F6000101674E
:10756000002180F880103BE046F66D11C0F6000166
:107570000167002180F88010016851E8001F02684F
:1075800041F0200142E80013002B7CD0016851E853
:10759000001F026841F0200142E80013002B72D066
:1075A000016851E8001F026841F0200142E8001321
:1075B000002B68D0016851E8001F026841F02001EB
:1075C00042E80013002BD7D15DE000BF46F6B16260
:1075D000C0F600020267002280F8802071B300BF6D
:1075E000016851E8001F026841F4807142E800130D
:1075F00023B3016851E8001F026841F4807142E83A
:107600000013DBB1016851E8001F026841F480718A
:1076100042E8001393B1016851E8001F026841F489
:10762000807142E80013002BDAD107E046F6B5215D
:10763000C0F600010167002180F88010016851E860
:10764000021F026841F0805142E80213DBB1016879
:1076500051E8021F026841F0805142E8021393B1E1
:10766000016851E8021F026841F0805142E80213AC
:107670004BB1016851E8021F026841F0805142E8B5
:107680000213002BDAD10020704700002DE9F041F1
:10769000044600681546C2690E461140891BB1FABE
:1076A00081F14909A94240F0A080DDF81880B8F1C5
:1076B000000F29D018F1010140F08080C1693140EC
:1076C000891BB1FA81F14909A94240F08E80C16954
:1076D0003140891BB1FA81F14909A94240F0858006
:1076E000C1693140891BB1FA81F14909A9427CD1B4
:1076F000C1693140891BB1FA81F14909A942DDD044
:107700000020BDE8F08100BFF9F7EEFE206850E8E8
:10771000000F216820F4D07041E80002BAB320685D
:1077200050E8000F216820F4D07041E8000272B3E5
:10773000206850E8000F216820F4D07041E8000272
:107740002AB3206850E8000F216820F4D07041E887
:107750000002002ADAD11AE0206850E8020F2168FE
:1077600020F0010041E80202DAB1206850E8020F7F
:10777000216820F0010041E8020292B1206850E83F
:10778000020F216820F0010041E802024AB120689E
:1077900050E8020F216820F0010041E80202002AAF
:1077A000DAD12020C4F8840004F18800202101608F
:1077B000002084F880000320BDE8F0811F4600BF50
:1077C000F9F792FEC01B4045A0D820680168490720
:1077D00044BFC1695FEA01510AD4C0693040801BCF
:1077E000B0FA80F04009A842EAD00020BDE8F0815C
:1077F0004FF40061016200BF206850E8000F21686B
:1078000020F4D07041E80002BAB3206850E8000FBD
:10781000216820F4D07041E8000272B3206850E87B
:10782000000F216820F4D07041E800022AB32068DC
:1078300050E8000F216820F4D07041E80002002ACF
:10784000DAD11AE0206850E8020F216820F0010028
:1078500041E80202DAB1206850E8020F216820F006
:10786000010041E8020292B1206850E8020F21684D
:1078700020F0010041E802024AB1206850E8020FFE
:10788000216820F0010041E80202002ADAD120201C
:10789000C4F88400C4F8880004F18C0086E7000076
:1078A000B0B540F22005C2F20005686C002857D13F
:1078B0006878002808BFB0BD40F27004C2F200042E
:1078C000002121542046F8F7E6FC01282AD120782F
:1078D0003038092826D8F8F7A3FE9FED230B53EC88
:1078E000102BF8F7F8FDF8F7B9FE40F20801C2F2E4
:1078F00000014860096844F24022C0F20F02B2FB66
:10790000F1F100EE100A01EE101AB8EE411A20EE65
:10791000010A44F63400BCEEC00AC4F2010080ED56
:10792000000A14E047F24520C6F672702C4644F86F
:107930001C0F7220A0802046F8F7ADFC82B240F206
:107940006C10C2F2000021463223FBF799FE0020A2
:10795000687040F27000C2F200004021F8F790FC1D
:10796000B0BD00BF00BF00BF000000000000244009
:1079700040F26C10C2F20000FBF73CBAFEE70000D8
:10798000B0B540F22005C2F20005686B00B1B0BD91
:1079900040F200440A20C4F6000468632046012136
:1079A000F9F796FD002818BF0120687420460221CF
:1079B000F9F78EFD002818BF012028752046042104
:1079C000F9F786FD002818BF0120E8754FF09040B8
:1079D0000121F9F77DFD297C0028024618BF01220C
:1079E0000229AA7606D001290AD079B9697C69B939
:1079F00001210AE0697C49B10121A974002104E058
:107A0000697CB1FA81F1490949002974E97C49B1DD
:107A100001290BD002290FD1297D69B10121697596
:107A2000002108E0297D39B9012104E0297DB1FA5E
:107A300081F149094900E974A97D49B101290BD0B7
:107A400002290FD1E97D69B101212976002108E0E1
:107A5000E97D39B9012104E0E97DB1FA81F14909F3
:107A60004900A975697E69B1012911D002297FF405
:107A70008EAF00283FF48BAF0120E87600206876B7
:107A8000B0BD00BF002818BFB0BD01206876B0BDF2
:107A9000B0FA80F0400940006876B0BD94B0F9F7C4
:107AA00037FD00244FF400700C94CDE90A44CDE971
:107AB0000844F9F7CDFD012006904FF4803007907F
:107AC000022014210D900325CDE91010CDE91200FC
:107AD00006A8CDE90E55FAF785F928B1EFF3108025
:107AE00072B600BFFEE700BF0F20CDE9010501A877
:107AF0000221CDE903440594F9F77EFF20B1EFF3AD
:107B0000108072B6FEE700BFFCF716FBFCF7D2FA56
:107B1000FCF784FBFCF7FAFB00F004F800F048F8EF
:107B2000FCE7000010B5FCF705F90020FBF71AFE92
:107B30000020FCF717FA4FF6FF70FCF71FFA4FF61C
:107B4000144040F60044CFF6FF70C4F600044FF036
:107B5000FF312150204604210122F9F7BFFC2046C5
:107B600004210022F9F7BAFC40F22004C2F200041A
:107B700064200A21E06340F22010C4E90D11C4E939
:107B80001111C2F200000021FAF788FF40F2B400A0
:107B9000C2F200007F21F8F7E3FE40F26C10A11C56
:107BA000C2F200000122BDE81040FBF7E9BC000072
:107BB000B0B5FFF7E5FE40F22005C2F20005A86B64
:107BC00060B1FFF76DFEA86C00286CD0286C00280F
:107BD00000F09980BDE8B040FCF7DCB9A87C0A2130
:107BE000A96330B12878B0FA80F0400928700020ED
:107BF000A874687D08B3287801281CD140F20804D5
:107C0000C2F2000494ED020B9FED571B51EC100BD8
:107C100053EC112BF8F746FB41EC100B84ED020BF3
:107C20009FED530B53EC102BF8F7C4FC002804BF56
:107C30000020C4E9020000206875287E48B340F2A5
:107C40000800C2F20000016842F2107201F57A7178
:107C5000914244F2402288BF4FF47A71C0F20F0281
:107C60000160B2FBF1F144F62C03C4F20103196088
:107C7000016890ED011AB2FBF1F1002000EE101A3C
:107C8000B8EE400A21EE000ABCEEC00A83ED020AFB
:107C90002876E87E00281CBF0020E876FFF700FE6B
:107CA000A86C002892D140F2B4040A20C2F2000469
:107CB000A8642046F9F702FA2046F9F791F8F8F798
:107CC000C0FC9FED2B0B53EC102BF8F792FB9FEDB4
:107CD0002A0B53EC102BF8F78CFB40F20802C2F28F
:107CE000000292ED021B41EC100B53EC112B85EDC1
:107CF000020BF8F77AFC002818BF0120E870286C06
:107D000000287FF467AF28786421296430B1012806
:107D1000287904BF00F00400023003E0287900F065
:107D200004000130E97880F0040200294FF6144184
:107D300040F6004408BF00F0FB026FEA0220CFF6D5
:107D4000FF71C4F600042A7160502046042101220C
:107D5000F9F7C4FB204604210022F9F7BFFBBDE878
:107D6000B040FCF717B900BF333333333333D33F5D
:107D70006666666666660A40000000000000303FE6
:107D80000FB4084B10B504A902AA039800F0DEF85E
:107D9000044602A9002000F070FC204610BC5DF8EB
:107DA00014FB00007B86000802E008C8121F08C10F
:107DB000002AFAD170477047002001E001C1121F6C
:107DC000002AFBD1704700002DE9FF5F82B000213F
:107DD000DDE90430020DDDF840B0034318D044F66D
:107DE0001050A2F2FF3242431514119801281FD0FF
:107DF000A5EB0B00401C5FEA000A4FF000064E4F57
:107E0000DFF83891B046504615D5CAF1000413E0AA
:107E1000119801244AA3012801D16FEA0B010298AD
:107E2000119AC0E90031C0E9024206B0BDE8F09FF6
:107E3000CBF10000DFE704460021404A491842EB3D
:107E40000450CDE9001012E0E00707D032463B466F
:107E500040464946F8F7CDFA8046894632463B46C9
:107E600010461946F8F7C5FA06460F466410002C6E
:107E7000EAD1DDE90401DDE90023BAF1000F06DAF9
:107E8000F8F7B7FA42464B46F8F7B3FA05E0F8F7C9
:107E900022FB42464B46F8F71EFB04460E460022E4
:107EA000284BF8F7EBFC03D84FF0FF30014607E012
:107EB0000022254B20463146F8F7F4F9F8F7C5FCC7
:107EC000102409E0002C0ADB0A220023F8F7A0F9AD
:107ED000039B30321A55641E50EA0102F2D1641C31
:107EE000039AC4F111031444119A012A03D0012208
:107EF00008430DD10AE0084304D000204FF0110BD5
:107F0000119072E7A3EB0B056D1E0DE05B4504DDE0
:107F10004FF0000205F1010504E003DA4FF0000222
:107F2000A5F10105002AECD002981199C0E90231AF
:107F3000C0E9004579E70000000014400000F03F70
:107F4000300000000000F0430000E03F2DE9FF4F4B
:107F500095B09B468946064600250FE2252877D135
:107F600000242746F84A0121059400E0044316F84E
:107F7000013F203B01FA03F01042F7D130782A2864
:107F800011D06FF02F033078A0F13002092A16D8F3
:107F9000059A44F0020402EB820203EB4202104411
:107FA000761C0590EFE759F8042B0592002A03DAB6
:107FB000504244F40054059044F00204761C30789A
:107FC0002E2816D116F8010F44F004042A280DD0EB
:107FD0006FF02F023078A0F13003092B09D807EB9E
:107FE000870302EB4303C718761CF3E759F8047BB9
:107FF000761C30786C280FD006DC4C2817D0682807
:108000000DD06A2814D104E0742810D07A280FD13A
:108010000DE044F400140AE044F4801401E044F458
:1080200040147278824202D104F58014761C761CCA
:10803000307866280BD013DC582877D009DC00286C
:1080400075D04528F6D04628F4D047281AD19DE1AE
:1080500018E0632835D0642879D0652812D195E1DD
:10806000702873D008DC6728F1D069286FD06E289B
:108070000DD06F2806D1B5E073282CD0752875D0A7
:10808000782874D05A46179990476D1C75E1C4F34F
:108090000250022809D003280DD0D9F80010042876
:1080A0000DD00D6009F1040967E1D9F80010EA1755
:1080B000C1E90052F6E7D9F800100D80F2E70D7023
:1080C000F0E719F8041B8DF8001000208DF801006E
:1080D000EA46012003E059F804AB4FF0FF30610796
:1080E0004FF0000102D40DE008F101018846B942C9
:1080F0000FDA8045F8DB1AF808100029F4D108E0FF
:1081000008F1010188468142FADB1AF808100029BB
:10811000F6D105985B46A0EB080721463846179A2A
:1081200000F094FA284400EB080507E04DE029E14F
:108130000DE01AF8010B5A4617999047B8F101085B
:10814000F7D25B4621463846179A13E142E00A22ED
:108150000092C4F302524FF0000A022A08D059F8E4
:1081600004CB032A4FEAEC710AD00DE029E02AE0A3
:1081700009F1070121F00702F2E802C1914609E086
:108180000FFA8CFC4FEAEC71042A03D14FFA8CFCF5
:108190004FEAEC71002907DA0A460021DCF1000CF5
:1081A00061EB02012D2202E0220504D52B228DF87D
:1081B0000420012203E0E20701D02022F7E79046E5
:1081C00059E00A2102E010220DE010214FF0000AD0
:1081D00000910BE010224FF0000A44F0040408273D
:1081E000009203E008224FF0000A0092C4F302520A
:1081F000022A05D059F804CB0021032A08D009E04F
:1082000009F1070121F00702F2E802C1914605E0F9
:108210001FFA8CFC042A01D10CF0FF0C4FF000086F
:10822000220728D5702806D0009B83F0100353EA5C
:108230000A0305D00EE040228DF80420012208E058
:108240005CEA010206D030228DF804208DF805008A
:1082500002229046009B83F0080353EA0A030AD1E6
:108260005CEA010201D1620705D530228DF80420B5
:108270004FF001087F1E582804D034A003900EA8A8
:1082800002900DE036A0F9E753466046009AF7F7F2
:10829000BFFF84460398825C0298401E02900270E1
:1082A0005CEA0100F0D1029806A9081A00F1200A40
:1082B000600702D524F4803400E00127574502DD31
:1082C000A7EB0A0000E0002000EB0A0100900598EF
:1082D0004144401A0590E00306D45B462146179AB4
:1082E000059800F0B3F90544002706E001A85A46B6
:1082F000C05D179990476D1C7F1C4745F6DBE00376
:108300000CD55B462146179A059800F09FF9054465
:1083100004E030205A46179990476D1C0099481E7A
:1083200000900029F5DC08E0029802995A4600788E
:10833000491C0291179990476D1CBAF10001AAF1EE
:10834000010AF1DC65E10000092801003031323317
:108350003435363738396162636465660000000081
:10836000303132333435363738394142434445466B
:108370000000000000F058F90544761C3078002811
:108380007FF4ECAD19B02846BDE8F08F620700D449
:10839000062709F1070222F0070CFCE80223E14658
:1083A00003F000485FEA080C02D00FF2702C0DE0D9
:1083B0005FEA045C02D50FF2682C07E05FEAC47C38
:1083C00002D00FF2602C01E0AFF2700C4FF0FF38DA
:1083D00023F00043CDF850C065280CD006DC4528BA
:1083E00009D046281DD047283DD13DE0662818D049
:1083F00067287ED138E00021112F01DB112000E039
:10840000781CCDE9000106A90EA8FFF7DDFCDDE927
:108410000F010E9A03910021009207F1010A0491C5
:108420004DE04FF000400097CDE9011006A90EA8DD
:10843000FFF7CAFCDDE90F0203920E9B119900229F
:10844000DDF80CA00093049211B9791C00EB010A2D
:10845000B7EB0A0004D4C0F1FF3007F1010A049021
:10846000AAEB0700019044E0012F00DA0127002168
:10847000112F01DD112000E03846CDE9000106A9E9
:108480000EA8FFF7A1FCDDE90F010E9A0391002170
:1084900004910092BA4621070CD40399514500DAA1
:1084A0008A46BAF1010F05DD009AAAF10101515C7B
:1084B000302908D0B84202DA10F1040F06DA01219F
:1084C000CDE9011015E0AAF10101E9E7002805DC7A
:1084D000049901440491AAEB000102E0411C5145BA
:1084E00000DD8A460499401A401C01904FF000407C
:1084F0000290200704D40198504501DBCDF8048098
:1085000000208DF84F0002980DF14F07B0F1004F99
:1085100025D02B200E9002984FF0020800280CDA8C
:10852000404202902D200E9007E00A210298F8F7B1
:10853000B1F83031029007F8011DB8F10001A8F13F
:108540000108F2DC02980028EFD1791E0E9808701D
:10855000307800F0200040F0450007F8020D12A826
:10856000C01B00F107081498007800B1012000EB4F
:108570000A01019801EBE07105984144401A401E40
:108580000590E00306D45B462146179A059800F053
:108590005DF805441498007818B15A461799904729
:1085A0006D1CE00324D55B462146179A059800F020
:1085B0004DF805441CE00498002807DBDDE90301C1
:1085C000884203DD0098405C179901E0179930203C
:1085D0005A469047049805F10105401C0490019803
:1085E000401E019004D12E205A46179990476D1CC9
:1085F000BAF10001AAF1010ADDDC05E017F8010B70
:108600005A46179990476D1CB8F10001A8F101086E
:10861000F4DC5B462146179A0598ABE62D00000076
:108620002B000000200000002DE9F0410446002549
:108630001E461746880404D405E039462020B0477A
:108640006D1C641EF9D52846BDE8F0812DE9F04186
:10865000044600251E469046C80301D5302700E099
:108660002027880404D505E041463846B0476D1CF4
:10867000641EF9D52846BDE8F0810A68531C0B60DA
:1086800010707047000000000000000001020304A9
:1086900006070809000000000102030400000000B2
:1086A00000000000000000000000000000000000CA
:1086B00000000000000000000000000000000000BA
:1086C0000000000000000000000000000000800129
:1086D0008001800180018001800180018001800192
:1086E0008001800180018001000000008001800184
:1086F000000000000000000000000000000000007A
:10870000CC00CC00CC00CC00CC00CC0000000000A1
:108710000000000000000000000000000000000059
:108720000000000000000000000000000000000049
:108730000000000000000000600C600C600C3006BF
:108740003006FE1FFE1F300638071803FE1FFE1FEF
:10875000180318038C018C018C01000000008000BC
:10876000E003F80F9C0E8C1C8C188C009800F8010C
:10877000E007800E801C8C188C189C18B80CF00F29
:10878000E003800080000000000000000000000006
:1087900000000E181B0C110C110611061103110319
:1087A0009B018E01C038C06C60446044304430444A
:1087B0001844186C0C380000000000000000E001B4
:1087C000F0033807180618063003F001F000F8002F
:1087D0009C310E33061E061C061C063FFC73F0215E
:1087E0000000000000000000000000000000000089
:1087F0000C000C000C000C000C000C000000000031
:108800000000000000000000000000000000000068
:108810000000000000000000000000000000000256
:1088200000038001C000C000600060003000300024
:108830003000300030003000300030006000600058
:10884000C000C00080010003000200000000200002
:108850006000C000800180010003000300060006E4
:1088600000060006000600060006000600030003DE
:1088700080018001C00060002000000000000000B6
:108880000000000000000000C000C000D806F8078B
:10889000E001300338070000000000000000000085
:1088A00000000000000000000000000000000000C8
:1088B00000000000000000008001800180018001B4
:1088C0008001FC3FFC3F800180018001800180012C
:1088D0000000000000000000000000000000000098
:1088E0000000000000000000000000000000000088
:1088F00000000000000000000000000000008001F7
:108900008001000100018000000000000000000064
:108910000000000000000000000000000000000057
:1089200000000000E007E007000000000000000079
:108930000000000000000000000000000000000037
:108940000000000000000000000000000000000027
:108950000000000000000000000000000000C00057
:10896000C000000000000000000000000000000C3B
:10897000000C00060006000600030003000380034D
:10898000800180018001C000C000C0006000600064
:108990000000000000000000000000000000E003F4
:1089A000F007380E180C0C180C180C180C180C18B2
:1089B0000C180C180C180C18180C380EF007E003E3
:1089C00000000000000000000000000000000001A6
:1089D0008001C001F00198018801800180018001BF
:1089E000800180018001800180018001800180017F
:1089F0000000000000000000000000000000E00394
:108A0000F80F180C0C180C1800180018000C0006B1
:108A100000038001C000600030001800FC1FFC1F34
:108A20000000000000000000000000000000E00165
:108A3000F807180E0C0C0C0C000C0006C003C00745
:108A4000000C001800180C180C18180CF807E0039C
:108A50000000000000000000000000000000000C0A
:108A6000000E000F000F800DC00C600C600C300C6D
:108A7000180C0C0CFC3FFC3F000C000C000C000C14
:108A80000000000000000000000000000000F80FDF
:108A9000F80F180018000C00EC03FC071C0E001C5B
:108AA0000018001800180C181C0C180EF807E0032A
:108AB0000000000000000000000000000000C007EF
:108AC000F00F381C181818000C00CC03EC0F3C0EEB
:108AD0001C1C0C180C180C18181C380EF007E0039E
:108AE0000000000000000000000000000000FC1F6B
:108AF000FC1F000C00060006000380038001C0017B
:108B0000C000E00060006000700030003000300005
:108B10000000000000000000000000000000E00372
:108B2000F007380E180C180C180C3806F007F00770
:108B3000180C0C180C180C180C18380CF80FE00353
:108B40000000000000000000000000000000E00342
:108B5000F007380E1C0C0C180C180C181C1C381EB6
:108B6000F81BE0190018000C000C1C0EF807F001AF
:108B700000000000000000000000000000000000F5
:108B800000000000000000008001800100000000E3
:108B900000000000000000000000000080018001D3
:108BA00000000000000000000000000000000000C5
:108BB00000000000000000008001800100000000B3
:108BC00000000000000000000000000080018001A3
:108BD0000001000180000000000000000000000013
:108BE0000000000000000000000000000010001C59
:108BF000800FE003F8001800F800E003800F001C6D
:108C00000010000000000000000000000000000054
:108C1000000000000000000000000000F81F00003D
:108C200000000000F81F000000000000000000002D
:108C30000000000000000000000000000000000034
:108C400000000000000000000000000008003800E4
:108C5000F001C007001F0018001FC007F001380016
:108C60000800000000000000000000000000E00319
:108C7000F80F180C0C180C180018000C0006000354
:108C80008001C000C000C00000000000C000C000A3
:108C900000000000000000000000000000000000D4
:108CA000E00718180420C229224A11440944094443
:108CB000094409221113E20C024004201818E007AD
:108CC0000000000000000000000000000000800321
:108CD0008003C006C006C006600C600C3018301857
:108CE0003018F83FF83F1C700C600C6006C006C0DE
:108CF0000000000000000000000000000000FC0375
:108D0000FC0F0C0C0C180C180C180C0CFC07FC0FAE
:108D10000C180C300C300C300C300C18FC1FFC07FD
:108D20000000000000000000000000000000C0077C
:108D3000F01F38381C300C70066006000600060074
:108D400006000600060006600C701C30F01FE007ED
:108D50000000000000000000000000000000FE0312
:108D6000FE0F060E061806180630063006300630CE
:108D700006300630063006180618060EFE0FFE03F3
:108D80000000000000000000000000000000FC3FA8
:108D9000FC3F0C000C000C000C000C00FC1FFC1F26
:108DA0000C000C000C000C000C000C00FC3FFC3F05
:108DB0000000000000000000000000000000F83F7C
:108DC000F83F18001800180018001800F81FF81FC6
:108DD00018001800180018001800180018001800D3
:108DE0000000000000000000000000000000E00F94
:108DF000F83F3C780E6006E007C00300030003FE66
:108E000003FE03C007C006C00EC03CF0F83FE00FF1
:108E100000000000000000000000000000000C3016
:108E20000C300C300C300C300C300C30FC3FFC3F64
:108E30000C300C300C300C300C300C300C300C3052
:108E400000000000000000000000000000008001A1
:108E5000800180018001800180018001800180010A
:108E600080018001800180018001800180018001FA
:108E700000000000000000000000000000000006EC
:108E800000060006000600060006000600060006B2
:108E9000000600060006180618063807F003E00171
:108EA000000000000000000000000000000006308C
:108EB0000618060C060606038601C6006600760044
:108EC000DE008E0106030606060C06180630066054
:108ED000000000000000000000000000000018007A
:108EE00018001800180018001800180018001800C2
:108EF000180018001800180018001800F81FF81FB4
:108F000000000000000000000000000000000EE073
:108F10001EF01EF01EF036D836D836D836D866CCBD
:108F200066CC66CCC6C6C6C6C6C6C6C686C386C31B
:108F300000000000000000000000000000000C30F5
:108F40001C303C303C306C306C30CC30CC308C3110
:108F50000C330C330C360C360C3C0C3C0C380C30FF
:108F60000000000000000000000000000000E0071A
:108F7000F81F1C380E70066003C003C003C003C096
:108F800003C003C003C006600E701C38F81FE00762
:108F90000000000000000000000000000000FC0FC6
:108FA000FC1F0C380C300C300C300C300C18FC1F33
:108FB000FC070C000C000C000C000C000C000C005A
:108FC0000000000000000000000000000000E007BA
:108FD000F81F1C380E70066003E003C003C003C016
:108FE00003C003C007E006630E3F1C3CF83FE0F7F8
:108FF00000C0000000000000000000000000FE0FA4
:10900000FE1F06380630063006300638FE1FFE0703
:1090100006030606060C061806180630063006601B
:109020000000000000000000000000000000E0035D
:10903000F80F1C0C0C180C180C001C00F803E00FA7
:10904000001E0038063006300E301C1CF80FE007FA
:109050000000000000000000000000000000FE7F93
:10906000FE7F8001800180018001800180018001FC
:1090700080018001800180018001800180018001E8
:1090800000000000000000000000000000000C30A4
:109090000C300C300C300C300C300C300C300C30F0
:1090A0000C300C300C300C300C301818F81FE00766
:1090B000000000000000000000000000000003604D
:1090C0000630063006300C180C180C18180C180C4A
:1090D000380E30063006700760036003C001C0011F
:1090E000000000000000000000000000000003601D
:1090F000C361C361C3616633663366336633663307
:1091000066336C1B6C1B6C1B2C1A3C1E380E380E05
:1091100000000000000000000000000000000FE060
:109120000C7018303018700C600EC007800380037C
:10913000C003E006700C301C18180C300E6007E0FD
:10914000000000000000000000000000000003C05C
:1091500006600C301C383818300C6006E007C0037D
:1091600080018001800180018001800180018001F7
:109170000000000000000000000000000000FC7F74
:10918000FC7F006000300018000C00060003800126
:10919000C0006000300018000C000600FE7FFE7F5B
:1091A0000000000000000000000000000000E003DC
:1091B000E00360006000600060006000600060002C
:1091C000600060006000600060006000600060009F
:1091D000600060006000E003E00300000000300079
:1091E0003000600060006000C000C000C000C0012E
:1091F00080018001800100030003000300060006D7
:109200000000000000000000000000000000E0037B
:10921000E003000300030003000300030003000356
:109220000003000300030003000300030003000326
:10923000000300030003E003E0030000000000005F
:10924000C001C00160036003600330063006180CE3
:10925000180C0000000000000000000000000000EA
:1092600000000000000000000000000000000000FE
:1092700000000000000000000000000000000000EE
:109280000000000000000000000000000000FFFFE0
:10929000FFFF0000000000000000000000000C00C4
:1092A0000C000C000C000C000C0000000000000082
:1092B00000000000000000000000000000000000AE
:1092C000000000000000000000000000000000009E
:1092D0000000000000000000F003F8071C0C0C0C5C
:1092E000000FF00FF80C0C0C0C0C1C0FF80FF01802
:1092F0000000000000000000000000000000180056
:109300001800180018001800D803F80F380C1818A7
:1093100018181818181818181818380CF80FD80337
:10932000000000000000000000000000000000003D
:109330000000000000000000C003F007300E180C11
:109340001800180018001800180C300EF007C003A1
:1093500000000000000000000000000000000018F5
:109360000018001800180018C01BF01F301C181837
:1093700018181818181818181818301CF01FC01BC7
:1093800000000000000000000000000000000000DD
:109390000000000000000000C003F00F300C18189F
:1093A000F81FF81F180018003818301CF00FC007FD
:1093B0000000000000000000000000000000800F1E
:1093C000C00FC000C000C000F007F007C000C00020
:1093D000C000C000C000C000C000C000C000C0008D
:1093E000000000000000000000000000000000007D
:1093F0000000000000000000E00DF80F180E0C0C3B
:109400000C0C0C0C0C0C0C0C0C0C180EF80FE00DCA
:10941000000C0C0C1C06F807F001000000001800FE
:109420001800180018001800D807F80F381C181872
:1094300018181818181818181818181818181818AC
:109440000000000000000000000000000000C0005C
:10945000C000000000000000C000C000C000C0004C
:10946000C000C000C000C000C000C000C000C000FC
:109470000000000000000000000000000000C0002C
:10948000C000000000000000C000C000C000C0001C
:10949000C000C000C000C000C000C000C000C000CC
:1094A000C000C000C000F8007800000000000C0000
:1094B0000C000C000C000C000C0C0C060C038C01B6
:1094C000CC006C00FC009C018C030C030C060C0C03
:1094D0000000000000000000000000000000C000CC
:1094E000C000C000C000C000C000C000C000C0007C
:1094F000C000C000C000C000C000C000C000C0006C
:10950000000000000000000000000000000000005B
:1095100000000000000000007C3CFF7EC7E383C128
:1095200083C183C183C183C183C183C183C183C11B
:10953000000000000000000000000000000000002B
:1095400000000000000000009807F80F381C1818F1
:10955000181818181818181818181818181818188B
:1095600000000000000000000000000000000000FB
:109570000000000000000000C003F00F300C1818BD
:1095800018181818181818181818300CF00FC003ED
:1095900000000000000000000000000000000000CB
:1095A0000000000000000000D803F80F380C181865
:1095B00018181818181818181818380CF80FD80395
:1095C0001800180018001800180000000000000023
:1095D0000000000000000000C01BF01F301C181825
:1095E00018181818181818181818301CF01FC01B55
:1095F00000180018001800180018000000000000F3
:109600000000000000000000B007F0037000300010
:1096100030003000300030003000300030003000CA
:10962000000000000000000000000000000000003A
:109630000000000000000000E003F003380E180CEA
:109640003800F003C007000C180C380EF007E003D8
:10965000000000000000000000000000000000000A
:109660008000C000C000C000F007F007C000C000CC
:10967000C000C000C000C000C000C000C00780071C
:1096800000000000000000000000000000000000DA
:10969000000000000000000018181818181818180A
:1096A00018181818181818181818381CF01FE0196E
:1096B00000000000000000000000000000000000AA
:1096C00000000000000000000C18180C180C180C0A
:1096D000300630063006600360036003C001C0013D
:1096E000000000000000000000000000000000007A
:1096F0000000000000000000C141C141C36163637C
:10970000636363633636363636361C1C1C1C1C1CE1
:109710000000000000000000000000000000000049
:1097200000000000000000001C38381C300C6006EF
:1097300060036003600360036006300C381C1C3853
:109740000000000000000000000000000000000019
:1097500000000000000000001830301830187018A9
:10976000600C600CE00CC006C00680038003800320
:1097700080018001C001F0007000000000000000C6
:109780000000000000000000FC1FFC1F000C000691
:1097900000038001C000600030001800FC1FFC1FA7
:1097A00000000000000000000000000000000003B6
:1097B0008001C000C000C000C000C000C000600048
:1097C0006000300060004000C000C000C000C00069
:1097D000C000C00080010003000000000000800104
:1097E0008001800180018001800180018001800171
:1097F0008001800180018001800180018001800161
:109800008001800180018001800100000000600073
:10981000C000C0018001800180018001800100033F
:109820000003000600030001800180018001800127
:1098300080018001C0006000000000000000000006
:10984000000000000000000000000000F010F81F01
:10985000080F0000000000000000000000000000F1
:1098600000000000000000000000000001000200F5
:109870000400060008000A000C0010002000400050
:109880008000000102000000040000000800000049
:1098900010000000FDFFFFFFFBFFFFFFF7FFFFFFD2
:1098A000EFFFFFFF000000000400000002000000C6
:1098B0000800000001010103070100000804020480
:1098C00008010101E89800080000002020000000C5
:1098D000A87D00080899000820000020E00500008D
:1098E000B87D00080000000010000000010000002A
:1098F000E8030000CDCCCC3D333333333333D33F97
:08990000FFFF00000024F40049
:04000005080001D915
:00000001FF
